{
  "_format": "hh-sol-artifact-1",
  "contractName": "AmbireAccount",
  "sourceName": "contracts/AmbireAccount.sol",
  "abi": [
    {
      "anonymous": false,
      "inputs": [
        {
          "indexed": true,
          "internalType": "address",
          "name": "to",
          "type": "address"
        },
        {
          "indexed": false,
          "internalType": "uint256",
          "name": "value",
          "type": "uint256"
        },
        {
          "indexed": false,
          "internalType": "bytes",
          "name": "data",
          "type": "bytes"
        },
        {
          "indexed": false,
          "internalType": "bytes",
          "name": "returnData",
          "type": "bytes"
        }
      ],
      "name": "LogErr",
      "type": "event"
    },
    {
      "anonymous": false,
      "inputs": [
        {
          "indexed": true,
          "internalType": "address",
          "name": "addr",
          "type": "address"
        },
        {
          "indexed": false,
          "internalType": "bytes32",
          "name": "priv",
          "type": "bytes32"
        }
      ],
      "name": "LogPrivilegeChanged",
      "type": "event"
    },
    {
      "anonymous": false,
      "inputs": [
        {
          "indexed": true,
          "internalType": "bytes32",
          "name": "txnHash",
          "type": "bytes32"
        },
        {
          "indexed": true,
          "internalType": "bytes32",
          "name": "recoveryHash",
          "type": "bytes32"
        },
        {
          "indexed": true,
          "internalType": "address",
          "name": "recoveryKey",
          "type": "address"
        },
        {
          "indexed": false,
          "internalType": "uint256",
          "name": "time",
          "type": "uint256"
        }
      ],
      "name": "LogRecoveryCancelled",
      "type": "event"
    },
    {
      "anonymous": false,
      "inputs": [
        {
          "indexed": true,
          "internalType": "bytes32",
          "name": "txnHash",
          "type": "bytes32"
        },
        {
          "indexed": true,
          "internalType": "bytes32",
          "name": "recoveryHash",
          "type": "bytes32"
        },
        {
          "indexed": false,
          "internalType": "uint256",
          "name": "time",
          "type": "uint256"
        }
      ],
      "name": "LogRecoveryFinalized",
      "type": "event"
    },
    {
      "anonymous": false,
      "inputs": [
        {
          "indexed": true,
          "internalType": "bytes32",
          "name": "txnHash",
          "type": "bytes32"
        },
        {
          "indexed": true,
          "internalType": "bytes32",
          "name": "recoveryHash",
          "type": "bytes32"
        },
        {
          "indexed": true,
          "internalType": "address",
          "name": "recoveryKey",
          "type": "address"
        },
        {
          "indexed": false,
          "internalType": "uint256",
          "name": "nonce",
          "type": "uint256"
        },
        {
          "indexed": false,
          "internalType": "uint256",
          "name": "time",
          "type": "uint256"
        },
        {
          "components": [
            {
              "internalType": "address",
              "name": "to",
              "type": "address"
            },
            {
              "internalType": "uint256",
              "name": "value",
              "type": "uint256"
            },
            {
              "internalType": "bytes",
              "name": "data",
              "type": "bytes"
            }
          ],
          "indexed": false,
          "internalType": "struct AmbireAccount.Transaction[]",
          "name": "txns",
          "type": "tuple[]"
        }
      ],
      "name": "LogRecoveryScheduled",
      "type": "event"
    },
    {
      "stateMutability": "payable",
      "type": "fallback"
    },
    {
      "inputs": [
        {
          "components": [
            {
              "internalType": "address",
              "name": "to",
              "type": "address"
            },
            {
              "internalType": "uint256",
              "name": "value",
              "type": "uint256"
            },
            {
              "internalType": "bytes",
              "name": "data",
              "type": "bytes"
            }
          ],
          "internalType": "struct AmbireAccount.Transaction[]",
          "name": "txns",
          "type": "tuple[]"
        },
        {
          "internalType": "bytes",
          "name": "signature",
          "type": "bytes"
        }
      ],
      "name": "execute",
      "outputs": [],
      "stateMutability": "payable",
      "type": "function"
    },
    {
      "inputs": [
        {
          "components": [
            {
              "internalType": "address",
              "name": "to",
              "type": "address"
            },
            {
              "internalType": "uint256",
              "name": "value",
              "type": "uint256"
            },
            {
              "internalType": "bytes",
              "name": "data",
              "type": "bytes"
            }
          ],
          "internalType": "struct AmbireAccount.Transaction[]",
          "name": "txns",
          "type": "tuple[]"
        }
      ],
      "name": "executeBySelf",
      "outputs": [],
      "stateMutability": "payable",
      "type": "function"
    },
    {
      "inputs": [
        {
          "components": [
            {
              "internalType": "address",
              "name": "to",
              "type": "address"
            },
            {
              "internalType": "uint256",
              "name": "value",
              "type": "uint256"
            },
            {
              "internalType": "bytes",
              "name": "data",
              "type": "bytes"
            }
          ],
          "internalType": "struct AmbireAccount.Transaction[]",
          "name": "txns",
          "type": "tuple[]"
        }
      ],
      "name": "executeBySender",
      "outputs": [],
      "stateMutability": "payable",
      "type": "function"
    },
    {
      "inputs": [
        {
          "components": [
            {
              "components": [
                {
                  "internalType": "address",
                  "name": "to",
                  "type": "address"
                },
                {
                  "internalType": "uint256",
                  "name": "value",
                  "type": "uint256"
                },
                {
                  "internalType": "bytes",
                  "name": "data",
                  "type": "bytes"
                }
              ],
              "internalType": "struct AmbireAccount.Transaction[]",
              "name": "txns",
              "type": "tuple[]"
            },
            {
              "internalType": "bytes",
              "name": "signature",
              "type": "bytes"
            }
          ],
          "internalType": "struct AmbireAccount.ExecuteArgs[]",
          "name": "toExec",
          "type": "tuple[]"
        }
      ],
      "name": "executeMultiple",
      "outputs": [],
      "stateMutability": "payable",
      "type": "function"
    },
    {
      "inputs": [
        {
          "internalType": "bytes32",
          "name": "hash",
          "type": "bytes32"
        },
        {
          "internalType": "bytes",
          "name": "signature",
          "type": "bytes"
        }
      ],
      "name": "isValidSignature",
      "outputs": [
        {
          "internalType": "bytes4",
          "name": "",
          "type": "bytes4"
        }
      ],
      "stateMutability": "view",
      "type": "function"
    },
    {
      "inputs": [],
      "name": "nonce",
      "outputs": [
        {
          "internalType": "uint256",
          "name": "",
          "type": "uint256"
        }
      ],
      "stateMutability": "view",
      "type": "function"
    },
    {
      "inputs": [
        {
          "internalType": "address",
          "name": "",
          "type": "address"
        },
        {
          "internalType": "address",
          "name": "",
          "type": "address"
        },
        {
          "internalType": "uint256[]",
          "name": "",
          "type": "uint256[]"
        },
        {
          "internalType": "uint256[]",
          "name": "",
          "type": "uint256[]"
        },
        {
          "internalType": "bytes",
          "name": "",
          "type": "bytes"
        }
      ],
      "name": "onERC1155BatchReceived",
      "outputs": [
        {
          "internalType": "bytes4",
          "name": "",
          "type": "bytes4"
        }
      ],
      "stateMutability": "pure",
      "type": "function"
    },
    {
      "inputs": [
        {
          "internalType": "address",
          "name": "",
          "type": "address"
        },
        {
          "internalType": "address",
          "name": "",
          "type": "address"
        },
        {
          "internalType": "uint256",
          "name": "",
          "type": "uint256"
        },
        {
          "internalType": "uint256",
          "name": "",
          "type": "uint256"
        },
        {
          "internalType": "bytes",
          "name": "",
          "type": "bytes"
        }
      ],
      "name": "onERC1155Received",
      "outputs": [
        {
          "internalType": "bytes4",
          "name": "",
          "type": "bytes4"
        }
      ],
      "stateMutability": "pure",
      "type": "function"
    },
    {
      "inputs": [
        {
          "internalType": "address",
          "name": "",
          "type": "address"
        },
        {
          "internalType": "address",
          "name": "",
          "type": "address"
        },
        {
          "internalType": "uint256",
          "name": "",
          "type": "uint256"
        },
        {
          "internalType": "bytes",
          "name": "",
          "type": "bytes"
        }
      ],
      "name": "onERC721Received",
      "outputs": [
        {
          "internalType": "bytes4",
          "name": "",
          "type": "bytes4"
        }
      ],
      "stateMutability": "pure",
      "type": "function"
    },
    {
      "inputs": [
        {
          "internalType": "address",
          "name": "",
          "type": "address"
        }
      ],
      "name": "privileges",
      "outputs": [
        {
          "internalType": "bytes32",
          "name": "",
          "type": "bytes32"
        }
      ],
      "stateMutability": "view",
      "type": "function"
    },
    {
      "inputs": [
        {
          "internalType": "bytes32",
          "name": "",
          "type": "bytes32"
        }
      ],
      "name": "scheduledRecoveries",
      "outputs": [
        {
          "internalType": "uint256",
          "name": "",
          "type": "uint256"
        }
      ],
      "stateMutability": "view",
      "type": "function"
    },
    {
      "inputs": [
        {
          "internalType": "address",
          "name": "addr",
          "type": "address"
        },
        {
          "internalType": "bytes32",
          "name": "priv",
          "type": "bytes32"
        }
      ],
      "name": "setAddrPrivilege",
      "outputs": [],
      "stateMutability": "payable",
      "type": "function"
    },
    {
      "inputs": [
        {
          "internalType": "bytes4",
          "name": "interfaceID",
          "type": "bytes4"
        }
      ],
      "name": "supportsInterface",
      "outputs": [
        {
          "internalType": "bool",
          "name": "",
          "type": "bool"
        }
      ],
      "stateMutability": "pure",
      "type": "function"
    },
    {
      "inputs": [
        {
          "internalType": "address",
          "name": "to",
          "type": "address"
        },
        {
          "internalType": "uint256",
          "name": "value",
          "type": "uint256"
        },
        {
          "internalType": "bytes",
          "name": "data",
          "type": "bytes"
        }
      ],
      "name": "tryCatch",
      "outputs": [],
      "stateMutability": "payable",
      "type": "function"
    },
    {
      "inputs": [
        {
          "internalType": "address",
          "name": "to",
          "type": "address"
        },
        {
          "internalType": "uint256",
          "name": "value",
          "type": "uint256"
        },
        {
          "internalType": "bytes",
          "name": "data",
          "type": "bytes"
        },
        {
          "internalType": "uint256",
          "name": "gasLimit",
          "type": "uint256"
        }
      ],
      "name": "tryCatchLimit",
      "outputs": [],
      "stateMutability": "payable",
      "type": "function"
    },
    {
      "stateMutability": "payable",
      "type": "receive"
    }
  ],
  "bytecode": "0x6080806040523461001657611eb1908161001c8239f35b600080fdfe6080604052600436101561001e575b361561001c5761001c61079f565b005b60003560e01c806301ffc9a71461010e5780630d5828d414610109578063150b7a0214610104578063160aa0ef146100ff5780631626ba7e146100fa5780633628d042146100f55780636171d1c9146100f05780636769de82146100eb578063a2ea6766146100e6578063abc5345e146100e1578063affed0e0146100dc578063bc197c81146100d7578063bf1cb383146100d2578063c066a5b1146100cd5763f23a6e610361000e5761072c565b6106ee565b610685565b6105dc565b6105be565b61057b565b6104d9565b6104b3565b610433565b61034d565b6102fc565b6102d0565b610276565b6101dc565b61012a565b6001600160e01b031981160361012557565b600080fd5b346101255760203660031901126101255760206001600160e01b031960043561015281610113565b167f01ffc9a70000000000000000000000000000000000000000000000000000000081149081156101ba575b8115610190575b506040519015158152f35b7f4e2312e00000000000000000000000000000000000000000000000000000000091501438610185565b630a85bd0160e11b8114915061017e565b6001600160a01b0381160361012557565b6040366003190112610125576004356101f4816101cb565b7f08ac40e0195c5998554e98853c23964a13a24309e127b2d016e8ec4adecf5e8360206001600160a01b036024359361022e3033146107e2565b1692836000526000825280604060002055604051908152a2005b9181601f840112156101255782359167ffffffffffffffff8311610125576020838186019501011161012557565b34610125576080366003190112610125576102926004356101cb565b61029d6024356101cb565b60643567ffffffffffffffff8111610125576102bd903690600401610248565b50506020604051630a85bd0160e11b8152f35b346101255760203660031901126101255760043560005260026020526020604060002054604051908152f35b346101255760403660031901126101255760243567ffffffffffffffff81116101255761033b6103326020923690600401610248565b90600435611357565b6001600160e01b031960405191168152f35b608036600319011261012557600435610365816101cb565b6024359060443567ffffffffffffffff811161012557610389903690600401610248565b90916103963033146107e2565b600080604051848682378085810183815203908785606435f1926103b86108be565b93156103c057005b7f80c2637928bd94d0e1a90eaac1efc1553be6391d962fe5c82a01e90122c84ccc936001600160a01b03936103fd92604051958695169785610957565b0390a2005b9181601f840112156101255782359167ffffffffffffffff8311610125576020808501948460051b01011161012557565b60403660031901126101255767ffffffffffffffff60043581811161012557610460903690600401610402565b906024359283116101255761047c61001c933690600401610248565b929091610efb565b6020600319820112610125576004359067ffffffffffffffff8211610125576104af91600401610402565b9091565b61001c6104d46104c236610484565b6104cd3033146107e2565b3691610def565b6112f9565b6104e236610484565b9060005b8281036104ef57005b6104fa8184846112d7565b908135601e1992838136030182121561012557019182359267ffffffffffffffff90818511610125576020809101928560051b36038413610125576105408589896112d7565b8281013591813603018212156101255701803592831161012557018136038113610125576105769461057193610efb565b610d4a565b6104e6565b6104d46105a561058a36610484565b9290600093338552846020526104cd60408620541515610b23565b338152806020526105bb60408220541515610eb0565b80f35b34610125576000366003190112610125576020600154604051908152f35b346101255760a0366003190112610125576105f86004356101cb565b6106036024356101cb565b67ffffffffffffffff60443581811161012557610624903690600401610402565b50506064358181116101255761063e903690600401610402565b505060843590811161012557610658903690600401610248565b50506040517fbc197c81000000000000000000000000000000000000000000000000000000008152602090f35b60603660031901126101255760043561069d816101cb565b6024359060443567ffffffffffffffff8111610125576106c1903690600401610248565b90916106ce3033146107e2565b6000805a604051858782378785828881018681520393f1926103b86108be565b34610125576020366003190112610125576001600160a01b03600435610713816101cb565b1660005260006020526020604060002054604051908152f35b346101255760a0366003190112610125576107486004356101cb565b6107536024356101cb565b60843567ffffffffffffffff811161012557610773903690600401610248565b505060206040517ff23a6e61000000000000000000000000000000000000000000000000000000008152f35b6000906169698252816020526001600160a01b036040832054169081156107dd5750818091368280378136915af4903d918282803e156107db57f35bfd5b915050565b156107e957565b606460405162461bcd60e51b815260206004820152601660248201527f4f4e4c595f4944454e544954595f43414e5f43414c4c000000000000000000006044820152fd5b634e487b7160e01b600052604160045260246000fd5b6040810190811067ffffffffffffffff82111761085f57604052565b61082d565b6060810190811067ffffffffffffffff82111761085f57604052565b90601f8019910116810190811067ffffffffffffffff82111761085f57604052565b67ffffffffffffffff811161085f57601f01601f191660200190565b3d156108e9573d906108cf826108a2565b916108dd6040519384610880565b82523d6000602084013e565b606090565b908060209392818452848401376000828201840152601f01601f1916010190565b60005b8381106109225750506000910152565b8181015183820152602001610912565b9060209161094b8151809281855285808601910161090f565b601f01601f1916010190565b929161098394926109759285526060602086015260608501916108ee565b916040818403910152610932565b90565b9082818152602080910193818360051b82010194846000925b8584106109b0575050505050505090565b90919293949596601f198282030184528735605e19843603018112156101255783016001600160a01b0381356109e5816101cb565b168252868101358783015260409081810135601e198236030181121561012557019087823592019267ffffffffffffffff83116101255782360384136101255760019389938493610a3e936060809282015201916108ee565b99019401940192959493919061099f565b90926080926001600160a01b036109839795168352602083015260408201528160608201520191610986565b634e487b7160e01b600052601160045260246000fd5b600019810191908211610aa057565b610a7b565b9070014551231950b75fc4402da1732fc9bebe19918203918211610aa057565b634e487b7160e01b600052603260045260246000fd5b90821015610ae7570190565b610ac5565b929192610af8826108a2565b91610b066040519384610880565b829481845281830111610125578281602093846000960137010152565b15610b2a57565b606460405162461bcd60e51b815260206004820152601660248201527f494e53554646494349454e545f50524956494c454745000000000000000000006044820152fd5b67ffffffffffffffff811161085f5760051b60200190565b81601f82011215610125578051610b9c816108a2565b92610baa6040519485610880565b8184526020828401011161012557610983916020808501910161090f565b5190610bd3826101cb565b565b909160608284031261012557815167ffffffffffffffff908181116101255783019360408582031261012557604051610c0d81610843565b855183811161012557860182601f8201121561012557805196610c2f88610b6e565b610c3c6040519182610880565b88815260209860051b83018901898201868211610125578a80809601915b838310610c90575050505083520151868201529484015191821161012557610c89604091610983938601610b86565b9301610bc8565b81908351610c9d816101cb565b8152019101908590610c5a565b6020808252825160408383015280516060840181905260808401949183019060005b818110610ce25750505090604091015191015290565b82516001600160a01b031687529584019591840191600101610ccc565b15610d0657565b606460405162461bcd60e51b815260206004820152601760248201527f5245434f564552595f4e4f545f415554484f52495a45440000000000000000006044820152fd5b6000198114610aa05760010190565b8051821015610ae75760209160051b010190565b9060018201809211610aa057565b91908201809211610aa057565b6109839492606092825260208201528160408201520191610986565b15610dab57565b606460405162461bcd60e51b815260206004820152601260248201527f5245434f564552595f4e4f545f524541445900000000000000000000000000006044820152fd5b929190610dfb81610b6e565b91604091610e0b83519485610880565b839581855260208095019160051b8101938385116101255781925b858410610e365750505050505050565b67ffffffffffffffff9084358281116101255784019160608388031261012557835192610e6284610864565b8035610e6d816101cb565b8452898101358a8501528481013591821161012557019086601f83011215610125578892610ea18884868096359101610aec565b85820152815201930192610e26565b15610eb757565b606460405162461bcd60e51b815260206004820152601860248201527f50524956494c4547455f4e4f545f444f574e47524144454400000000000000006044820152fd5b9192600190815491604091825190602080830183610f1d898b8a463087610a4f565b0393610f31601f1995868101835282610880565b5190209860ff610f7c610f76610f50610f4987610a91565b8786610adb565b357fff000000000000000000000000000000000000000000000000000000000000001690565b60f81c90565b169260ff841480156112cd575b1561126b5791610fbf610fb0610fab60fe9d9896946110139a98963691610aec565b6113c1565b50828082518301019101610bd5565b939061101a6001600160a01b038096169e8f931492895186810190610ff481610fe88985610caa565b038b8101835282610880565b5190209b8c916001600160a01b03166000526000602052604060002090565b5414610cff565b61102e896000526002602052604060002090565b549586151580611263575b156110dc575050505050506110bb956104d4956110d499957fdef2c5a081ab1dd3f896874500de5f4045efd102a452bce3af5123459f461f1b610bd39c9a9661109b6110966104cd98611090611096994211610da4565b54610d4a565b600155565b6000838152600260205260408120555142815280602081010390a3610d6d565b6001600160a01b03166000526000602052604060002090565b541515610eb0565b61113093959e50879d999b989a9c97929496508b9085600014611257578b518881019283526363616e636020840152906111229082604085015b03908101835282610880565b51902090829e93929161182b565b6000918291169b5b6111f8575b506111529192939495969798999a9b50610cff565b156111a45750505050507ff38fc5203ec5ac432b66df0ed37402f7b1afb377ddce98e08c2bf696c7187405906000611194846000526002602052604060002090565b555142815280602081015b0390a4565b946111d761119f93927f58d616db4bbaccaaad10b948d290b9df7973a7b566f83a68e2e0e7f4e5c61ccd97015142610d7b565b6111eb886000526002602052604060002090565b5551938493429085610d88565b835180518210156112515761122e6112226112158f938590610d59565b516001600160a01b031690565b6001600160a01b031690565b146112435761123d8d91610d4a565b90611138565b50999a8b9a5061115261113d565b5061113d565b5090829e93929161182b565b508215611039565b6104d496506110bb979894506104cd9350611096925094610bd39a61129961129f936110d49c983691610aec565b9061182b565b966112c86112c0896001600160a01b03166000526000602052604060002090565b541515610b23565b610d6d565b5060fe8414610f89565b9190811015610ae75760051b81013590603e1981360301821215610125570190565b8051600091825b82811061130d5750505050565b6113178183610d59565b5184806001600160a01b03835116602090818501516040809601519283519301915af11561134e575061134990610d4a565b611300565b513d908186823efd5b600090611299611371936001600160a01b03953691610aec565b166000526000602052604060002054151560001461139457630b135d3f60e11b90565b6001600160e01b031990565b805160401015610ae75760600190565b908151811015610ae7570160200190565b90600019916113d383825101826113b0565b5160f81c928151908101908111610aa0576113ee9082611446565b9190565b6020815111156114025760209052565b606460405162461bcd60e51b815260206004820152601860248201527f42797465734c69623a206f6e6c7920736872696e6b696e6700000000000000006044820152fd5b81815111156114025752565b1561145957565b606460405162461bcd60e51b815260206004820152600960248201527f53565f5349474c454e00000000000000000000000000000000000000000000006044820152fd5b600711156114a757565b634e487b7160e01b600052602160045260246000fd5b156114c457565b606460405162461bcd60e51b815260206004820152600a60248201527f53565f5349474d4f4445000000000000000000000000000000000000000000006044820152fd5b1561150f57565b606460405162461bcd60e51b815260206004820152600f60248201527f53565f53504f4f465f4f524947494e00000000000000000000000000000000006044820152fd5b1561155a57565b606460405162461bcd60e51b815260206004820152600c60248201527f53565f53504f4f465f4c454e00000000000000000000000000000000000000006044820152fd5b6040513d6000823e3d90fd5b1561012557565b908160209103126101255751610983816101cb565b156115cd57565b606460405162461bcd60e51b815260206004820152600d60248201527f53565f4c454e5f57414c4c4554000000000000000000000000000000000000006044820152fd5b90816020910312610125575161098381610113565b604090610983939281528160208201520190610932565b1561164457565b606460405162461bcd60e51b815260206004820152601160248201527f53565f57414c4c45545f494e56414c49440000000000000000000000000000006044820152fd5b1561168f57565b606460405162461bcd60e51b815260206004820152600b60248201527f53565f5a45524f5f5349470000000000000000000000000000000000000000006044820152fd5b90602090818382031261012557825167ffffffffffffffff93848211610125570181601f8201121561012557805161170a81610b6e565b946117186040519687610880565b818652848087019260051b8401019380851161012557858401925b858410611744575050505050505090565b835183811161012557879161175e848480948a0101610b86565b815201930192611733565b9190826080910312610125578151916020810151916060604083015192015160ff811681036101255790565b1561179c57565b606460405162461bcd60e51b815260206004820152601160248201527f53565f5343484e4f52525f4641494c45440000000000000000000000000000006044820152fd5b156117e757565b606460405162461bcd60e51b815260206004820152600660248201527f53565f4c454e00000000000000000000000000000000000000000000000000006044820152fd5b90929160009161183d85511515611452565b60ff61187a610f76611854600019895101896113b0565b517fff000000000000000000000000000000000000000000000000000000000000001690565b1691611888600684106114bd565b6118918361149d565b61189a8361149d565b82158015611de9575b156119a057509084839495926118bf60426020969551146117e0565b6118c882611dfc565b9160016118e3610f766118546118dd85611e50565b946113a0565b946118ed8161149d565b14611946575b61191e9192604051948594859094939260ff6060936080840197845216602083015260408201520152565b838052039060015afa1561194157516109836001600160a01b0382161515611688565b61159e565b61191e91604051611996816119888a82019485603c917f19457468657265756d205369676e6564204d6573736167653a0a3332000000008252601c8201520190565b03601f198101835282610880565b51902091506118f3565b9092916119ac8161149d565b60048103611b4b575050611a4a816020611a1a936119e9886119db6119d5611a239a9b51610a91565b82611446565b838082518301019101611769565b969092829a8199899583611a1370014551231950b75fc4402da1732fc9bebe198096819409610aa5565b9609610aa5565b918414156115aa565b88604051948594859094939260ff6060936080840197845216602083015260408201520152565b838052039060015afa156119415761098394611222948493611adf611afc945192611a7f6001600160a01b0385161515611688565b6040519687936020850195869290605594927fff00000000000000000000000000000000000000000000000000000000000000916bffffffffffffffffffffffff199060601b16855260f81b166014840152601583015260358201520190565b0393611af3601f1995868101835282610880565b51902014611795565b611b3c60405191826111166020820195866027917f5343484e4f525200000000000000000000000000000000000000000000000000825260078201520190565b5190206001600160a01b031690565b611b578196949661149d565b60058103611c15575050611b74611b6e8351610a91565b83611446565b611b886020928380825183010191016116d3565b93819482955b81518714611bfa57611bab84611ba48985610d59565b518561182b565b611222611bf492611988611b3c611bee946040519283918c83019586906028926bffffffffffffffffffffffff19809260601b16835260601b1660148201520190565b96610d4a565b95611b8e565b949550505050506109836001600160a01b0382161515611688565b611c2381969394959661149d565b60028103611ce8575050611c8891611c3e60218551116115c6565b60206001600160a01b038119865101611c6a611c63611222611222611222858c611e60565b9188611446565b169460405180958192630b135d3f60e11b9687845260048401611626565b0381875afa801561194157611caf936001600160e01b03199291611cba575b50161461163d565b610983811515611688565b611cdb915060203d8111611ce1575b611cd38183610880565b810190611611565b38611ca7565b503d611cc9565b6003919250611cf68161149d565b149081611de1575b50611d485760405162461bcd60e51b815260206004820152600760248201527f53565f54595045000000000000000000000000000000000000000000000000006044820152606490fd5b600132148015611dd6575b611d5c90611508565b611d696021835114611553565b611d72826113f2565b60208160405180611d9a81906000606060808401938281528260208201528260408201520152565b838052039060015afa156119415761098391611dc7611b396001600160a01b0361122294511614156115aa565b602080825183010191016115b1565b5032611b3914611d53565b905038611cfe565b50611df38361149d565b600183146118a3565b6020815110611e0c576020015190565b606460405162461bcd60e51b815260206004820152601060248201527f42797465734c69623a206c656e677468000000000000000000000000000000006044820152fd5b6040815110611e0c576040015190565b9060208101808211610aa057825110611e0c5701602001519056fea2646970667358221220f72d51961c35d820c2f27ddb4ebecd368a156afde35ca5ade81a0e9b3bd0fd5864736f6c63430008130033",
  "linkReferences": {},
  "deployedLinkReferences": {}
}