{
  "_format": "hh-sol-artifact-1",
  "contractName": "LegendsNFTImplementation",
  "sourceName": "contracts/LegendsNftImplementation.sol",
  "abi": [
    {
      "inputs": [],
      "stateMutability": "nonpayable",
      "type": "constructor"
    },
    {
      "anonymous": false,
      "inputs": [
        {
          "indexed": true,
          "internalType": "address",
          "name": "owner",
          "type": "address"
        },
        {
          "indexed": true,
          "internalType": "address",
          "name": "approved",
          "type": "address"
        },
        {
          "indexed": true,
          "internalType": "uint256",
          "name": "tokenId",
          "type": "uint256"
        }
      ],
      "name": "Approval",
      "type": "event"
    },
    {
      "anonymous": false,
      "inputs": [
        {
          "indexed": true,
          "internalType": "address",
          "name": "owner",
          "type": "address"
        },
        {
          "indexed": true,
          "internalType": "address",
          "name": "operator",
          "type": "address"
        },
        {
          "indexed": false,
          "internalType": "bool",
          "name": "approved",
          "type": "bool"
        }
      ],
      "name": "ApprovalForAll",
      "type": "event"
    },
    {
      "anonymous": false,
      "inputs": [
        {
          "indexed": false,
          "internalType": "uint256",
          "name": "_fromTokenId",
          "type": "uint256"
        },
        {
          "indexed": false,
          "internalType": "uint256",
          "name": "_toTokenId",
          "type": "uint256"
        }
      ],
      "name": "BatchMetadataUpdate",
      "type": "event"
    },
    {
      "anonymous": false,
      "inputs": [
        {
          "indexed": false,
          "internalType": "uint256",
          "name": "_tokenId",
          "type": "uint256"
        }
      ],
      "name": "MetadataUpdate",
      "type": "event"
    },
    {
      "anonymous": false,
      "inputs": [
        {
          "indexed": true,
          "internalType": "address",
          "name": "previousOwner",
          "type": "address"
        },
        {
          "indexed": true,
          "internalType": "address",
          "name": "newOwner",
          "type": "address"
        }
      ],
      "name": "OwnershipTransferred",
      "type": "event"
    },
    {
      "anonymous": false,
      "inputs": [
        {
          "indexed": true,
          "internalType": "uint256",
          "name": "heroType",
          "type": "uint256"
        }
      ],
      "name": "PickedCharacter",
      "type": "event"
    },
    {
      "anonymous": false,
      "inputs": [
        {
          "indexed": true,
          "internalType": "address",
          "name": "from",
          "type": "address"
        },
        {
          "indexed": true,
          "internalType": "address",
          "name": "to",
          "type": "address"
        },
        {
          "indexed": true,
          "internalType": "uint256",
          "name": "tokenId",
          "type": "uint256"
        }
      ],
      "name": "Transfer",
      "type": "event"
    },
    {
      "inputs": [
        {
          "internalType": "address",
          "name": "recipient",
          "type": "address"
        },
        {
          "internalType": "uint256",
          "name": "tokenId",
          "type": "uint256"
        }
      ],
      "name": "approve",
      "outputs": [],
      "stateMutability": "nonpayable",
      "type": "function"
    },
    {
      "inputs": [
        {
          "internalType": "address",
          "name": "owner",
          "type": "address"
        }
      ],
      "name": "balanceOf",
      "outputs": [
        {
          "internalType": "uint256",
          "name": "",
          "type": "uint256"
        }
      ],
      "stateMutability": "view",
      "type": "function"
    },
    {
      "inputs": [
        {
          "internalType": "uint256",
          "name": "tokenId",
          "type": "uint256"
        }
      ],
      "name": "burn",
      "outputs": [],
      "stateMutability": "nonpayable",
      "type": "function"
    },
    {
      "inputs": [
        {
          "internalType": "uint256",
          "name": "tokenId",
          "type": "uint256"
        }
      ],
      "name": "getApproved",
      "outputs": [
        {
          "internalType": "address",
          "name": "",
          "type": "address"
        }
      ],
      "stateMutability": "view",
      "type": "function"
    },
    {
      "inputs": [
        {
          "internalType": "address",
          "name": "owner",
          "type": "address"
        },
        {
          "internalType": "address",
          "name": "operator",
          "type": "address"
        }
      ],
      "name": "isApprovedForAll",
      "outputs": [
        {
          "internalType": "bool",
          "name": "",
          "type": "bool"
        }
      ],
      "stateMutability": "view",
      "type": "function"
    },
    {
      "inputs": [
        {
          "internalType": "uint256",
          "name": "heroType",
          "type": "uint256"
        }
      ],
      "name": "mint",
      "outputs": [],
      "stateMutability": "nonpayable",
      "type": "function"
    },
    {
      "inputs": [],
      "name": "name",
      "outputs": [
        {
          "internalType": "string",
          "name": "",
          "type": "string"
        }
      ],
      "stateMutability": "view",
      "type": "function"
    },
    {
      "inputs": [],
      "name": "owner",
      "outputs": [
        {
          "internalType": "address",
          "name": "",
          "type": "address"
        }
      ],
      "stateMutability": "view",
      "type": "function"
    },
    {
      "inputs": [
        {
          "internalType": "uint256",
          "name": "tokenId",
          "type": "uint256"
        }
      ],
      "name": "ownerOf",
      "outputs": [
        {
          "internalType": "address",
          "name": "",
          "type": "address"
        }
      ],
      "stateMutability": "view",
      "type": "function"
    },
    {
      "inputs": [
        {
          "internalType": "address",
          "name": "",
          "type": "address"
        }
      ],
      "name": "pickedCharacters",
      "outputs": [
        {
          "internalType": "uint256",
          "name": "",
          "type": "uint256"
        }
      ],
      "stateMutability": "view",
      "type": "function"
    },
    {
      "inputs": [],
      "name": "renounceOwnership",
      "outputs": [],
      "stateMutability": "nonpayable",
      "type": "function"
    },
    {
      "inputs": [
        {
          "internalType": "address",
          "name": "from",
          "type": "address"
        },
        {
          "internalType": "address",
          "name": "to",
          "type": "address"
        },
        {
          "internalType": "uint256",
          "name": "tokenId",
          "type": "uint256"
        }
      ],
      "name": "safeTransferFrom",
      "outputs": [],
      "stateMutability": "nonpayable",
      "type": "function"
    },
    {
      "inputs": [
        {
          "internalType": "address",
          "name": "from",
          "type": "address"
        },
        {
          "internalType": "address",
          "name": "to",
          "type": "address"
        },
        {
          "internalType": "uint256",
          "name": "tokenId",
          "type": "uint256"
        },
        {
          "internalType": "bytes",
          "name": "data",
          "type": "bytes"
        }
      ],
      "name": "safeTransferFrom",
      "outputs": [],
      "stateMutability": "nonpayable",
      "type": "function"
    },
    {
      "inputs": [
        {
          "internalType": "bool",
          "name": "value",
          "type": "bool"
        }
      ],
      "name": "setAllowTransfer",
      "outputs": [],
      "stateMutability": "nonpayable",
      "type": "function"
    },
    {
      "inputs": [
        {
          "internalType": "address",
          "name": "recipient",
          "type": "address"
        },
        {
          "internalType": "bool",
          "name": "isApproved",
          "type": "bool"
        }
      ],
      "name": "setApprovalForAll",
      "outputs": [],
      "stateMutability": "nonpayable",
      "type": "function"
    },
    {
      "inputs": [
        {
          "internalType": "string",
          "name": "_baseURI",
          "type": "string"
        }
      ],
      "name": "setBaseUri",
      "outputs": [],
      "stateMutability": "nonpayable",
      "type": "function"
    },
    {
      "inputs": [
        {
          "internalType": "bytes4",
          "name": "interfaceId",
          "type": "bytes4"
        }
      ],
      "name": "supportsInterface",
      "outputs": [
        {
          "internalType": "bool",
          "name": "",
          "type": "bool"
        }
      ],
      "stateMutability": "view",
      "type": "function"
    },
    {
      "inputs": [],
      "name": "symbol",
      "outputs": [
        {
          "internalType": "string",
          "name": "",
          "type": "string"
        }
      ],
      "stateMutability": "view",
      "type": "function"
    },
    {
      "inputs": [
        {
          "internalType": "uint256",
          "name": "index",
          "type": "uint256"
        }
      ],
      "name": "tokenByIndex",
      "outputs": [
        {
          "internalType": "uint256",
          "name": "",
          "type": "uint256"
        }
      ],
      "stateMutability": "view",
      "type": "function"
    },
    {
      "inputs": [
        {
          "internalType": "address",
          "name": "owner",
          "type": "address"
        },
        {
          "internalType": "uint256",
          "name": "index",
          "type": "uint256"
        }
      ],
      "name": "tokenOfOwnerByIndex",
      "outputs": [
        {
          "internalType": "uint256",
          "name": "",
          "type": "uint256"
        }
      ],
      "stateMutability": "view",
      "type": "function"
    },
    {
      "inputs": [
        {
          "internalType": "uint256",
          "name": "tokenId",
          "type": "uint256"
        }
      ],
      "name": "tokenURI",
      "outputs": [
        {
          "internalType": "string",
          "name": "",
          "type": "string"
        }
      ],
      "stateMutability": "view",
      "type": "function"
    },
    {
      "inputs": [],
      "name": "totalSupply",
      "outputs": [
        {
          "internalType": "uint256",
          "name": "",
          "type": "uint256"
        }
      ],
      "stateMutability": "view",
      "type": "function"
    },
    {
      "inputs": [
        {
          "internalType": "address",
          "name": "from",
          "type": "address"
        },
        {
          "internalType": "address",
          "name": "to",
          "type": "address"
        },
        {
          "internalType": "uint256",
          "name": "tokenId",
          "type": "uint256"
        }
      ],
      "name": "transferFrom",
      "outputs": [],
      "stateMutability": "nonpayable",
      "type": "function"
    },
    {
      "inputs": [
        {
          "internalType": "address",
          "name": "newOwner",
          "type": "address"
        }
      ],
      "name": "transferOwnership",
      "outputs": [],
      "stateMutability": "nonpayable",
      "type": "function"
    },
    {
      "inputs": [
        {
          "internalType": "uint256[]",
          "name": "ids",
          "type": "uint256[]"
        }
      ],
      "name": "updateMetadata",
      "outputs": [],
      "stateMutability": "nonpayable",
      "type": "function"
    }
  ],
  "bytecode": "0x6080604052346200032857620000146200032d565b6200001e6200032d565b60008054336001600160a01b0319821681178355906001600160a01b03167f8be0079c531659141344cd1fd0a4f28419497f9722a3daafe3b4186f6b6457e08380a382516001600160401b039283821162000314576001928354928484811c941696871562000309575b60209788861014620002f5578190601f95868111620002a2575b5088908683116001146200023e57849262000232575b5050600019600383901b1c191690851b1784555b81519485116200021e576002548481811c9116801562000213575b87821014620001ff57838111620001b6575b50859285116001146200014d57939450849291908362000141575b50501b916000199060031b1c1916176002555b60ff19600b5416600b55604051611e069081620003688239f35b01519250388062000114565b6002815285812093958591601f198316915b888383106200019b575050501062000181575b505050811b0160025562000127565b015160001960f88460031b161c1916905538808062000172565b8587015188559096019594850194879350908101906200015f565b600282528682208480880160051c820192898910620001f5575b0160051c019085905b828110620001e9575050620000f9565b838155018590620001d9565b92508192620001d0565b634e487b7160e01b82526022600452602482fd5b90607f1690620000e7565b634e487b7160e01b81526041600452602490fd5b015190503880620000b8565b8785528985208894509190601f198416865b8c8282106200028b575050841162000271575b505050811b018455620000cc565b015160001960f88460031b161c1916905538808062000263565b8385015186558b9790950194938401930162000250565b9091508684528884208680850160051c8201928b8610620002eb575b918991869594930160051c01915b828110620002dc575050620000a2565b868155859450899101620002cc565b92508192620002be565b634e487b7160e01b83526022600452602483fd5b93607f169362000088565b634e487b7160e01b83526041600452602483fd5b600080fd5b60405190602082016001600160401b03811183821017620003515760405260008252565b634e487b7160e01b600052604160045260246000fdfe6080604081815260048036101561001557600080fd5b600092833560e01c90816301ffc9a7146114015750806306fdde0314611359578063081812fc14611301578063095ea7b3146112165780630b81e216146111df57806318160ddd146111c057806323b872dd1461119a5780632f745c59146110dc57806342842e0e1461107f57806342966c6814610da25780634f6ccce714610cfe5780636352211e14610cce5780636e4aa2a014610c9757806370a0823114610c6a578063715018a614610c115780638da5cb5b14610beb57806395d89b4114610b06578063a0712d6814610956578063a0bcfc7f146107ce578063a22cb4651461068b578063b88d4fde146105f4578063c87b56dd14610397578063e04c740d14610264578063e985e9c5146102125763f2fde38b1461013657600080fd5b3461020e57602036600319011261020e5761014f61157f565b90610158611639565b6001600160a01b038092169283156101a55750508254826001600160a01b03198216178455167f8be0079c531659141344cd1fd0a4f28419497f9722a3daafe3b4186f6b6457e08380a380f35b906020608492519162461bcd60e51b8352820152602660248201527f4f776e61626c653a206e6577206f776e657220697320746865207a65726f206160448201527f64647265737300000000000000000000000000000000000000000000000000006064820152fd5b8280fd5b50503461026057806003193601126102605760ff8160209361023261157f565b61023a61159a565b6001600160a01b0391821683526006875283832091168252855220549151911615158152f35b5080fd5b50913461039457602092836003193601126102605780359367ffffffffffffffff938486116103905736602387011215610390578583013594851161037d578460051b958151956102b7848901886115e5565b865282860160248098830101913683116103795788859101915b8383106103695750505050835b8551811015610365576001600160a01b036102f9828861185d565b51168552600d83528185205461032d575b600019811461031b576001016102de565b8685601186634e487b7160e01b835252fd5b7ff8e1a15aba9398e019f0b49df1a4fde98ee17ae345cb5f6b5e2c27f5033e8ce783610359838961185d565b518451908152a161030a565b8480f35b82358152918101918591016102d1565b8680fd5b602484604185634e487b7160e01b835252fd5b8380fd5b80fd5b509190346102605760209182600319360112610394576001600160a01b03843516908251946060860186811067ffffffffffffffff8211176105e1578452602a865284860190843683378651156105ce57603082538651936001948510156105bb576078602189015360295b85811161054357506105025750835195869383600c54916104238361178b565b928982821691826000146104db575050600114610478575b50505091806104566104749695936104659551938491611537565b0103601f1981018652856115e5565b5192828493845283019061155a565b0390f35b8897969550600c82527fdf6966c971051c3d54ec59162606531493a51404a002842f56009d7e5cf4a8c75b8383106104c357509596949550508401909201918061045661046561043b565b8054838c018a015289988b97509092019181016104a3565b60ff191689820152841515909402880190930195508392506104569150610465905061043b565b606490868087519262461bcd60e51b845283015260248201527f537472696e67733a20686578206c656e67746820696e73756666696369656e746044820152fd5b90600f811660108110156105a85789518310156105a8577f3031323334353637383961626364656600000000000000000000000000000000901a88838b010153821c9080156105955760001901610403565b602485601185634e487b7160e01b835252fd5b602486603286634e487b7160e01b835252fd5b602484603284634e487b7160e01b835252fd5b826032602492634e487b7160e01b835252fd5b602483604184634e487b7160e01b835252fd5b50903461020e57608036600319011261020e5761060f61157f565b61061761159a565b846064359467ffffffffffffffff86116102605736602387011215610260578501359461064f6106468761161d565b955195866115e5565b8585523660248783010111610260578561068896602460209301838801378501015261067f60ff600b5416611871565b60443591611b8a565b80f35b50903461020e578060031936011261020e576106a561157f565b90602435918215158093036107ca5760ff600b541615610761576001600160a01b03169283331461071f5750338452600660205280842083855260205280842060ff1981541660ff8416179055519081527f17307eab39ab6107e8899845ad3d59bd9653f200f220920489ca2b5937696c3160203392a380f35b6020606492519162461bcd60e51b8352820152601960248201527f4552433732313a20617070726f766520746f2063616c6c6572000000000000006044820152fd5b608484602084519162461bcd60e51b8352820152602660248201527f536f756c626f756e643a2063616e6e6f742073657420617070726f76616c206660448201527f6f7220616c6c00000000000000000000000000000000000000000000000000006064820152fd5b8480fd5b508234610394576020918260031936011261026057803567ffffffffffffffff9182821161039057366023830112156103905781013591821161020e576024903682848301011161039057610821611639565b61082c600c5461178b565b601f81116108f8575b508394601f84116001146108755750938394839493610868575b5050508160011b916000199060031b1c191617600c5580f35b010135905083808061084f565b601f198416957fdf6966c971051c3d54ec59162606531493a51404a002842f56009d7e5cf4a8c7939186905b8882106108de5750508460019697106108c2575b50505050811b01600c5580f35b60001960f88660031b161c1992010135169055838080806108b5565b8060018497868395968901013581550196019201906108a1565b7fdf6966c971051c3d54ec59162606531493a51404a002842f56009d7e5cf4a8c7601f850160051c81019187861061094c575b601f0160051c01905b8181106109415750610835565b858155600101610934565b909150819061092b565b50919034610260576020908160031936011261020e578335913315610ac55761099e6109983360005260036020526001600160a01b0360406000205416151590565b15611812565b600954338552600a8252808386205568010000000000000000811015610ab257908394956109ef6109d7846001600d96016009556117c5565b339082549060031b91821b91600019901b1916179055565b6109f833611691565b33885260078352848820818952835233858920553388526008835284882055610a3a6109983360005260036020526001600160a01b0360406000205416151590565b33875281528286206001815401905560038152828620336001600160a01b03198254161790553333877fddf252ad1be2c89b69c2b068fc378daa952ba7f163c4a11628f55a4df523b3ef8180a4528320557f57b05ab6e02076adb17b0bd7d009fcad80273c0fb91ffefa6baeb921394e4f898280a280f35b602485604188634e487b7160e01b835252fd5b808591606493519262461bcd60e51b845283015260248201527f4552433732313a206d696e7420746f20746865207a65726f20616464726573736044820152fd5b50503461026057816003193601126102605780519082600254610b288161178b565b80855291600191808316908115610bc35750600114610b66575b505050610b54826104749403836115e5565b5191829160208352602083019061155a565b9450600285527f405787fa12a823e0f2b7631cc41b3ba8828b3321ca811111fa75cd3aa3bb5ace5b828610610bab57505050610b548260206104749582010194610b42565b80546020878701810191909152909501948101610b8e565b610474975086935060209250610b5494915060ff191682840152151560051b82010194610b42565b5050346102605781600319360112610260576001600160a01b0360209254169051908152f35b8334610394578060031936011261039457610c2a611639565b806001600160a01b0381546001600160a01b031981168355167f8be0079c531659141344cd1fd0a4f28419497f9722a3daafe3b4186f6b6457e08280a380f35b50503461026057602036600319011261026057602090610c90610c8b61157f565b611691565b9051908152f35b50503461026057602036600319011261026057806020926001600160a01b03610cbe61157f565b168152600d845220549051908152f35b50913461039457602036600319011261039457506001600160a01b03610cf660209335611766565b915191168152f35b5082346103945760203660031901126103945750803590600954821015610d3957602083610d2b846117c5565b91905490519160031b1c8152f35b608490602084519162461bcd60e51b8352820152602c60248201527f455243373231456e756d657261626c653a20676c6f62616c20696e646578206f60448201527f7574206f6620626f756e647300000000000000000000000000000000000000006064820152fd5b50919034610260576020928360031936011261020e5780359160ff600b54161561103d57828452600385526001600160a01b039081818620541633148015611031575b15610fef57338552600d86528481812055610dff84611766565b8083169081610f6e575050600954848652600a8752808287205568010000000000000000811015610f5b5784610e3e826001610e5794016009556117c5565b90919082549060031b91821b91600019901b1916179055565b60095460001990818101908111610f4857858752600a8852610e7c83882054916117c5565b90549060031b1c610e9081610e3e846117c5565b8752600a88528287205584865285828120556009548015610f35579681600392889998979801610ebf816117c5565b83825491871b1b19169055600955610ed688611766565b9488885260058352848820956001600160a01b031996878154169055169586885282528387209081540190558686525283209081541690557fddf252ad1be2c89b69c2b068fc378daa952ba7f163c4a11628f55a4df523b3ef8280a480f35b602487603187634e487b7160e01b835252fd5b602487601187634e487b7160e01b835252fd5b602486604186634e487b7160e01b835252fd5b610f7790611691565b600019810191908211610f48578587526008885282872054828103610fb8575b50858752868381205586526007875281862090865286528481812055610e57565b8188526007895283882083895289528388205482895260078a52848920828a528a5280858a20558852600889528388205538610f97565b8286606492519162461bcd60e51b8352820152601960248201527f596f752063616e6e6f74206275726e2074686973204e46542e000000000000006044820152fd5b50818554163314610de5565b9084606492519162461bcd60e51b8352820152601660248201527f536f756c626f756e643a2063616e6e6f74206275726e000000000000000000006044820152fd5b5091903461026057611090366115b0565b9161109f60ff600b5416611871565b835193602085019085821067ffffffffffffffff8311176110c95761068896975052858452611b8a565b60248760418a634e487b7160e01b835252fd5b5091346103945781600319360112610394576110f661157f565b6024359061110381611691565b8210156111315760209284926001600160a01b03849316825260078552828220908252845220549051908152f35b608485602086519162461bcd60e51b8352820152602b60248201527f455243373231456e756d657261626c653a206f776e657220696e646578206f7560448201527f74206f6620626f756e64730000000000000000000000000000000000000000006064820152fd5b8334610394576106886111ac366115b0565b916111bb60ff600b5416611871565b61192d565b5050346102605781600319360112610260576020906009549051908152f35b838234610260576020366003190112610260573580151580910361026057611205611639565b60ff8019600b5416911617600b5580f35b50903461020e578060031936011261020e5761123061157f565b906024359260ff600b541615611299575082845260056020528320906001600160a01b0380911691826001600160a01b031982541617905561127183611766565b167f8c5be1e5ebec7d5bd14f71427d1e84f3dd0314c0f7b2291e5b200ac8c7c3b9258480a480f35b6020608492519162461bcd60e51b8352820152602860248201527f536f756c626f756e643a2063616e6e6f7420617070726f766520746f6b656e2060448201527f7472616e736665720000000000000000000000000000000000000000000000006064820152fd5b503461020e57602036600319011261020e57816020936001600160a01b0392356113496113448260005260036020526001600160a01b0360406000205416151590565b61171b565b8152600585522054169051908152f35b50503461026057816003193601126102605780519082600180549161137d8361178b565b80865292828116908115610bc357506001146113a557505050610b54826104749403836115e5565b94508085527fb10e2d527612073b26eecdfd717e6a320cf44b4afac2b0732d9fcbe2b7fa0cf65b8286106113e957505050610b548260206104749582010194610b42565b805460208787018101919091529095019481016113cc565b9250503461020e57602036600319011261020e57357fffffffff00000000000000000000000000000000000000000000000000000000811680910361020e57602092507f49064906000000000000000000000000000000000000000000000000000000008114908115611476575b5015158152f35b7f780e9d63000000000000000000000000000000000000000000000000000000008114915081156114a9575b503861146f565b7f80ac58cd0000000000000000000000000000000000000000000000000000000081149150811561150d575b81156114e3575b50386114a2565b7f01ffc9a700000000000000000000000000000000000000000000000000000000915014386114dc565b7f5b5e139f00000000000000000000000000000000000000000000000000000000811491506114d5565b60005b83811061154a5750506000910152565b818101518382015260200161153a565b9060209161157381518092818552858086019101611537565b601f01601f1916010190565b600435906001600160a01b038216820361159557565b600080fd5b602435906001600160a01b038216820361159557565b6060906003190112611595576001600160a01b0390600435828116810361159557916024359081168103611595579060443590565b90601f8019910116810190811067ffffffffffffffff82111761160757604052565b634e487b7160e01b600052604160045260246000fd5b67ffffffffffffffff811161160757601f01601f191660200190565b6001600160a01b0360005416330361164d57565b606460405162461bcd60e51b815260206004820152602060248201527f4f776e61626c653a2063616c6c6572206973206e6f7420746865206f776e65726044820152fd5b6001600160a01b031680156116b157600052600460205260406000205490565b608460405162461bcd60e51b815260206004820152602960248201527f4552433732313a2061646472657373207a65726f206973206e6f74206120766160448201527f6c6964206f776e657200000000000000000000000000000000000000000000006064820152fd5b1561172257565b606460405162461bcd60e51b815260206004820152601860248201527f4552433732313a20696e76616c696420746f6b656e20494400000000000000006044820152fd5b60005260036020526001600160a01b036040600020541661178881151561171b565b90565b90600182811c921680156117bb575b60208310146117a557565b634e487b7160e01b600052602260045260246000fd5b91607f169161179a565b6009548110156117fc5760096000527f6e1540171b6c0c960b71a7020d9f60077f6af931a8bbf590da0223dacf75c7af0190600090565b634e487b7160e01b600052603260045260246000fd5b1561181957565b606460405162461bcd60e51b815260206004820152601c60248201527f4552433732313a20746f6b656e20616c7265616479206d696e746564000000006044820152fd5b80518210156117fc5760209160051b010190565b1561187857565b606460405162461bcd60e51b815260206004820152601e60248201527f536f756c626f756e643a2063616e6e6f74207472616e73666572206e667400006044820152fd5b156118c357565b608460405162461bcd60e51b815260206004820152602560248201527f4552433732313a207472616e736665722066726f6d20696e636f72726563742060448201527f6f776e65720000000000000000000000000000000000000000000000000000006064820152fd5b6119519161193a84611766565b6001600160a01b03938484169391851684146118bc565b838216938415611b2157839182611a68575090506009549085600052600a6020528160406000205568010000000000000000821015611607576119bc926119a387610e3e8560018997016009556117c5565b828603611a35575b506119b586611766565b16146118bc565b7fddf252ad1be2c89b69c2b068fc378daa952ba7f163c4a11628f55a4df523b3ef60008481526005602052604081206001600160a01b03199081815416905583825260046020526040822060001981540190558482526040822060018154019055858252600360205284604083209182541617905580a4565b611a3e90611691565b604060008781526007602052818120838252602052888282205588815260086020522055386119ab565b858303611a7a575b506119bc926119a3565b611a85919250611691565b600019810191908211611b0b576119bc9284926000908882526020906008825260409182842054828103611ad4575b508a84528383812055868452600781528284209184525281205592611a70565b8785526007825283852083865282528385205488865260078352848620828752835280858720558552600882528385205538611ab4565b634e487b7160e01b600052601160045260246000fd5b608460405162461bcd60e51b8152602060048201526024808201527f4552433732313a207472616e7366657220746f20746865207a65726f2061646460448201527f72657373000000000000000000000000000000000000000000000000000000006064820152fd5b90611ba1939291611b9c83838361192d565b611c13565b15611ba857565b60405162461bcd60e51b815260206004820152603260248201527f4552433732313a207472616e7366657220746f206e6f6e20455243373231526560448201527f63656976657220696d706c656d656e74657200000000000000000000000000006064820152608490fd5b9293600093909291803b15611dc557948491611c8796604051809481937f150b7a0200000000000000000000000000000000000000000000000000000000978884523360048501526001600160a01b0380921660248501526044840152608060648401528260209b8c97608483019061155a565b0393165af1849181611d6d575b50611d44575050503d600014611d3c573d611cae8161161d565b90611cbc60405192836115e5565b81528091833d92013e5b80519182611d395760405162461bcd60e51b815260206004820152603260248201527f4552433732313a207472616e7366657220746f206e6f6e20455243373231526560448201527f63656976657220696d706c656d656e74657200000000000000000000000000006064820152608490fd5b01fd5b506060611cc6565b7fffffffff00000000000000000000000000000000000000000000000000000000161492509050565b9091508581813d8311611dbe575b611d8581836115e5565b810103126107ca57517fffffffff00000000000000000000000000000000000000000000000000000000811681036107ca579038611c94565b503d611d7b565b50505091505060019056fea264697066735822122043dd8aad9a90354c82b5579c242300c3a58e9c1ef0255e8a8b659a6ac1f35ce164736f6c63430008130033",
  "linkReferences": {},
  "deployedLinkReferences": {}
}