{
    "src/AmbirePaymaster.sol": {
        "AmbirePaymaster": {
            "abi": [
                {
                    "type": "constructor",
                    "inputs": [
                        {
                            "name": "_relayer",
                            "type": "address",
                            "internalType": "address"
                        }
                    ],
                    "stateMutability": "nonpayable"
                },
                {
                    "type": "function",
                    "name": "call",
                    "inputs": [
                        {
                            "name": "to",
                            "type": "address",
                            "internalType": "address"
                        },
                        {
                            "name": "value",
                            "type": "uint256",
                            "internalType": "uint256"
                        },
                        {
                            "name": "data",
                            "type": "bytes",
                            "internalType": "bytes"
                        },
                        {
                            "name": "gas",
                            "type": "uint256",
                            "internalType": "uint256"
                        }
                    ],
                    "outputs": [],
                    "stateMutability": "payable"
                },
                {
                    "type": "function",
                    "name": "postOp",
                    "inputs": [
                        {
                            "name": "mode",
                            "type": "uint8",
                            "internalType": "enum IPaymaster.PostOpMode"
                        },
                        {
                            "name": "context",
                            "type": "bytes",
                            "internalType": "bytes"
                        },
                        {
                            "name": "actualGasCost",
                            "type": "uint256",
                            "internalType": "uint256"
                        }
                    ],
                    "outputs": [],
                    "stateMutability": "nonpayable"
                },
                {
                    "type": "function",
                    "name": "relayer",
                    "inputs": [],
                    "outputs": [
                        {
                            "name": "",
                            "type": "address",
                            "internalType": "address"
                        }
                    ],
                    "stateMutability": "view"
                },
                {
                    "type": "function",
                    "name": "validatePaymasterUserOp",
                    "inputs": [
                        {
                            "name": "userOp",
                            "type": "tuple",
                            "internalType": "struct PackedUserOperation",
                            "components": [
                                {
                                    "name": "sender",
                                    "type": "address",
                                    "internalType": "address"
                                },
                                {
                                    "name": "nonce",
                                    "type": "uint256",
                                    "internalType": "uint256"
                                },
                                {
                                    "name": "initCode",
                                    "type": "bytes",
                                    "internalType": "bytes"
                                },
                                {
                                    "name": "callData",
                                    "type": "bytes",
                                    "internalType": "bytes"
                                },
                                {
                                    "name": "accountGasLimits",
                                    "type": "bytes32",
                                    "internalType": "bytes32"
                                },
                                {
                                    "name": "preVerificationGas",
                                    "type": "uint256",
                                    "internalType": "uint256"
                                },
                                {
                                    "name": "gasFees",
                                    "type": "bytes32",
                                    "internalType": "bytes32"
                                },
                                {
                                    "name": "paymasterAndData",
                                    "type": "bytes",
                                    "internalType": "bytes"
                                },
                                {
                                    "name": "signature",
                                    "type": "bytes",
                                    "internalType": "bytes"
                                }
                            ]
                        },
                        {
                            "name": "",
                            "type": "bytes32",
                            "internalType": "bytes32"
                        },
                        {
                            "name": "",
                            "type": "uint256",
                            "internalType": "uint256"
                        }
                    ],
                    "outputs": [
                        {
                            "name": "context",
                            "type": "bytes",
                            "internalType": "bytes"
                        },
                        {
                            "name": "validationData",
                            "type": "uint256",
                            "internalType": "uint256"
                        }
                    ],
                    "stateMutability": "view"
                }
            ],
            "userdoc": {},
            "devdoc": {},
            "evm": {
                "bytecode": {
                    "object": "60a03461007757601f61159038819003918201601f19168301916001600160401b0383118484101761007c5780849260209460405283398101031261007757516001600160a01b0381168103610077576080526040516114fd9081610093823960805181818160a00152818161032701526104200152f35b600080fd5b634e487b7160e01b600052604160045260246000fdfe608080604052600436101561001357600080fd5b6000803560e01c9182634e4a0c821461005c575050806352b7512c146100575780638406c079146100525763a9a234091461004d57600080fd5b610444565b610400565b610204565b8060031936011261015857600435906100748261015c565b60443567ffffffffffffffff811161015457610094903690600401610172565b92906001600160a01b037f00000000000000000000000000000000000000000000000000000000000000001633036101185792828593928261010d96869537838383015260243590606435f13d15610110573d906100f1826104db565b916100ff60405193846104b9565b82523d84602084013e61051b565b80f35b60609061051b565b60648362461bcd60e51b81526020608452601160a4527f63616c6c3a206e6f742072656c6179657200000000000000000000000000000060c452fd5b8380fd5b5080fd5b6001600160a01b0381160361016d57565b600080fd5b9181601f8401121561016d5782359167ffffffffffffffff831161016d576020838186019501011161016d57565b60005b8381106101b35750506000910152565b81810151838201526020016101a3565b906020916101dc815180928185528580860191016101a0565b601f01601f1916010190565b9291906101ff6020916040865260408601906101c3565b930152565b3461016d5760031960603682011261016d5760043567ffffffffffffffff811161016d576101208160040192823603011261016d576103957fffffffffffff00000000000000000000000000000000000000000000000000009261031b600161028561027d61027660e488018661054b565b809161057e565b8101906105f3565b919490966103136064820192610305886102a96102a2878561054b565b36916105bc565b946102b38461064a565b9660048751101590816103b0575b50156103a1578c6102d96000955b604484019061054b565b604098919851988997602089019b8c9560c488013598608460a48a0135990135973390309046906106a1565b03601f1981018352826104b9565b519020610c87565b506001600160a01b03807f000000000000000000000000000000000000000000000000000000000000000016911614600014610399576000905b61035d6104f7565b9160ff79ffffffffffff000000000000000000000000000000000000000060405197889760d01b169360a01b169116171790836101e8565b0390f35b600190610355565b8c6102d96024830135956102cf565b7fa2ea67660000000000000000000000000000000000000000000000000000000091506103f86103f26103ec6001600160e01b0319938961054b565b9061059b565b90610654565b1614386102c1565b3461016d57600036600319011261016d5760206040516001600160a01b037f0000000000000000000000000000000000000000000000000000000000000000168152f35b3461016d57606036600319011261016d576003600435101561016d5760243567ffffffffffffffff811161016d57610480903690600401610172565b005b634e487b7160e01b600052604160045260246000fd5b6040810190811067ffffffffffffffff8211176104b457604052565b610482565b90601f8019910116810190811067ffffffffffffffff8211176104b457604052565b67ffffffffffffffff81116104b457601f01601f191660200190565b604051906020820182811067ffffffffffffffff8211176104b45760405260008252565b156105235750565b6105479060405191829162461bcd60e51b83526020600484015260248301906101c3565b0390fd5b903590601e198136030182121561016d570180359067ffffffffffffffff821161016d5760200191813603831361016d57565b909291928360341161016d57831161016d57603401916033190190565b9060041161016d5790600490565b359065ffffffffffff8216820361016d57565b9291926105c8826104db565b916105d660405193846104b9565b82948184528183011161016d578281602093846000960137010152565b909160608284031261016d57610608826105a9565b92610615602084016105a9565b9260408101359067ffffffffffffffff821161016d57019080601f8301121561016d57816020610647933591016105bc565b90565b356106478161015c565b6001600160e01b0319903581811693926004811061067157505050565b60040360031b82901b16169150565b908060209392818452848401376000828201840152601f01601f1916010190565b9996929361071598956101609c9f9e9d9a959360209461070699948e528d6001600160a01b0396878094169101521660408d015265ffffffffffff80921660608d01521660808b01521660a089015260c08801526101808060e0890152870191610680565b908482036101008601526101c3565b956101208301526101408201520152565b1561072d57565b606460405162461bcd60e51b815260206004820152600960248201527f53565f5349474c454e00000000000000000000000000000000000000000000006044820152fd5b634e487b7160e01b600052603260045260246000fd5b8051604010156107975760600190565b610771565b908151811015610797570160200190565b600711156107b757565b634e487b7160e01b600052602160045260246000fd5b604051906107da82610498565b600682527f416d6269726500000000000000000000000000000000000000000000000000006020830152565b6040519061081382610498565b600182527f31000000000000000000000000000000000000000000000000000000000000006020830152565b604051906060820182811067ffffffffffffffff8211176104b457604052602d82527f62797465733332206861736829000000000000000000000000000000000000006040837f416d626972654f7065726174696f6e2861646472657373206163636f756e742c60208201520152565b156108b657565b606460405162461bcd60e51b815260206004820152600f60248201527f53565f53504f4f465f4f524947494e00000000000000000000000000000000006044820152fd5b1561090157565b606460405162461bcd60e51b815260206004820152600c60248201527f53565f53504f4f465f4c454e00000000000000000000000000000000000000006044820152fd5b6040513d6000823e3d90fd5b1561016d57565b9081602091031261016d57516106478161015c565b1561097457565b606460405162461bcd60e51b815260206004820152600d60248201527f53565f4c454e5f57414c4c4554000000000000000000000000000000000000006044820152fd5b9081602091031261016d57516001600160e01b03198116810361016d5790565b6040906106479392815281602082015201906101c3565b156109f657565b606460405162461bcd60e51b815260206004820152601160248201527f53565f57414c4c45545f494e56414c49440000000000000000000000000000006044820152fd5b634e487b7160e01b600052601160045260246000fd5b600019810191908211610a5f57565b610a3a565b9070014551231950b75fc4402da1732fc9bebe19918203918211610a5f57565b602090818184031261016d57805167ffffffffffffffff9182821161016d57019083601f8301121561016d578151938185116104b4578460051b90604092835196610ad1878501896104b9565b875285808801938601019482861161016d57868101935b868510610afa57505050505050505090565b845183811161016d5782019084603f8301121561016d578882015190610b1f826104db565b610b2b895191826104b9565b8281528689848601011161016d57610b4c8b949385948b86850191016101a0565b815201940193610ae8565b6000198114610a5f5760010190565b80518210156107975760209160051b010190565b919082608091031261016d578151916020810151916060604083015192015160ff8116810361016d5790565b15610bad57565b606460405162461bcd60e51b815260206004820152600b60248201527f53565f5a45524f5f5349470000000000000000000000000000000000000000006044820152fd5b15610bf857565b606460405162461bcd60e51b815260206004820152601160248201527f53565f5343484e4f52525f4641494c45440000000000000000000000000000006044820152fd5b15610c4357565b606460405162461bcd60e51b815260206004820152600660248201527f53565f4c454e00000000000000000000000000000000000000000000000000006044820152fd5b90929192610c9781511515610726565b610cd8610cd2610cac6000198451018461079c565b517fff000000000000000000000000000000000000000000000000000000000000001690565b60f81c90565b600660ff82161015611392575b60ff1693610cf2856107ad565b600090610cfe866107ad565b8515958615878161137d575b8815611257575b610d1a836107ad565b90611244575b15610dcb5750505080602092610d456000935160418114908115610dc0575b50610c3c565b610d91610d5183611448565b92610d6a610cd2610cac610d648461149c565b93610787565b93604051948594859094939260ff6060936080840197845216602083015260408201520152565b838052039060015afa15610dbb576000515b610db76001600160a01b0382161515610ba6565b9190565b610945565b604291501438610d3f565b610dd4816107ad565b60048103610f9257505050610e33610e73926020610e0f84610e01610dfb60009751610a50565b8261143c565b828082518301019101610b7a565b978396899398949270014551231950b75fc4402da1732fc9bebe1993849109610a64565b91610e4c610e43828a8c09610a64565b91841415610951565b87604051948594859094939260ff6060936080840197845216602083015260408201520152565b838052039060015afa15610dbb57610f26610f81938392610f8d96610f0960005192610ea96001600160a01b0385161515610ba6565b6040519687936020850195869290605594927fff00000000000000000000000000000000000000000000000000000000000000916bffffffffffffffffffffffff199060601b16855260f81b166014840152601583015260358201520190565b0393610f1d601f19958681018352826104b9565b51902014610bf1565b610f726040519182610f666020820195866027917f5343484e4f525200000000000000000000000000000000000000000000000000825260078201520190565b039081018352826104b9565b5190206001600160a01b031690565b6001600160a01b031690565b610da3565b610fa1819793979594956107ad565b6005810361105e57505050610fbf610fb98351610a50565b8361143c565b610fd3602092838082518301019101610a84565b600080955b8251871461105357610ff66000610fef8986610b66565b5186610c87565b61104a575b610f8161104492610305610f7261103e946040519283918c83019586906028926bffffffffffffffffffffffff19809260601b16835260601b1660148201520190565b96610b57565b95610fd8565b60019250610ffb565b935094505050610da3565b61106b81979493976107ad565b600281036111425750506110ea9150611087602184511161096d565b60206001600160a01b0381198551016110b36110ac610f81610f81610f81858b6114ac565b918761143c565b1693604051809481927f1626ba7e0000000000000000000000000000000000000000000000000000000095868452600484016109d8565b0381865afa918215610dbb57610f8d926001600160e01b031991600091611114575b5016146109ef565b611135915060203d811161113b575b61112d81836104b9565b8101906109b8565b3861110c565b503d611123565b6003919250611150816107ad565b14908161123c575b50156111f7576001321480156111ec575b611172906108af565b61117f60218351146108fa565b611188826113e8565b602081604051806111b081906000606060808401938281528260208201528260408201520152565b838052039060015afa15610dbb57610f8d916111dd611b396001600160a01b03610f819451161415610951565b60208082518301019101610958565b5032611b3914611169565b60405162461bcd60e51b815260206004820152600760248201527f53565f54595045000000000000000000000000000000000000000000000000006044820152606490fd5b905038611158565b5061124e816107ad565b60018114610d20565b956112606107cd565b6113746112d38251602080940120611276610806565b805190850120604080517fd87cd6ef79d4e2b95e15ce8abf732db51ec771f1ca2edccf22a46c729ac56472818801908152602081019490945290830191909152466060830152306080830152600060a083015291829060c0830190565b03916112e7601f19938481018352826104b9565b5190209361132161132d6112f961083f565b8051908701206040805180890192835230602084015290820194909452929182906060850190565b038481018352826104b9565b51902092610f666040519485928301968790916042927f19010000000000000000000000000000000000000000000000000000000000008352600283015260228201520190565b51902095610d11565b9750611388826107ad565b6005821497610d0a565b5080516041036113a3576000610ce5565b60405162461bcd60e51b815260206004820152600a60248201527f53565f5349474d4f4445000000000000000000000000000000000000000000006044820152606490fd5b6020815111156113f85760209052565b606460405162461bcd60e51b815260206004820152601860248201527f42797465734c69623a206f6e6c7920736872696e6b696e6700000000000000006044820152fd5b81815111156113f85752565b6020815110611458576020015190565b606460405162461bcd60e51b815260206004820152601060248201527f42797465734c69623a206c656e677468000000000000000000000000000000006044820152fd5b6040815110611458576040015190565b9060208101808211610a5f578251106114585701602001519056fea264697066735822122014e3fb901ad5f13ed36de031ff0eb369ef33fea7a5d21343fc57cf3c938c24bf64736f6c63430008130033",
                    "opcodes": "PUSH1 0xA0 CALLVALUE PUSH2 0x77 JUMPI PUSH1 0x1F PUSH2 0x1590 CODESIZE DUP2 SWAP1 SUB SWAP2 DUP3 ADD PUSH1 0x1F NOT AND DUP4 ADD SWAP2 PUSH1 0x1 PUSH1 0x1 PUSH1 0x40 SHL SUB DUP4 GT DUP5 DUP5 LT OR PUSH2 0x7C JUMPI DUP1 DUP5 SWAP3 PUSH1 0x20 SWAP5 PUSH1 0x40 MSTORE DUP4 CODECOPY DUP2 ADD SUB SLT PUSH2 0x77 JUMPI MLOAD PUSH1 0x1 PUSH1 0x1 PUSH1 0xA0 SHL SUB DUP2 AND DUP2 SUB PUSH2 0x77 JUMPI PUSH1 0x80 MSTORE PUSH1 0x40 MLOAD PUSH2 0x14FD SWAP1 DUP2 PUSH2 0x93 DUP3 CODECOPY PUSH1 0x80 MLOAD DUP2 DUP2 DUP2 PUSH1 0xA0 ADD MSTORE DUP2 DUP2 PUSH2 0x327 ADD MSTORE PUSH2 0x420 ADD MSTORE RETURN JUMPDEST PUSH1 0x0 DUP1 REVERT JUMPDEST PUSH4 0x4E487B71 PUSH1 0xE0 SHL PUSH1 0x0 MSTORE PUSH1 0x41 PUSH1 0x4 MSTORE PUSH1 0x24 PUSH1 0x0 REVERT INVALID PUSH1 0x80 DUP1 PUSH1 0x40 MSTORE PUSH1 0x4 CALLDATASIZE LT ISZERO PUSH2 0x13 JUMPI PUSH1 0x0 DUP1 REVERT JUMPDEST PUSH1 0x0 DUP1 CALLDATALOAD PUSH1 0xE0 SHR SWAP2 DUP3 PUSH4 0x4E4A0C82 EQ PUSH2 0x5C JUMPI POP POP DUP1 PUSH4 0x52B7512C EQ PUSH2 0x57 JUMPI DUP1 PUSH4 0x8406C079 EQ PUSH2 0x52 JUMPI PUSH4 0xA9A23409 EQ PUSH2 0x4D JUMPI PUSH1 0x0 DUP1 REVERT JUMPDEST PUSH2 0x444 JUMP JUMPDEST PUSH2 0x400 JUMP JUMPDEST PUSH2 0x204 JUMP JUMPDEST DUP1 PUSH1 0x3 NOT CALLDATASIZE ADD SLT PUSH2 0x158 JUMPI PUSH1 0x4 CALLDATALOAD SWAP1 PUSH2 0x74 DUP3 PUSH2 0x15C JUMP JUMPDEST PUSH1 0x44 CALLDATALOAD PUSH8 0xFFFFFFFFFFFFFFFF DUP2 GT PUSH2 0x154 JUMPI PUSH2 0x94 SWAP1 CALLDATASIZE SWAP1 PUSH1 0x4 ADD PUSH2 0x172 JUMP JUMPDEST SWAP3 SWAP1 PUSH1 0x1 PUSH1 0x1 PUSH1 0xA0 SHL SUB PUSH32 0x0 AND CALLER SUB PUSH2 0x118 JUMPI SWAP3 DUP3 DUP6 SWAP4 SWAP3 DUP3 PUSH2 0x10D SWAP7 DUP7 SWAP6 CALLDATACOPY DUP4 DUP4 DUP4 ADD MSTORE PUSH1 0x24 CALLDATALOAD SWAP1 PUSH1 0x64 CALLDATALOAD CALL RETURNDATASIZE ISZERO PUSH2 0x110 JUMPI RETURNDATASIZE SWAP1 PUSH2 0xF1 DUP3 PUSH2 0x4DB JUMP JUMPDEST SWAP2 PUSH2 0xFF PUSH1 0x40 MLOAD SWAP4 DUP5 PUSH2 0x4B9 JUMP JUMPDEST DUP3 MSTORE RETURNDATASIZE DUP5 PUSH1 0x20 DUP5 ADD RETURNDATACOPY PUSH2 0x51B JUMP JUMPDEST DUP1 RETURN JUMPDEST PUSH1 0x60 SWAP1 PUSH2 0x51B JUMP JUMPDEST PUSH1 0x64 DUP4 PUSH3 0x461BCD PUSH1 0xE5 SHL DUP2 MSTORE PUSH1 0x20 PUSH1 0x84 MSTORE PUSH1 0x11 PUSH1 0xA4 MSTORE PUSH32 0x63616C6C3A206E6F742072656C61796572000000000000000000000000000000 PUSH1 0xC4 MSTORE REVERT JUMPDEST DUP4 DUP1 REVERT JUMPDEST POP DUP1 REVERT JUMPDEST PUSH1 0x1 PUSH1 0x1 PUSH1 0xA0 SHL SUB DUP2 AND SUB PUSH2 0x16D JUMPI JUMP JUMPDEST PUSH1 0x0 DUP1 REVERT JUMPDEST SWAP2 DUP2 PUSH1 0x1F DUP5 ADD SLT ISZERO PUSH2 0x16D JUMPI DUP3 CALLDATALOAD SWAP2 PUSH8 0xFFFFFFFFFFFFFFFF DUP4 GT PUSH2 0x16D JUMPI PUSH1 0x20 DUP4 DUP2 DUP7 ADD SWAP6 ADD ADD GT PUSH2 0x16D JUMPI JUMP JUMPDEST PUSH1 0x0 JUMPDEST DUP4 DUP2 LT PUSH2 0x1B3 JUMPI POP POP PUSH1 0x0 SWAP2 ADD MSTORE JUMP JUMPDEST DUP2 DUP2 ADD MLOAD DUP4 DUP3 ADD MSTORE PUSH1 0x20 ADD PUSH2 0x1A3 JUMP JUMPDEST SWAP1 PUSH1 0x20 SWAP2 PUSH2 0x1DC DUP2 MLOAD DUP1 SWAP3 DUP2 DUP6 MSTORE DUP6 DUP1 DUP7 ADD SWAP2 ADD PUSH2 0x1A0 JUMP JUMPDEST PUSH1 0x1F ADD PUSH1 0x1F NOT AND ADD ADD SWAP1 JUMP JUMPDEST SWAP3 SWAP2 SWAP1 PUSH2 0x1FF PUSH1 0x20 SWAP2 PUSH1 0x40 DUP7 MSTORE PUSH1 0x40 DUP7 ADD SWAP1 PUSH2 0x1C3 JUMP JUMPDEST SWAP4 ADD MSTORE JUMP JUMPDEST CALLVALUE PUSH2 0x16D JUMPI PUSH1 0x3 NOT PUSH1 0x60 CALLDATASIZE DUP3 ADD SLT PUSH2 0x16D JUMPI PUSH1 0x4 CALLDATALOAD PUSH8 0xFFFFFFFFFFFFFFFF DUP2 GT PUSH2 0x16D JUMPI PUSH2 0x120 DUP2 PUSH1 0x4 ADD SWAP3 DUP3 CALLDATASIZE SUB ADD SLT PUSH2 0x16D JUMPI PUSH2 0x395 PUSH32 0xFFFFFFFFFFFF0000000000000000000000000000000000000000000000000000 SWAP3 PUSH2 0x31B PUSH1 0x1 PUSH2 0x285 PUSH2 0x27D PUSH2 0x276 PUSH1 0xE4 DUP9 ADD DUP7 PUSH2 0x54B JUMP JUMPDEST DUP1 SWAP2 PUSH2 0x57E JUMP JUMPDEST DUP2 ADD SWAP1 PUSH2 0x5F3 JUMP JUMPDEST SWAP2 SWAP5 SWAP1 SWAP7 PUSH2 0x313 PUSH1 0x64 DUP3 ADD SWAP3 PUSH2 0x305 DUP9 PUSH2 0x2A9 PUSH2 0x2A2 DUP8 DUP6 PUSH2 0x54B JUMP JUMPDEST CALLDATASIZE SWAP2 PUSH2 0x5BC JUMP JUMPDEST SWAP5 PUSH2 0x2B3 DUP5 PUSH2 0x64A JUMP JUMPDEST SWAP7 PUSH1 0x4 DUP8 MLOAD LT ISZERO SWAP1 DUP2 PUSH2 0x3B0 JUMPI JUMPDEST POP ISZERO PUSH2 0x3A1 JUMPI DUP13 PUSH2 0x2D9 PUSH1 0x0 SWAP6 JUMPDEST PUSH1 0x44 DUP5 ADD SWAP1 PUSH2 0x54B JUMP JUMPDEST PUSH1 0x40 SWAP9 SWAP2 SWAP9 MLOAD SWAP9 DUP10 SWAP8 PUSH1 0x20 DUP10 ADD SWAP12 DUP13 SWAP6 PUSH1 0xC4 DUP9 ADD CALLDATALOAD SWAP9 PUSH1 0x84 PUSH1 0xA4 DUP11 ADD CALLDATALOAD SWAP10 ADD CALLDATALOAD SWAP8 CALLER SWAP1 ADDRESS SWAP1 CHAINID SWAP1 PUSH2 0x6A1 JUMP JUMPDEST SUB PUSH1 0x1F NOT DUP2 ADD DUP4 MSTORE DUP3 PUSH2 0x4B9 JUMP JUMPDEST MLOAD SWAP1 KECCAK256 PUSH2 0xC87 JUMP JUMPDEST POP PUSH1 0x1 PUSH1 0x1 PUSH1 0xA0 SHL SUB DUP1 PUSH32 0x0 AND SWAP2 AND EQ PUSH1 0x0 EQ PUSH2 0x399 JUMPI PUSH1 0x0 SWAP1 JUMPDEST PUSH2 0x35D PUSH2 0x4F7 JUMP JUMPDEST SWAP2 PUSH1 0xFF PUSH26 0xFFFFFFFFFFFF0000000000000000000000000000000000000000 PUSH1 0x40 MLOAD SWAP8 DUP9 SWAP8 PUSH1 0xD0 SHL AND SWAP4 PUSH1 0xA0 SHL AND SWAP2 AND OR OR SWAP1 DUP4 PUSH2 0x1E8 JUMP JUMPDEST SUB SWAP1 RETURN JUMPDEST PUSH1 0x1 SWAP1 PUSH2 0x355 JUMP JUMPDEST DUP13 PUSH2 0x2D9 PUSH1 0x24 DUP4 ADD CALLDATALOAD SWAP6 PUSH2 0x2CF JUMP JUMPDEST PUSH32 0xA2EA676600000000000000000000000000000000000000000000000000000000 SWAP2 POP PUSH2 0x3F8 PUSH2 0x3F2 PUSH2 0x3EC PUSH1 0x1 PUSH1 0x1 PUSH1 0xE0 SHL SUB NOT SWAP4 DUP10 PUSH2 0x54B JUMP JUMPDEST SWAP1 PUSH2 0x59B JUMP JUMPDEST SWAP1 PUSH2 0x654 JUMP JUMPDEST AND EQ CODESIZE PUSH2 0x2C1 JUMP JUMPDEST CALLVALUE PUSH2 0x16D JUMPI PUSH1 0x0 CALLDATASIZE PUSH1 0x3 NOT ADD SLT PUSH2 0x16D JUMPI PUSH1 0x20 PUSH1 0x40 MLOAD PUSH1 0x1 PUSH1 0x1 PUSH1 0xA0 SHL SUB PUSH32 0x0 AND DUP2 MSTORE RETURN JUMPDEST CALLVALUE PUSH2 0x16D JUMPI PUSH1 0x60 CALLDATASIZE PUSH1 0x3 NOT ADD SLT PUSH2 0x16D JUMPI PUSH1 0x3 PUSH1 0x4 CALLDATALOAD LT ISZERO PUSH2 0x16D JUMPI PUSH1 0x24 CALLDATALOAD PUSH8 0xFFFFFFFFFFFFFFFF DUP2 GT PUSH2 0x16D JUMPI PUSH2 0x480 SWAP1 CALLDATASIZE SWAP1 PUSH1 0x4 ADD PUSH2 0x172 JUMP JUMPDEST STOP JUMPDEST PUSH4 0x4E487B71 PUSH1 0xE0 SHL PUSH1 0x0 MSTORE PUSH1 0x41 PUSH1 0x4 MSTORE PUSH1 0x24 PUSH1 0x0 REVERT JUMPDEST PUSH1 0x40 DUP2 ADD SWAP1 DUP2 LT PUSH8 0xFFFFFFFFFFFFFFFF DUP3 GT OR PUSH2 0x4B4 JUMPI PUSH1 0x40 MSTORE JUMP JUMPDEST PUSH2 0x482 JUMP JUMPDEST SWAP1 PUSH1 0x1F DUP1 NOT SWAP2 ADD AND DUP2 ADD SWAP1 DUP2 LT PUSH8 0xFFFFFFFFFFFFFFFF DUP3 GT OR PUSH2 0x4B4 JUMPI PUSH1 0x40 MSTORE JUMP JUMPDEST PUSH8 0xFFFFFFFFFFFFFFFF DUP2 GT PUSH2 0x4B4 JUMPI PUSH1 0x1F ADD PUSH1 0x1F NOT AND PUSH1 0x20 ADD SWAP1 JUMP JUMPDEST PUSH1 0x40 MLOAD SWAP1 PUSH1 0x20 DUP3 ADD DUP3 DUP2 LT PUSH8 0xFFFFFFFFFFFFFFFF DUP3 GT OR PUSH2 0x4B4 JUMPI PUSH1 0x40 MSTORE PUSH1 0x0 DUP3 MSTORE JUMP JUMPDEST ISZERO PUSH2 0x523 JUMPI POP JUMP JUMPDEST PUSH2 0x547 SWAP1 PUSH1 0x40 MLOAD SWAP2 DUP3 SWAP2 PUSH3 0x461BCD PUSH1 0xE5 SHL DUP4 MSTORE PUSH1 0x20 PUSH1 0x4 DUP5 ADD MSTORE PUSH1 0x24 DUP4 ADD SWAP1 PUSH2 0x1C3 JUMP JUMPDEST SUB SWAP1 REVERT JUMPDEST SWAP1 CALLDATALOAD SWAP1 PUSH1 0x1E NOT DUP2 CALLDATASIZE SUB ADD DUP3 SLT ISZERO PUSH2 0x16D JUMPI ADD DUP1 CALLDATALOAD SWAP1 PUSH8 0xFFFFFFFFFFFFFFFF DUP3 GT PUSH2 0x16D JUMPI PUSH1 0x20 ADD SWAP2 DUP2 CALLDATASIZE SUB DUP4 SGT PUSH2 0x16D JUMPI JUMP JUMPDEST SWAP1 SWAP3 SWAP2 SWAP3 DUP4 PUSH1 0x34 GT PUSH2 0x16D JUMPI DUP4 GT PUSH2 0x16D JUMPI PUSH1 0x34 ADD SWAP2 PUSH1 0x33 NOT ADD SWAP1 JUMP JUMPDEST SWAP1 PUSH1 0x4 GT PUSH2 0x16D JUMPI SWAP1 PUSH1 0x4 SWAP1 JUMP JUMPDEST CALLDATALOAD SWAP1 PUSH6 0xFFFFFFFFFFFF DUP3 AND DUP3 SUB PUSH2 0x16D JUMPI JUMP JUMPDEST SWAP3 SWAP2 SWAP3 PUSH2 0x5C8 DUP3 PUSH2 0x4DB JUMP JUMPDEST SWAP2 PUSH2 0x5D6 PUSH1 0x40 MLOAD SWAP4 DUP5 PUSH2 0x4B9 JUMP JUMPDEST DUP3 SWAP5 DUP2 DUP5 MSTORE DUP2 DUP4 ADD GT PUSH2 0x16D JUMPI DUP3 DUP2 PUSH1 0x20 SWAP4 DUP5 PUSH1 0x0 SWAP7 ADD CALLDATACOPY ADD ADD MSTORE JUMP JUMPDEST SWAP1 SWAP2 PUSH1 0x60 DUP3 DUP5 SUB SLT PUSH2 0x16D JUMPI PUSH2 0x608 DUP3 PUSH2 0x5A9 JUMP JUMPDEST SWAP3 PUSH2 0x615 PUSH1 0x20 DUP5 ADD PUSH2 0x5A9 JUMP JUMPDEST SWAP3 PUSH1 0x40 DUP2 ADD CALLDATALOAD SWAP1 PUSH8 0xFFFFFFFFFFFFFFFF DUP3 GT PUSH2 0x16D JUMPI ADD SWAP1 DUP1 PUSH1 0x1F DUP4 ADD SLT ISZERO PUSH2 0x16D JUMPI DUP2 PUSH1 0x20 PUSH2 0x647 SWAP4 CALLDATALOAD SWAP2 ADD PUSH2 0x5BC JUMP JUMPDEST SWAP1 JUMP JUMPDEST CALLDATALOAD PUSH2 0x647 DUP2 PUSH2 0x15C JUMP JUMPDEST PUSH1 0x1 PUSH1 0x1 PUSH1 0xE0 SHL SUB NOT SWAP1 CALLDATALOAD DUP2 DUP2 AND SWAP4 SWAP3 PUSH1 0x4 DUP2 LT PUSH2 0x671 JUMPI POP POP POP JUMP JUMPDEST PUSH1 0x4 SUB PUSH1 0x3 SHL DUP3 SWAP1 SHL AND AND SWAP2 POP JUMP JUMPDEST SWAP1 DUP1 PUSH1 0x20 SWAP4 SWAP3 DUP2 DUP5 MSTORE DUP5 DUP5 ADD CALLDATACOPY PUSH1 0x0 DUP3 DUP3 ADD DUP5 ADD MSTORE PUSH1 0x1F ADD PUSH1 0x1F NOT AND ADD ADD SWAP1 JUMP JUMPDEST SWAP10 SWAP7 SWAP3 SWAP4 PUSH2 0x715 SWAP9 SWAP6 PUSH2 0x160 SWAP13 SWAP16 SWAP15 SWAP14 SWAP11 SWAP6 SWAP4 PUSH1 0x20 SWAP5 PUSH2 0x706 SWAP10 SWAP5 DUP15 MSTORE DUP14 PUSH1 0x1 PUSH1 0x1 PUSH1 0xA0 SHL SUB SWAP7 DUP8 DUP1 SWAP5 AND SWAP2 ADD MSTORE AND PUSH1 0x40 DUP14 ADD MSTORE PUSH6 0xFFFFFFFFFFFF DUP1 SWAP3 AND PUSH1 0x60 DUP14 ADD MSTORE AND PUSH1 0x80 DUP12 ADD MSTORE AND PUSH1 0xA0 DUP10 ADD MSTORE PUSH1 0xC0 DUP9 ADD MSTORE PUSH2 0x180 DUP1 PUSH1 0xE0 DUP10 ADD MSTORE DUP8 ADD SWAP2 PUSH2 0x680 JUMP JUMPDEST SWAP1 DUP5 DUP3 SUB PUSH2 0x100 DUP7 ADD MSTORE PUSH2 0x1C3 JUMP JUMPDEST SWAP6 PUSH2 0x120 DUP4 ADD MSTORE PUSH2 0x140 DUP3 ADD MSTORE ADD MSTORE JUMP JUMPDEST ISZERO PUSH2 0x72D JUMPI JUMP JUMPDEST PUSH1 0x64 PUSH1 0x40 MLOAD PUSH3 0x461BCD PUSH1 0xE5 SHL DUP2 MSTORE PUSH1 0x20 PUSH1 0x4 DUP3 ADD MSTORE PUSH1 0x9 PUSH1 0x24 DUP3 ADD MSTORE PUSH32 0x53565F5349474C454E0000000000000000000000000000000000000000000000 PUSH1 0x44 DUP3 ADD MSTORE REVERT JUMPDEST PUSH4 0x4E487B71 PUSH1 0xE0 SHL PUSH1 0x0 MSTORE PUSH1 0x32 PUSH1 0x4 MSTORE PUSH1 0x24 PUSH1 0x0 REVERT JUMPDEST DUP1 MLOAD PUSH1 0x40 LT ISZERO PUSH2 0x797 JUMPI PUSH1 0x60 ADD SWAP1 JUMP JUMPDEST PUSH2 0x771 JUMP JUMPDEST SWAP1 DUP2 MLOAD DUP2 LT ISZERO PUSH2 0x797 JUMPI ADD PUSH1 0x20 ADD SWAP1 JUMP JUMPDEST PUSH1 0x7 GT ISZERO PUSH2 0x7B7 JUMPI JUMP JUMPDEST PUSH4 0x4E487B71 PUSH1 0xE0 SHL PUSH1 0x0 MSTORE PUSH1 0x21 PUSH1 0x4 MSTORE PUSH1 0x24 PUSH1 0x0 REVERT JUMPDEST PUSH1 0x40 MLOAD SWAP1 PUSH2 0x7DA DUP3 PUSH2 0x498 JUMP JUMPDEST PUSH1 0x6 DUP3 MSTORE PUSH32 0x416D626972650000000000000000000000000000000000000000000000000000 PUSH1 0x20 DUP4 ADD MSTORE JUMP JUMPDEST PUSH1 0x40 MLOAD SWAP1 PUSH2 0x813 DUP3 PUSH2 0x498 JUMP JUMPDEST PUSH1 0x1 DUP3 MSTORE PUSH32 0x3100000000000000000000000000000000000000000000000000000000000000 PUSH1 0x20 DUP4 ADD MSTORE JUMP JUMPDEST PUSH1 0x40 MLOAD SWAP1 PUSH1 0x60 DUP3 ADD DUP3 DUP2 LT PUSH8 0xFFFFFFFFFFFFFFFF DUP3 GT OR PUSH2 0x4B4 JUMPI PUSH1 0x40 MSTORE PUSH1 0x2D DUP3 MSTORE PUSH32 0x6279746573333220686173682900000000000000000000000000000000000000 PUSH1 0x40 DUP4 PUSH32 0x416D626972654F7065726174696F6E2861646472657373206163636F756E742C PUSH1 0x20 DUP3 ADD MSTORE ADD MSTORE JUMP JUMPDEST ISZERO PUSH2 0x8B6 JUMPI JUMP JUMPDEST PUSH1 0x64 PUSH1 0x40 MLOAD PUSH3 0x461BCD PUSH1 0xE5 SHL DUP2 MSTORE PUSH1 0x20 PUSH1 0x4 DUP3 ADD MSTORE PUSH1 0xF PUSH1 0x24 DUP3 ADD MSTORE PUSH32 0x53565F53504F4F465F4F524947494E0000000000000000000000000000000000 PUSH1 0x44 DUP3 ADD MSTORE REVERT JUMPDEST ISZERO PUSH2 0x901 JUMPI JUMP JUMPDEST PUSH1 0x64 PUSH1 0x40 MLOAD PUSH3 0x461BCD PUSH1 0xE5 SHL DUP2 MSTORE PUSH1 0x20 PUSH1 0x4 DUP3 ADD MSTORE PUSH1 0xC PUSH1 0x24 DUP3 ADD MSTORE PUSH32 0x53565F53504F4F465F4C454E0000000000000000000000000000000000000000 PUSH1 0x44 DUP3 ADD MSTORE REVERT JUMPDEST PUSH1 0x40 MLOAD RETURNDATASIZE PUSH1 0x0 DUP3 RETURNDATACOPY RETURNDATASIZE SWAP1 REVERT JUMPDEST ISZERO PUSH2 0x16D JUMPI JUMP JUMPDEST SWAP1 DUP2 PUSH1 0x20 SWAP2 SUB SLT PUSH2 0x16D JUMPI MLOAD PUSH2 0x647 DUP2 PUSH2 0x15C JUMP JUMPDEST ISZERO PUSH2 0x974 JUMPI JUMP JUMPDEST PUSH1 0x64 PUSH1 0x40 MLOAD PUSH3 0x461BCD PUSH1 0xE5 SHL DUP2 MSTORE PUSH1 0x20 PUSH1 0x4 DUP3 ADD MSTORE PUSH1 0xD PUSH1 0x24 DUP3 ADD MSTORE PUSH32 0x53565F4C454E5F57414C4C455400000000000000000000000000000000000000 PUSH1 0x44 DUP3 ADD MSTORE REVERT JUMPDEST SWAP1 DUP2 PUSH1 0x20 SWAP2 SUB SLT PUSH2 0x16D JUMPI MLOAD PUSH1 0x1 PUSH1 0x1 PUSH1 0xE0 SHL SUB NOT DUP2 AND DUP2 SUB PUSH2 0x16D JUMPI SWAP1 JUMP JUMPDEST PUSH1 0x40 SWAP1 PUSH2 0x647 SWAP4 SWAP3 DUP2 MSTORE DUP2 PUSH1 0x20 DUP3 ADD MSTORE ADD SWAP1 PUSH2 0x1C3 JUMP JUMPDEST ISZERO PUSH2 0x9F6 JUMPI JUMP JUMPDEST PUSH1 0x64 PUSH1 0x40 MLOAD PUSH3 0x461BCD PUSH1 0xE5 SHL DUP2 MSTORE PUSH1 0x20 PUSH1 0x4 DUP3 ADD MSTORE PUSH1 0x11 PUSH1 0x24 DUP3 ADD MSTORE PUSH32 0x53565F57414C4C45545F494E56414C4944000000000000000000000000000000 PUSH1 0x44 DUP3 ADD MSTORE REVERT JUMPDEST PUSH4 0x4E487B71 PUSH1 0xE0 SHL PUSH1 0x0 MSTORE PUSH1 0x11 PUSH1 0x4 MSTORE PUSH1 0x24 PUSH1 0x0 REVERT JUMPDEST PUSH1 0x0 NOT DUP2 ADD SWAP2 SWAP1 DUP3 GT PUSH2 0xA5F JUMPI JUMP JUMPDEST PUSH2 0xA3A JUMP JUMPDEST SWAP1 PUSH17 0x14551231950B75FC4402DA1732FC9BEBE NOT SWAP2 DUP3 SUB SWAP2 DUP3 GT PUSH2 0xA5F JUMPI JUMP JUMPDEST PUSH1 0x20 SWAP1 DUP2 DUP2 DUP5 SUB SLT PUSH2 0x16D JUMPI DUP1 MLOAD PUSH8 0xFFFFFFFFFFFFFFFF SWAP2 DUP3 DUP3 GT PUSH2 0x16D JUMPI ADD SWAP1 DUP4 PUSH1 0x1F DUP4 ADD SLT ISZERO PUSH2 0x16D JUMPI DUP2 MLOAD SWAP4 DUP2 DUP6 GT PUSH2 0x4B4 JUMPI DUP5 PUSH1 0x5 SHL SWAP1 PUSH1 0x40 SWAP3 DUP4 MLOAD SWAP7 PUSH2 0xAD1 DUP8 DUP6 ADD DUP10 PUSH2 0x4B9 JUMP JUMPDEST DUP8 MSTORE DUP6 DUP1 DUP9 ADD SWAP4 DUP7 ADD ADD SWAP5 DUP3 DUP7 GT PUSH2 0x16D JUMPI DUP7 DUP2 ADD SWAP4 JUMPDEST DUP7 DUP6 LT PUSH2 0xAFA JUMPI POP POP POP POP POP POP POP POP SWAP1 JUMP JUMPDEST DUP5 MLOAD DUP4 DUP2 GT PUSH2 0x16D JUMPI DUP3 ADD SWAP1 DUP5 PUSH1 0x3F DUP4 ADD SLT ISZERO PUSH2 0x16D JUMPI DUP9 DUP3 ADD MLOAD SWAP1 PUSH2 0xB1F DUP3 PUSH2 0x4DB JUMP JUMPDEST PUSH2 0xB2B DUP10 MLOAD SWAP2 DUP3 PUSH2 0x4B9 JUMP JUMPDEST DUP3 DUP2 MSTORE DUP7 DUP10 DUP5 DUP7 ADD ADD GT PUSH2 0x16D JUMPI PUSH2 0xB4C DUP12 SWAP5 SWAP4 DUP6 SWAP5 DUP12 DUP7 DUP6 ADD SWAP2 ADD PUSH2 0x1A0 JUMP JUMPDEST DUP2 MSTORE ADD SWAP5 ADD SWAP4 PUSH2 0xAE8 JUMP JUMPDEST PUSH1 0x0 NOT DUP2 EQ PUSH2 0xA5F JUMPI PUSH1 0x1 ADD SWAP1 JUMP JUMPDEST DUP1 MLOAD DUP3 LT ISZERO PUSH2 0x797 JUMPI PUSH1 0x20 SWAP2 PUSH1 0x5 SHL ADD ADD SWAP1 JUMP JUMPDEST SWAP2 SWAP1 DUP3 PUSH1 0x80 SWAP2 SUB SLT PUSH2 0x16D JUMPI DUP2 MLOAD SWAP2 PUSH1 0x20 DUP2 ADD MLOAD SWAP2 PUSH1 0x60 PUSH1 0x40 DUP4 ADD MLOAD SWAP3 ADD MLOAD PUSH1 0xFF DUP2 AND DUP2 SUB PUSH2 0x16D JUMPI SWAP1 JUMP JUMPDEST ISZERO PUSH2 0xBAD JUMPI JUMP JUMPDEST PUSH1 0x64 PUSH1 0x40 MLOAD PUSH3 0x461BCD PUSH1 0xE5 SHL DUP2 MSTORE PUSH1 0x20 PUSH1 0x4 DUP3 ADD MSTORE PUSH1 0xB PUSH1 0x24 DUP3 ADD MSTORE PUSH32 0x53565F5A45524F5F534947000000000000000000000000000000000000000000 PUSH1 0x44 DUP3 ADD MSTORE REVERT JUMPDEST ISZERO PUSH2 0xBF8 JUMPI JUMP JUMPDEST PUSH1 0x64 PUSH1 0x40 MLOAD PUSH3 0x461BCD PUSH1 0xE5 SHL DUP2 MSTORE PUSH1 0x20 PUSH1 0x4 DUP3 ADD MSTORE PUSH1 0x11 PUSH1 0x24 DUP3 ADD MSTORE PUSH32 0x53565F5343484E4F52525F4641494C4544000000000000000000000000000000 PUSH1 0x44 DUP3 ADD MSTORE REVERT JUMPDEST ISZERO PUSH2 0xC43 JUMPI JUMP JUMPDEST PUSH1 0x64 PUSH1 0x40 MLOAD PUSH3 0x461BCD PUSH1 0xE5 SHL DUP2 MSTORE PUSH1 0x20 PUSH1 0x4 DUP3 ADD MSTORE PUSH1 0x6 PUSH1 0x24 DUP3 ADD MSTORE PUSH32 0x53565F4C454E0000000000000000000000000000000000000000000000000000 PUSH1 0x44 DUP3 ADD MSTORE REVERT JUMPDEST SWAP1 SWAP3 SWAP2 SWAP3 PUSH2 0xC97 DUP2 MLOAD ISZERO ISZERO PUSH2 0x726 JUMP JUMPDEST PUSH2 0xCD8 PUSH2 0xCD2 PUSH2 0xCAC PUSH1 0x0 NOT DUP5 MLOAD ADD DUP5 PUSH2 0x79C JUMP JUMPDEST MLOAD PUSH32 0xFF00000000000000000000000000000000000000000000000000000000000000 AND SWAP1 JUMP JUMPDEST PUSH1 0xF8 SHR SWAP1 JUMP JUMPDEST PUSH1 0x6 PUSH1 0xFF DUP3 AND LT ISZERO PUSH2 0x1392 JUMPI JUMPDEST PUSH1 0xFF AND SWAP4 PUSH2 0xCF2 DUP6 PUSH2 0x7AD JUMP JUMPDEST PUSH1 0x0 SWAP1 PUSH2 0xCFE DUP7 PUSH2 0x7AD JUMP JUMPDEST DUP6 ISZERO SWAP6 DUP7 ISZERO DUP8 DUP2 PUSH2 0x137D JUMPI JUMPDEST DUP9 ISZERO PUSH2 0x1257 JUMPI JUMPDEST PUSH2 0xD1A DUP4 PUSH2 0x7AD JUMP JUMPDEST SWAP1 PUSH2 0x1244 JUMPI JUMPDEST ISZERO PUSH2 0xDCB JUMPI POP POP POP DUP1 PUSH1 0x20 SWAP3 PUSH2 0xD45 PUSH1 0x0 SWAP4 MLOAD PUSH1 0x41 DUP2 EQ SWAP1 DUP2 ISZERO PUSH2 0xDC0 JUMPI JUMPDEST POP PUSH2 0xC3C JUMP JUMPDEST PUSH2 0xD91 PUSH2 0xD51 DUP4 PUSH2 0x1448 JUMP JUMPDEST SWAP3 PUSH2 0xD6A PUSH2 0xCD2 PUSH2 0xCAC PUSH2 0xD64 DUP5 PUSH2 0x149C JUMP JUMPDEST SWAP4 PUSH2 0x787 JUMP JUMPDEST SWAP4 PUSH1 0x40 MLOAD SWAP5 DUP6 SWAP5 DUP6 SWAP1 SWAP5 SWAP4 SWAP3 PUSH1 0xFF PUSH1 0x60 SWAP4 PUSH1 0x80 DUP5 ADD SWAP8 DUP5 MSTORE AND PUSH1 0x20 DUP4 ADD MSTORE PUSH1 0x40 DUP3 ADD MSTORE ADD MSTORE JUMP JUMPDEST DUP4 DUP1 MSTORE SUB SWAP1 PUSH1 0x1 GAS STATICCALL ISZERO PUSH2 0xDBB JUMPI PUSH1 0x0 MLOAD JUMPDEST PUSH2 0xDB7 PUSH1 0x1 PUSH1 0x1 PUSH1 0xA0 SHL SUB DUP3 AND ISZERO ISZERO PUSH2 0xBA6 JUMP JUMPDEST SWAP2 SWAP1 JUMP JUMPDEST PUSH2 0x945 JUMP JUMPDEST PUSH1 0x42 SWAP2 POP EQ CODESIZE PUSH2 0xD3F JUMP JUMPDEST PUSH2 0xDD4 DUP2 PUSH2 0x7AD JUMP JUMPDEST PUSH1 0x4 DUP2 SUB PUSH2 0xF92 JUMPI POP POP POP PUSH2 0xE33 PUSH2 0xE73 SWAP3 PUSH1 0x20 PUSH2 0xE0F DUP5 PUSH2 0xE01 PUSH2 0xDFB PUSH1 0x0 SWAP8 MLOAD PUSH2 0xA50 JUMP JUMPDEST DUP3 PUSH2 0x143C JUMP JUMPDEST DUP3 DUP1 DUP3 MLOAD DUP4 ADD ADD SWAP2 ADD PUSH2 0xB7A JUMP JUMPDEST SWAP8 DUP4 SWAP7 DUP10 SWAP4 SWAP9 SWAP5 SWAP3 PUSH17 0x14551231950B75FC4402DA1732FC9BEBE NOT SWAP4 DUP5 SWAP2 MULMOD PUSH2 0xA64 JUMP JUMPDEST SWAP2 PUSH2 0xE4C PUSH2 0xE43 DUP3 DUP11 DUP13 MULMOD PUSH2 0xA64 JUMP JUMPDEST SWAP2 DUP5 EQ ISZERO PUSH2 0x951 JUMP JUMPDEST DUP8 PUSH1 0x40 MLOAD SWAP5 DUP6 SWAP5 DUP6 SWAP1 SWAP5 SWAP4 SWAP3 PUSH1 0xFF PUSH1 0x60 SWAP4 PUSH1 0x80 DUP5 ADD SWAP8 DUP5 MSTORE AND PUSH1 0x20 DUP4 ADD MSTORE PUSH1 0x40 DUP3 ADD MSTORE ADD MSTORE JUMP JUMPDEST DUP4 DUP1 MSTORE SUB SWAP1 PUSH1 0x1 GAS STATICCALL ISZERO PUSH2 0xDBB JUMPI PUSH2 0xF26 PUSH2 0xF81 SWAP4 DUP4 SWAP3 PUSH2 0xF8D SWAP7 PUSH2 0xF09 PUSH1 0x0 MLOAD SWAP3 PUSH2 0xEA9 PUSH1 0x1 PUSH1 0x1 PUSH1 0xA0 SHL SUB DUP6 AND ISZERO ISZERO PUSH2 0xBA6 JUMP JUMPDEST PUSH1 0x40 MLOAD SWAP7 DUP8 SWAP4 PUSH1 0x20 DUP6 ADD SWAP6 DUP7 SWAP3 SWAP1 PUSH1 0x55 SWAP5 SWAP3 PUSH32 0xFF00000000000000000000000000000000000000000000000000000000000000 SWAP2 PUSH12 0xFFFFFFFFFFFFFFFFFFFFFFFF NOT SWAP1 PUSH1 0x60 SHL AND DUP6 MSTORE PUSH1 0xF8 SHL AND PUSH1 0x14 DUP5 ADD MSTORE PUSH1 0x15 DUP4 ADD MSTORE PUSH1 0x35 DUP3 ADD MSTORE ADD SWAP1 JUMP JUMPDEST SUB SWAP4 PUSH2 0xF1D PUSH1 0x1F NOT SWAP6 DUP7 DUP2 ADD DUP4 MSTORE DUP3 PUSH2 0x4B9 JUMP JUMPDEST MLOAD SWAP1 KECCAK256 EQ PUSH2 0xBF1 JUMP JUMPDEST PUSH2 0xF72 PUSH1 0x40 MLOAD SWAP2 DUP3 PUSH2 0xF66 PUSH1 0x20 DUP3 ADD SWAP6 DUP7 PUSH1 0x27 SWAP2 PUSH32 0x5343484E4F525200000000000000000000000000000000000000000000000000 DUP3 MSTORE PUSH1 0x7 DUP3 ADD MSTORE ADD SWAP1 JUMP JUMPDEST SUB SWAP1 DUP2 ADD DUP4 MSTORE DUP3 PUSH2 0x4B9 JUMP JUMPDEST MLOAD SWAP1 KECCAK256 PUSH1 0x1 PUSH1 0x1 PUSH1 0xA0 SHL SUB AND SWAP1 JUMP JUMPDEST PUSH1 0x1 PUSH1 0x1 PUSH1 0xA0 SHL SUB AND SWAP1 JUMP JUMPDEST PUSH2 0xDA3 JUMP JUMPDEST PUSH2 0xFA1 DUP2 SWAP8 SWAP4 SWAP8 SWAP6 SWAP5 SWAP6 PUSH2 0x7AD JUMP JUMPDEST PUSH1 0x5 DUP2 SUB PUSH2 0x105E JUMPI POP POP POP PUSH2 0xFBF PUSH2 0xFB9 DUP4 MLOAD PUSH2 0xA50 JUMP JUMPDEST DUP4 PUSH2 0x143C JUMP JUMPDEST PUSH2 0xFD3 PUSH1 0x20 SWAP3 DUP4 DUP1 DUP3 MLOAD DUP4 ADD ADD SWAP2 ADD PUSH2 0xA84 JUMP JUMPDEST PUSH1 0x0 DUP1 SWAP6 JUMPDEST DUP3 MLOAD DUP8 EQ PUSH2 0x1053 JUMPI PUSH2 0xFF6 PUSH1 0x0 PUSH2 0xFEF DUP10 DUP7 PUSH2 0xB66 JUMP JUMPDEST MLOAD DUP7 PUSH2 0xC87 JUMP JUMPDEST PUSH2 0x104A JUMPI JUMPDEST PUSH2 0xF81 PUSH2 0x1044 SWAP3 PUSH2 0x305 PUSH2 0xF72 PUSH2 0x103E SWAP5 PUSH1 0x40 MLOAD SWAP3 DUP4 SWAP2 DUP13 DUP4 ADD SWAP6 DUP7 SWAP1 PUSH1 0x28 SWAP3 PUSH12 0xFFFFFFFFFFFFFFFFFFFFFFFF NOT DUP1 SWAP3 PUSH1 0x60 SHL AND DUP4 MSTORE PUSH1 0x60 SHL AND PUSH1 0x14 DUP3 ADD MSTORE ADD SWAP1 JUMP JUMPDEST SWAP7 PUSH2 0xB57 JUMP JUMPDEST SWAP6 PUSH2 0xFD8 JUMP JUMPDEST PUSH1 0x1 SWAP3 POP PUSH2 0xFFB JUMP JUMPDEST SWAP4 POP SWAP5 POP POP POP PUSH2 0xDA3 JUMP JUMPDEST PUSH2 0x106B DUP2 SWAP8 SWAP5 SWAP4 SWAP8 PUSH2 0x7AD JUMP JUMPDEST PUSH1 0x2 DUP2 SUB PUSH2 0x1142 JUMPI POP POP PUSH2 0x10EA SWAP2 POP PUSH2 0x1087 PUSH1 0x21 DUP5 MLOAD GT PUSH2 0x96D JUMP JUMPDEST PUSH1 0x20 PUSH1 0x1 PUSH1 0x1 PUSH1 0xA0 SHL SUB DUP2 NOT DUP6 MLOAD ADD PUSH2 0x10B3 PUSH2 0x10AC PUSH2 0xF81 PUSH2 0xF81 PUSH2 0xF81 DUP6 DUP12 PUSH2 0x14AC JUMP JUMPDEST SWAP2 DUP8 PUSH2 0x143C JUMP JUMPDEST AND SWAP4 PUSH1 0x40 MLOAD DUP1 SWAP5 DUP2 SWAP3 PUSH32 0x1626BA7E00000000000000000000000000000000000000000000000000000000 SWAP6 DUP7 DUP5 MSTORE PUSH1 0x4 DUP5 ADD PUSH2 0x9D8 JUMP JUMPDEST SUB DUP2 DUP7 GAS STATICCALL SWAP2 DUP3 ISZERO PUSH2 0xDBB JUMPI PUSH2 0xF8D SWAP3 PUSH1 0x1 PUSH1 0x1 PUSH1 0xE0 SHL SUB NOT SWAP2 PUSH1 0x0 SWAP2 PUSH2 0x1114 JUMPI JUMPDEST POP AND EQ PUSH2 0x9EF JUMP JUMPDEST PUSH2 0x1135 SWAP2 POP PUSH1 0x20 RETURNDATASIZE DUP2 GT PUSH2 0x113B JUMPI JUMPDEST PUSH2 0x112D DUP2 DUP4 PUSH2 0x4B9 JUMP JUMPDEST DUP2 ADD SWAP1 PUSH2 0x9B8 JUMP JUMPDEST CODESIZE PUSH2 0x110C JUMP JUMPDEST POP RETURNDATASIZE PUSH2 0x1123 JUMP JUMPDEST PUSH1 0x3 SWAP2 SWAP3 POP PUSH2 0x1150 DUP2 PUSH2 0x7AD JUMP JUMPDEST EQ SWAP1 DUP2 PUSH2 0x123C JUMPI JUMPDEST POP ISZERO PUSH2 0x11F7 JUMPI PUSH1 0x1 ORIGIN EQ DUP1 ISZERO PUSH2 0x11EC JUMPI JUMPDEST PUSH2 0x1172 SWAP1 PUSH2 0x8AF JUMP JUMPDEST PUSH2 0x117F PUSH1 0x21 DUP4 MLOAD EQ PUSH2 0x8FA JUMP JUMPDEST PUSH2 0x1188 DUP3 PUSH2 0x13E8 JUMP JUMPDEST PUSH1 0x20 DUP2 PUSH1 0x40 MLOAD DUP1 PUSH2 0x11B0 DUP2 SWAP1 PUSH1 0x0 PUSH1 0x60 PUSH1 0x80 DUP5 ADD SWAP4 DUP3 DUP2 MSTORE DUP3 PUSH1 0x20 DUP3 ADD MSTORE DUP3 PUSH1 0x40 DUP3 ADD MSTORE ADD MSTORE JUMP JUMPDEST DUP4 DUP1 MSTORE SUB SWAP1 PUSH1 0x1 GAS STATICCALL ISZERO PUSH2 0xDBB JUMPI PUSH2 0xF8D SWAP2 PUSH2 0x11DD PUSH2 0x1B39 PUSH1 0x1 PUSH1 0x1 PUSH1 0xA0 SHL SUB PUSH2 0xF81 SWAP5 MLOAD AND EQ ISZERO PUSH2 0x951 JUMP JUMPDEST PUSH1 0x20 DUP1 DUP3 MLOAD DUP4 ADD ADD SWAP2 ADD PUSH2 0x958 JUMP JUMPDEST POP ORIGIN PUSH2 0x1B39 EQ PUSH2 0x1169 JUMP JUMPDEST PUSH1 0x40 MLOAD PUSH3 0x461BCD PUSH1 0xE5 SHL DUP2 MSTORE PUSH1 0x20 PUSH1 0x4 DUP3 ADD MSTORE PUSH1 0x7 PUSH1 0x24 DUP3 ADD MSTORE PUSH32 0x53565F5459504500000000000000000000000000000000000000000000000000 PUSH1 0x44 DUP3 ADD MSTORE PUSH1 0x64 SWAP1 REVERT JUMPDEST SWAP1 POP CODESIZE PUSH2 0x1158 JUMP JUMPDEST POP PUSH2 0x124E DUP2 PUSH2 0x7AD JUMP JUMPDEST PUSH1 0x1 DUP2 EQ PUSH2 0xD20 JUMP JUMPDEST SWAP6 PUSH2 0x1260 PUSH2 0x7CD JUMP JUMPDEST PUSH2 0x1374 PUSH2 0x12D3 DUP3 MLOAD PUSH1 0x20 DUP1 SWAP5 ADD KECCAK256 PUSH2 0x1276 PUSH2 0x806 JUMP JUMPDEST DUP1 MLOAD SWAP1 DUP6 ADD KECCAK256 PUSH1 0x40 DUP1 MLOAD PUSH32 0xD87CD6EF79D4E2B95E15CE8ABF732DB51EC771F1CA2EDCCF22A46C729AC56472 DUP2 DUP9 ADD SWAP1 DUP2 MSTORE PUSH1 0x20 DUP2 ADD SWAP5 SWAP1 SWAP5 MSTORE SWAP1 DUP4 ADD SWAP2 SWAP1 SWAP2 MSTORE CHAINID PUSH1 0x60 DUP4 ADD MSTORE ADDRESS PUSH1 0x80 DUP4 ADD MSTORE PUSH1 0x0 PUSH1 0xA0 DUP4 ADD MSTORE SWAP2 DUP3 SWAP1 PUSH1 0xC0 DUP4 ADD SWAP1 JUMP JUMPDEST SUB SWAP2 PUSH2 0x12E7 PUSH1 0x1F NOT SWAP4 DUP5 DUP2 ADD DUP4 MSTORE DUP3 PUSH2 0x4B9 JUMP JUMPDEST MLOAD SWAP1 KECCAK256 SWAP4 PUSH2 0x1321 PUSH2 0x132D PUSH2 0x12F9 PUSH2 0x83F JUMP JUMPDEST DUP1 MLOAD SWAP1 DUP8 ADD KECCAK256 PUSH1 0x40 DUP1 MLOAD DUP1 DUP10 ADD SWAP3 DUP4 MSTORE ADDRESS PUSH1 0x20 DUP5 ADD MSTORE SWAP1 DUP3 ADD SWAP5 SWAP1 SWAP5 MSTORE SWAP3 SWAP2 DUP3 SWAP1 PUSH1 0x60 DUP6 ADD SWAP1 JUMP JUMPDEST SUB DUP5 DUP2 ADD DUP4 MSTORE DUP3 PUSH2 0x4B9 JUMP JUMPDEST MLOAD SWAP1 KECCAK256 SWAP3 PUSH2 0xF66 PUSH1 0x40 MLOAD SWAP5 DUP6 SWAP3 DUP4 ADD SWAP7 DUP8 SWAP1 SWAP2 PUSH1 0x42 SWAP3 PUSH32 0x1901000000000000000000000000000000000000000000000000000000000000 DUP4 MSTORE PUSH1 0x2 DUP4 ADD MSTORE PUSH1 0x22 DUP3 ADD MSTORE ADD SWAP1 JUMP JUMPDEST MLOAD SWAP1 KECCAK256 SWAP6 PUSH2 0xD11 JUMP JUMPDEST SWAP8 POP PUSH2 0x1388 DUP3 PUSH2 0x7AD JUMP JUMPDEST PUSH1 0x5 DUP3 EQ SWAP8 PUSH2 0xD0A JUMP JUMPDEST POP DUP1 MLOAD PUSH1 0x41 SUB PUSH2 0x13A3 JUMPI PUSH1 0x0 PUSH2 0xCE5 JUMP JUMPDEST PUSH1 0x40 MLOAD PUSH3 0x461BCD PUSH1 0xE5 SHL DUP2 MSTORE PUSH1 0x20 PUSH1 0x4 DUP3 ADD MSTORE PUSH1 0xA PUSH1 0x24 DUP3 ADD MSTORE PUSH32 0x53565F5349474D4F444500000000000000000000000000000000000000000000 PUSH1 0x44 DUP3 ADD MSTORE PUSH1 0x64 SWAP1 REVERT JUMPDEST PUSH1 0x20 DUP2 MLOAD GT ISZERO PUSH2 0x13F8 JUMPI PUSH1 0x20 SWAP1 MSTORE JUMP JUMPDEST PUSH1 0x64 PUSH1 0x40 MLOAD PUSH3 0x461BCD PUSH1 0xE5 SHL DUP2 MSTORE PUSH1 0x20 PUSH1 0x4 DUP3 ADD MSTORE PUSH1 0x18 PUSH1 0x24 DUP3 ADD MSTORE PUSH32 0x42797465734C69623A206F6E6C7920736872696E6B696E670000000000000000 PUSH1 0x44 DUP3 ADD MSTORE REVERT JUMPDEST DUP2 DUP2 MLOAD GT ISZERO PUSH2 0x13F8 JUMPI MSTORE JUMP JUMPDEST PUSH1 0x20 DUP2 MLOAD LT PUSH2 0x1458 JUMPI PUSH1 0x20 ADD MLOAD SWAP1 JUMP JUMPDEST PUSH1 0x64 PUSH1 0x40 MLOAD PUSH3 0x461BCD PUSH1 0xE5 SHL DUP2 MSTORE PUSH1 0x20 PUSH1 0x4 DUP3 ADD MSTORE PUSH1 0x10 PUSH1 0x24 DUP3 ADD MSTORE PUSH32 0x42797465734C69623A206C656E67746800000000000000000000000000000000 PUSH1 0x44 DUP3 ADD MSTORE REVERT JUMPDEST PUSH1 0x40 DUP2 MLOAD LT PUSH2 0x1458 JUMPI PUSH1 0x40 ADD MLOAD SWAP1 JUMP JUMPDEST SWAP1 PUSH1 0x20 DUP2 ADD DUP1 DUP3 GT PUSH2 0xA5F JUMPI DUP3 MLOAD LT PUSH2 0x1458 JUMPI ADD PUSH1 0x20 ADD MLOAD SWAP1 JUMP INVALID LOG2 PUSH5 0x6970667358 0x22 SLT KECCAK256 EQ 0xE3 0xFB SWAP1 BYTE 0xD5 CALL RETURNDATACOPY 0xD3 PUSH14 0xE031FF0EB369EF33FEA7A5D21343 0xFC JUMPI 0xCF EXTCODECOPY SWAP4 DUP13 0x24 0xBF PUSH5 0x736F6C6343 STOP ADDMOD SGT STOP CALLER ",
                    "linkReferences": {}
                },
                "methodIdentifiers": {
                    "call(address,uint256,bytes,uint256)": "4e4a0c82",
                    "postOp(uint8,bytes,uint256)": "a9a23409",
                    "relayer()": "8406c079",
                    "validatePaymasterUserOp((address,uint256,bytes,bytes,bytes32,uint256,bytes32,bytes,bytes),bytes32,uint256)": "52b7512c"
                }
            }
        }
    }
}