{
    "src/libs/erc4337/UserOpHelper.sol": {
        "UserOpHelper": {
            "abi": [
                {
                    "type": "function",
                    "name": "PAYMASTER_ADDR_OFFSET",
                    "inputs": [],
                    "outputs": [
                        {
                            "name": "",
                            "type": "uint256",
                            "internalType": "uint256"
                        }
                    ],
                    "stateMutability": "view"
                },
                {
                    "type": "function",
                    "name": "PAYMASTER_DATA_OFFSET",
                    "inputs": [],
                    "outputs": [
                        {
                            "name": "",
                            "type": "uint256",
                            "internalType": "uint256"
                        }
                    ],
                    "stateMutability": "view"
                }
            ],
            "userdoc": {},
            "devdoc": {},
            "evm": {
                "bytecode": {
                    "object": "6080806040523461001957609b908161001f823930815050f35b600080fdfe6080806040526004361015601257600080fd5b600090813560e01c90816351407f0914604c575063ede3150214603457600080fd5b80600319360112604957602060405160348152f35b80fd5b90508160031936011260615780601460209252f35b5080fdfea2646970667358221220aaa004c3beeb474e48474b1fb5f1c092ce0be6188d465840eba45a0d415c54d964736f6c63430008130033",
                    "opcodes": "PUSH1 0x80 DUP1 PUSH1 0x40 MSTORE CALLVALUE PUSH2 0x19 JUMPI PUSH1 0x9B SWAP1 DUP2 PUSH2 0x1F DUP3 CODECOPY ADDRESS DUP2 POP POP RETURN JUMPDEST PUSH1 0x0 DUP1 REVERT INVALID PUSH1 0x80 DUP1 PUSH1 0x40 MSTORE PUSH1 0x4 CALLDATASIZE LT ISZERO PUSH1 0x12 JUMPI PUSH1 0x0 DUP1 REVERT JUMPDEST PUSH1 0x0 SWAP1 DUP2 CALLDATALOAD PUSH1 0xE0 SHR SWAP1 DUP2 PUSH4 0x51407F09 EQ PUSH1 0x4C JUMPI POP PUSH4 0xEDE31502 EQ PUSH1 0x34 JUMPI PUSH1 0x0 DUP1 REVERT JUMPDEST DUP1 PUSH1 0x3 NOT CALLDATASIZE ADD SLT PUSH1 0x49 JUMPI PUSH1 0x20 PUSH1 0x40 MLOAD PUSH1 0x34 DUP2 MSTORE RETURN JUMPDEST DUP1 REVERT JUMPDEST SWAP1 POP DUP2 PUSH1 0x3 NOT CALLDATASIZE ADD SLT PUSH1 0x61 JUMPI DUP1 PUSH1 0x14 PUSH1 0x20 SWAP3 MSTORE RETURN JUMPDEST POP DUP1 REVERT INVALID LOG2 PUSH5 0x6970667358 0x22 SLT KECCAK256 0xAA LOG0 DIV 0xC3 0xBE 0xEB SELFBALANCE 0x4E BASEFEE SELFBALANCE 0x4B 0x1F 0xB5 CALL 0xC0 SWAP3 0xCE SIGNEXTEND 0xE6 XOR DUP14 CHAINID PC BLOCKHASH 0xEB LOG4 GAS 0xD COINBASE 0x5C SLOAD 0xD9 PUSH5 0x736F6C6343 STOP ADDMOD SGT STOP CALLER ",
                    "linkReferences": {}
                },
                "methodIdentifiers": {
                    "PAYMASTER_ADDR_OFFSET()": "51407f09",
                    "PAYMASTER_DATA_OFFSET()": "ede31502"
                }
            }
        }
    }
}