{
    "src/AmbireAccount.sol": {
        "AmbireAccount": {
            "abi": [
                {
                    "type": "fallback",
                    "stateMutability": "payable"
                },
                {
                    "type": "receive",
                    "stateMutability": "payable"
                },
                {
                    "type": "function",
                    "name": "execute",
                    "inputs": [
                        {
                            "name": "calls",
                            "type": "tuple[]",
                            "internalType": "struct Transaction[]",
                            "components": [
                                {
                                    "name": "to",
                                    "type": "address",
                                    "internalType": "address"
                                },
                                {
                                    "name": "value",
                                    "type": "uint256",
                                    "internalType": "uint256"
                                },
                                {
                                    "name": "data",
                                    "type": "bytes",
                                    "internalType": "bytes"
                                }
                            ]
                        },
                        {
                            "name": "signature",
                            "type": "bytes",
                            "internalType": "bytes"
                        }
                    ],
                    "outputs": [],
                    "stateMutability": "payable"
                },
                {
                    "type": "function",
                    "name": "executeBySelf",
                    "inputs": [
                        {
                            "name": "calls",
                            "type": "tuple[]",
                            "internalType": "struct Transaction[]",
                            "components": [
                                {
                                    "name": "to",
                                    "type": "address",
                                    "internalType": "address"
                                },
                                {
                                    "name": "value",
                                    "type": "uint256",
                                    "internalType": "uint256"
                                },
                                {
                                    "name": "data",
                                    "type": "bytes",
                                    "internalType": "bytes"
                                }
                            ]
                        }
                    ],
                    "outputs": [],
                    "stateMutability": "payable"
                },
                {
                    "type": "function",
                    "name": "executeBySelfSingle",
                    "inputs": [
                        {
                            "name": "call",
                            "type": "tuple",
                            "internalType": "struct Transaction",
                            "components": [
                                {
                                    "name": "to",
                                    "type": "address",
                                    "internalType": "address"
                                },
                                {
                                    "name": "value",
                                    "type": "uint256",
                                    "internalType": "uint256"
                                },
                                {
                                    "name": "data",
                                    "type": "bytes",
                                    "internalType": "bytes"
                                }
                            ]
                        }
                    ],
                    "outputs": [],
                    "stateMutability": "payable"
                },
                {
                    "type": "function",
                    "name": "executeBySender",
                    "inputs": [
                        {
                            "name": "calls",
                            "type": "tuple[]",
                            "internalType": "struct Transaction[]",
                            "components": [
                                {
                                    "name": "to",
                                    "type": "address",
                                    "internalType": "address"
                                },
                                {
                                    "name": "value",
                                    "type": "uint256",
                                    "internalType": "uint256"
                                },
                                {
                                    "name": "data",
                                    "type": "bytes",
                                    "internalType": "bytes"
                                }
                            ]
                        }
                    ],
                    "outputs": [],
                    "stateMutability": "payable"
                },
                {
                    "type": "function",
                    "name": "executeMultiple",
                    "inputs": [
                        {
                            "name": "toExec",
                            "type": "tuple[]",
                            "internalType": "struct IAmbireAccount.ExecuteArgs[]",
                            "components": [
                                {
                                    "name": "calls",
                                    "type": "tuple[]",
                                    "internalType": "struct Transaction[]",
                                    "components": [
                                        {
                                            "name": "to",
                                            "type": "address",
                                            "internalType": "address"
                                        },
                                        {
                                            "name": "value",
                                            "type": "uint256",
                                            "internalType": "uint256"
                                        },
                                        {
                                            "name": "data",
                                            "type": "bytes",
                                            "internalType": "bytes"
                                        }
                                    ]
                                },
                                {
                                    "name": "signature",
                                    "type": "bytes",
                                    "internalType": "bytes"
                                }
                            ]
                        }
                    ],
                    "outputs": [],
                    "stateMutability": "payable"
                },
                {
                    "type": "function",
                    "name": "isValidSignature",
                    "inputs": [
                        {
                            "name": "hash",
                            "type": "bytes32",
                            "internalType": "bytes32"
                        },
                        {
                            "name": "signature",
                            "type": "bytes",
                            "internalType": "bytes"
                        }
                    ],
                    "outputs": [
                        {
                            "name": "",
                            "type": "bytes4",
                            "internalType": "bytes4"
                        }
                    ],
                    "stateMutability": "view"
                },
                {
                    "type": "function",
                    "name": "nonce",
                    "inputs": [],
                    "outputs": [
                        {
                            "name": "",
                            "type": "uint256",
                            "internalType": "uint256"
                        }
                    ],
                    "stateMutability": "view"
                },
                {
                    "type": "function",
                    "name": "onERC1155BatchReceived",
                    "inputs": [
                        {
                            "name": "",
                            "type": "address",
                            "internalType": "address"
                        },
                        {
                            "name": "",
                            "type": "address",
                            "internalType": "address"
                        },
                        {
                            "name": "",
                            "type": "uint256[]",
                            "internalType": "uint256[]"
                        },
                        {
                            "name": "",
                            "type": "uint256[]",
                            "internalType": "uint256[]"
                        },
                        {
                            "name": "",
                            "type": "bytes",
                            "internalType": "bytes"
                        }
                    ],
                    "outputs": [
                        {
                            "name": "",
                            "type": "bytes4",
                            "internalType": "bytes4"
                        }
                    ],
                    "stateMutability": "pure"
                },
                {
                    "type": "function",
                    "name": "onERC1155Received",
                    "inputs": [
                        {
                            "name": "",
                            "type": "address",
                            "internalType": "address"
                        },
                        {
                            "name": "",
                            "type": "address",
                            "internalType": "address"
                        },
                        {
                            "name": "",
                            "type": "uint256",
                            "internalType": "uint256"
                        },
                        {
                            "name": "",
                            "type": "uint256",
                            "internalType": "uint256"
                        },
                        {
                            "name": "",
                            "type": "bytes",
                            "internalType": "bytes"
                        }
                    ],
                    "outputs": [
                        {
                            "name": "",
                            "type": "bytes4",
                            "internalType": "bytes4"
                        }
                    ],
                    "stateMutability": "pure"
                },
                {
                    "type": "function",
                    "name": "onERC721Received",
                    "inputs": [
                        {
                            "name": "",
                            "type": "address",
                            "internalType": "address"
                        },
                        {
                            "name": "",
                            "type": "address",
                            "internalType": "address"
                        },
                        {
                            "name": "",
                            "type": "uint256",
                            "internalType": "uint256"
                        },
                        {
                            "name": "",
                            "type": "bytes",
                            "internalType": "bytes"
                        }
                    ],
                    "outputs": [
                        {
                            "name": "",
                            "type": "bytes4",
                            "internalType": "bytes4"
                        }
                    ],
                    "stateMutability": "pure"
                },
                {
                    "type": "function",
                    "name": "privileges",
                    "inputs": [
                        {
                            "name": "",
                            "type": "address",
                            "internalType": "address"
                        }
                    ],
                    "outputs": [
                        {
                            "name": "",
                            "type": "bytes32",
                            "internalType": "bytes32"
                        }
                    ],
                    "stateMutability": "view"
                },
                {
                    "type": "function",
                    "name": "setAddrPrivilege",
                    "inputs": [
                        {
                            "name": "addr",
                            "type": "address",
                            "internalType": "address"
                        },
                        {
                            "name": "priv",
                            "type": "bytes32",
                            "internalType": "bytes32"
                        }
                    ],
                    "outputs": [],
                    "stateMutability": "payable"
                },
                {
                    "type": "function",
                    "name": "supportsInterface",
                    "inputs": [
                        {
                            "name": "interfaceID",
                            "type": "bytes4",
                            "internalType": "bytes4"
                        }
                    ],
                    "outputs": [
                        {
                            "name": "",
                            "type": "bool",
                            "internalType": "bool"
                        }
                    ],
                    "stateMutability": "view"
                },
                {
                    "type": "function",
                    "name": "tryCatch",
                    "inputs": [
                        {
                            "name": "to",
                            "type": "address",
                            "internalType": "address"
                        },
                        {
                            "name": "value",
                            "type": "uint256",
                            "internalType": "uint256"
                        },
                        {
                            "name": "data",
                            "type": "bytes",
                            "internalType": "bytes"
                        }
                    ],
                    "outputs": [],
                    "stateMutability": "payable"
                },
                {
                    "type": "function",
                    "name": "tryCatchLimit",
                    "inputs": [
                        {
                            "name": "to",
                            "type": "address",
                            "internalType": "address"
                        },
                        {
                            "name": "value",
                            "type": "uint256",
                            "internalType": "uint256"
                        },
                        {
                            "name": "data",
                            "type": "bytes",
                            "internalType": "bytes"
                        },
                        {
                            "name": "gasLimit",
                            "type": "uint256",
                            "internalType": "uint256"
                        }
                    ],
                    "outputs": [],
                    "stateMutability": "payable"
                },
                {
                    "type": "function",
                    "name": "validateUserOp",
                    "inputs": [
                        {
                            "name": "op",
                            "type": "tuple",
                            "internalType": "struct PackedUserOperation",
                            "components": [
                                {
                                    "name": "sender",
                                    "type": "address",
                                    "internalType": "address"
                                },
                                {
                                    "name": "nonce",
                                    "type": "uint256",
                                    "internalType": "uint256"
                                },
                                {
                                    "name": "initCode",
                                    "type": "bytes",
                                    "internalType": "bytes"
                                },
                                {
                                    "name": "callData",
                                    "type": "bytes",
                                    "internalType": "bytes"
                                },
                                {
                                    "name": "accountGasLimits",
                                    "type": "bytes32",
                                    "internalType": "bytes32"
                                },
                                {
                                    "name": "preVerificationGas",
                                    "type": "uint256",
                                    "internalType": "uint256"
                                },
                                {
                                    "name": "gasFees",
                                    "type": "bytes32",
                                    "internalType": "bytes32"
                                },
                                {
                                    "name": "paymasterAndData",
                                    "type": "bytes",
                                    "internalType": "bytes"
                                },
                                {
                                    "name": "signature",
                                    "type": "bytes",
                                    "internalType": "bytes"
                                }
                            ]
                        },
                        {
                            "name": "userOpHash",
                            "type": "bytes32",
                            "internalType": "bytes32"
                        },
                        {
                            "name": "missingAccountFunds",
                            "type": "uint256",
                            "internalType": "uint256"
                        }
                    ],
                    "outputs": [
                        {
                            "name": "",
                            "type": "uint256",
                            "internalType": "uint256"
                        }
                    ],
                    "stateMutability": "payable"
                },
                {
                    "type": "event",
                    "name": "LogErr",
                    "inputs": [
                        {
                            "name": "to",
                            "type": "address",
                            "indexed": true,
                            "internalType": "address"
                        },
                        {
                            "name": "value",
                            "type": "uint256",
                            "indexed": false,
                            "internalType": "uint256"
                        },
                        {
                            "name": "data",
                            "type": "bytes",
                            "indexed": false,
                            "internalType": "bytes"
                        },
                        {
                            "name": "returnData",
                            "type": "bytes",
                            "indexed": false,
                            "internalType": "bytes"
                        }
                    ],
                    "anonymous": false
                },
                {
                    "type": "event",
                    "name": "LogPrivilegeChanged",
                    "inputs": [
                        {
                            "name": "addr",
                            "type": "address",
                            "indexed": true,
                            "internalType": "address"
                        },
                        {
                            "name": "priv",
                            "type": "bytes32",
                            "indexed": false,
                            "internalType": "bytes32"
                        }
                    ],
                    "anonymous": false
                }
            ],
            "userdoc": {},
            "devdoc": {},
            "evm": {
                "bytecode": {
                    "object": "6080806040523461001657612550908161001c8239f35b600080fdfe6080604052600436101561001e575b361561001c5761001c6107bb565b005b60003560e01c806301ffc9a71461011e5780630d5828d414610119578063150b7a02146101145780631626ba7e1461010f57806319822f7c1461010a5780633628d042146101055780636171d1c9146101005780636769de82146100fb578063a2ea6766146100f6578063abc5345e146100f1578063affed0e0146100ec578063bc197c81146100e7578063bf1cb383146100e2578063c066a5b1146100dd578063e6a6332e146100d85763f23a6e610361000e57610748565b6106dc565b61069e565b610631565b610588565b61056a565b610527565b6104a7565b610481565b610401565b61030c565b6102c1565b610270565b610216565b61017c565b61013a565b6001600160e01b031981160361013557565b600080fd5b3461013557602036600319011261013557602061016160043561015c81610123565b61105b565b6040519015158152f35b6001600160a01b0381160361013557565b6040366003190112610135576004356101948161016b565b7f08ac40e0195c5998554e98853c23964a13a24309e127b2d016e8ec4adecf5e8360206001600160a01b03602435936101ce3033146107fe565b1692836000526000825280604060002055604051908152a2005b9181601f840112156101355782359167ffffffffffffffff8311610135576020838186019501011161013557565b346101355760803660031901126101355761023260043561016b565b61023d60243561016b565b60643567ffffffffffffffff81116101355761025d9036906004016101e8565b50506020604051630a85bd0160e11b8152f35b346101355760403660031901126101355760243567ffffffffffffffff8111610135576102af6102a660209236906004016101e8565b90600435610fcb565b6001600160e01b031960405191168152f35b600319606036820112610135576004359067ffffffffffffffff82116101355761012090823603011261013557610304602091604435906024359060040161137d565b604051908152f35b6080366003190112610135576004356103248161016b565b6024359060443567ffffffffffffffff8111610135576103489036906004016101e8565b90916103553033146107fe565b5a92600080604051858482378086810183815203908886606435f161038761037b6108da565b955a9060061c10610920565b1561038e57005b7f80c2637928bd94d0e1a90eaac1efc1553be6391d962fe5c82a01e90122c84ccc936001600160a01b03936103cb926040519586951697856109d4565b0390a2005b9181601f840112156101355782359167ffffffffffffffff8311610135576020808501948460051b01011161013557565b60403660031901126101355767ffffffffffffffff6004358181116101355761042e9036906004016103d0565b906024359283116101355761044a61001c9336906004016101e8565b929091610d4b565b6020600319820112610135576004359067ffffffffffffffff82116101355761047d916004016103d0565b9091565b61001c6104a261049036610452565b61049b3033146107fe565b3691610bf4565b610f51565b6104b036610452565b60005b8181036104bc57005b6104c7818385610ee8565b803590601e198136030182121561013557019081359167ffffffffffffffff8311610135576020809101928060051b36038413610135576105229361044a61051d9361051486898b610ee8565b90810190610f0a565b610ed9565b6104b3565b6104a261055161053636610452565b92906000933385528460205261049b60408620541515610b91565b3381528060205261056760408220541515610d00565b80f35b34610135576000366003190112610135576020600154604051908152f35b346101355760a0366003190112610135576105a460043561016b565b6105af60243561016b565b67ffffffffffffffff604435818111610135576105d09036906004016103d0565b5050606435818111610135576105ea9036906004016103d0565b5050608435908111610135576106049036906004016101e8565b50506040517fbc197c81000000000000000000000000000000000000000000000000000000008152602090f35b6060366003190112610135576004356106498161016b565b6024359060443567ffffffffffffffff81116101355761066d9036906004016101e8565b909161067a3033146107fe565b5a9260008060405185848237808681018381520390888689f161038761037b6108da565b34610135576020366003190112610135576001600160a01b036004356106c38161016b565b1660005260006020526020604060002054604051908152f35b6003196020368201126101355760043567ffffffffffffffff8111610135576060816004019282360301126101355761001c9161071a3033146107fe565b602461073f61073883359361072e8561016b565b6044860190610f0a565b3691610b5a565b92013590610faa565b346101355760a03660031901126101355761076460043561016b565b61076f60243561016b565b60843567ffffffffffffffff81116101355761078f9036906004016101e8565b505060206040517ff23a6e61000000000000000000000000000000000000000000000000000000008152f35b6000906169698252816020526001600160a01b036040832054169081156107f95750818091368280378136915af4903d918282803e156107f757f35bfd5b915050565b1561080557565b606460405162461bcd60e51b815260206004820152601560248201527f4f4e4c595f4143434f554e545f43414e5f43414c4c00000000000000000000006044820152fd5b634e487b7160e01b600052604160045260246000fd5b6060810190811067ffffffffffffffff82111761087b57604052565b610849565b6040810190811067ffffffffffffffff82111761087b57604052565b90601f8019910116810190811067ffffffffffffffff82111761087b57604052565b67ffffffffffffffff811161087b57601f01601f191660200190565b3d15610905573d906108eb826108be565b916108f9604051938461089c565b82523d6000602084013e565b606090565b634e487b7160e01b600052601160045260246000fd5b1561092757565b606460405162461bcd60e51b815260206004820152600c60248201527f54525943415443485f4f4f4700000000000000000000000000000000000000006044820152fd5b908060209392818452848401376000828201840152601f01601f1916010190565b60005b83811061099f5750506000910152565b818101518382015260200161098f565b906020916109c88151809281855285808601910161098c565b601f01601f1916010190565b9291610a0094926109f292855260606020860152606085019161096b565b9160408184039101526109af565b90565b600019810191908211610a1257565b61090a565b9070014551231950b75fc4402da1732fc9bebe19918203918211610a1257565b634e487b7160e01b600052603260045260246000fd5b90821015610a59570190565b610a37565b9060018201809211610a1257565b9491909460808101936001600160a01b0380971682526020928383015260409081830152836060956080878501525260a082019060a08560051b84010197876000945b878610610ac3575050505050505050505090565b90919293949596979899609f198282030186528a35605e1984360301811215610135578301848135610af48161016b565b168252888101358983015285810135601e19823603018112156101355701888101903567ffffffffffffffff811161013557803603821361013557610b468a9283928e86818c6001990152019161096b565b9c0196019601949897969593929190610aaf565b929192610b66826108be565b91610b74604051938461089c565b829481845281830111610135578281602093846000960137010152565b15610b9857565b606460405162461bcd60e51b815260206004820152601660248201527f494e53554646494349454e545f50524956494c454745000000000000000000006044820152fd5b67ffffffffffffffff811161087b5760051b60200190565b929190610c0081610bdc565b91604091610c108351948561089c565b839581855260208095019160051b8101938385116101355781925b858410610c3b5750505050505050565b67ffffffffffffffff9084358281116101355784019160608388031261013557835192610c678461085f565b8035610c728161016b565b8452898101358a8501528481013591821161013557019086601f83011215610135578892610ca68884868096359101610b5a565b85820152815201930192610c2b565b15610cbc57565b606460405162461bcd60e51b815260206004820152601d60248201527f5349474e41545552455f56414c49444154494f4e5f54494d454c4f434b0000006044820152fd5b15610d0757565b606460405162461bcd60e51b815260206004820152601860248201527f50524956494c4547455f4e4f545f444f574e47524144454400000000000000006044820152fd5b91929092610d94610d8e610d68610d6185610a03565b8585610a4d565b357fff000000000000000000000000000000000000000000000000000000000000001690565b60f81c90565b60ff8060015492610dac610da785610a5e565b600155565b1603610e5c575090610dc891610dc3368686610bf4565b611719565b9093919315610e0b575091610de86104a2610e0193610e09953691610bf4565b6001600160a01b03166000526000602052604060002090565b541515610d00565b565b610e1790421015610cb5565b60405162461bcd60e51b815260206004820152601960248201527f5349474e41545552455f56414c49444154494f4e5f4641494c000000000000006044820152606490fd5b610e0193610eab610e099694610ea5610de8956104a295604051610e9a81610e8c8c8a6020840196463089610a6c565b03601f19810183528261089c565b519020923691610b5a565b906118c4565b93610ed4610ecc866001600160a01b03166000526000602052604060002090565b541515610b91565b61049b565b6000198114610a125760010190565b9190811015610a595760051b81013590603e1981360301821215610135570190565b903590601e1981360301821215610135570180359067ffffffffffffffff82116101355760200191813603831361013557565b8051821015610a595760209160051b010190565b80519060005b828110610f6357505050565b80610f71610f8a9284610f3d565b516001600160a01b0381511680610f8f575b5050610ed9565b610f57565b8160406020610fa394015191015191610faa565b3880610f83565b916000928392602083519301915af115610fc057565b3d604051816000823efd5b6001600160a01b0392610fed91610fe760009485933691610b5a565b90611d6e565b9216815280602052604081205491600014611026575060ff60015b16101561101a57630b135d3f60e11b90565b6001600160e01b031990565b60ff90611008565b5190811515820361013557565b9081602091031261013557610a009061102e565b6040513d6000823e3d90fd5b7f01ffc9a7000000000000000000000000000000000000000000000000000000006001600160e01b031982168181149081156111c5575b811561119b575b8115611171575b5061116a5761696960009081526020526001600160a01b036110f96110ed807f662a30f03e82d96c1f4d254ac3d297ac2d115f4d7e55a040fee317b77fa274e7546001600160a01b031690565b6001600160a01b031690565b16918215611162576040519182526001600160e01b031916600482015290602090829060249082905afa90811561115d57600091611135575090565b610a00915060203d8111611156575b61114e818361089c565b81019061103b565b503d611144565b61104f565b505050600090565b5050600190565b7f0a41763200000000000000000000000000000000000000000000000000000000915014386110a0565b7f4e2312e00000000000000000000000000000000000000000000000000000000081149150611099565b630a85bd0160e11b81149150611092565b906004116101355790600490565b906014116101355790601490565b6001600160e01b0319903581811693926004811061120f57505050565b60040360031b82901b16169150565b6bffffffffffffffffffffffff19903581811693926014811061124057505050565b60140360031b82901b16169150565b1561125657565b608460405162461bcd60e51b815260206004820152603460248201527f76616c6964617465557365724f703a207061796d61737465722072657175697260448201527f656420696e20657865637574652829206d6f64650000000000000000000000006064820152fd5b9497959290936112e1610a009a98956112ef9460c0895260c089019161096b565b91868303602088015261096b565b9560408401526060830152608082015260a081850391015261096b565b1561131357565b608460405162461bcd60e51b815260206004820152602360248201527f76616c6964617465557365724f703a206e6f742066726f6d20656e747279506f60448201527f696e7400000000000000000000000000000000000000000000000000000000006064820152fd5b9160608301600461138e8286610f0a565b90501015806114ef575b611411575090610ea56107386113e894610de8946113d66171716113cf336001600160a01b03166000526000602052604060002090565b541461130c565b806113f8575b50610100810190610f0a565b54156113f357600090565b600190565b600080808093335af15061140a6108da565b50386113dc565b915050611422610100830183610f0a565b905061116a576114a960209160e0840190603461143f8387610f0a565b90501015806114b6575b6114529061124f565b6114a061147d610e8c61147461146b60408a018a610f0a565b9190958a610f0a565b9390968a610f0a565b918a6040519788968c88019a60c084013594608060a0860135950135938d6112c0565b51902060401b90565b910135036113f357600090565b506114526114e56114d06114ca8589610f0a565b906111e4565b6bffffffffffffffffffffffff19929161121e565b1615159050611449565b507fa2ea6766000000000000000000000000000000000000000000000000000000006001600160e01b031961153661153061152a8589610f0a565b906111d6565b906111f2565b1614611398565b81601f82011215610135578051611553816108be565b92611561604051948561089c565b8184526020828401011161013557610a00916020808501910161098c565b906080828203126101355781516115958161016b565b9260208301516115a48161016b565b9260408101519267ffffffffffffffff9384811161013557816115c891840161153d565b93606083015190811161013557610a00920161153d565b6040906001600160a01b03610a00949316815281602082015201906109af565b1561160657565b606460405162461bcd60e51b815260206004820152601b60248201527f45585445524e414c5f56414c49444154494f4e5f4e4f545f53455400000000006044820152fd5b91908260409103126101355760206116618361102e565b92015190565b9061168c61167d606092838552838501906109af565b602094848203868601526109af565b926040928381860391015284519182855281850182808560051b8801019701946000925b8584106116c257505050505050505090565b90919293949596989785806117056001938d601f1990820301885285878d516001600160a01b0381511684528581015186850152015191818982015201906109af565b9a9b990197969591909101930191906116b0565b6040906117496117396117346117d095600098973691610b5a565b611833565b506020808251830101910161157f565b916001600160a01b0398919880911693169761179b61177b8a6001600160a01b03166000526000602052604060002090565b548751602081019061179281610e8c878b866115df565b519020146115ff565b8551968795869485937ffcfbba4d00000000000000000000000000000000000000000000000000000000855260048501611667565b03925af1801561115d5760009182916117e857509091565b905061047d915060403d811161180b575b611803818361089c565b81019061164a565b503d6117f9565b805160401015610a595760600190565b908151811015610a59570160200190565b90600019916118458382510182611822565b5160f81c928151908101908111610a125761186090826118b8565b9190565b6020815111156118745760209052565b606460405162461bcd60e51b815260206004820152601860248201527f42797465734c69623a206f6e6c7920736872696e6b696e6700000000000000006044820152fd5b81815111156118745752565b6118d091600191611d6e565b6118d75790565b606460405162461bcd60e51b815260206004820152600f60248201527f53565f555345445f554e424f554e4400000000000000000000000000000000006044820152fd5b1561192257565b606460405162461bcd60e51b815260206004820152600960248201527f53565f5349474c454e00000000000000000000000000000000000000000000006044820152fd5b6007111561197057565b634e487b7160e01b600052602160045260246000fd5b6040519061199382610880565b600682527f416d6269726500000000000000000000000000000000000000000000000000006020830152565b604051906119cc82610880565b600182527f31000000000000000000000000000000000000000000000000000000000000006020830152565b60405190611a058261085f565b602d82527f62797465733332206861736829000000000000000000000000000000000000006040837f416d626972654f7065726174696f6e2861646472657373206163636f756e742c60208201520152565b15611a5e57565b606460405162461bcd60e51b815260206004820152600f60248201527f53565f53504f4f465f4f524947494e00000000000000000000000000000000006044820152fd5b15611aa957565b606460405162461bcd60e51b815260206004820152600c60248201527f53565f53504f4f465f4c454e00000000000000000000000000000000000000006044820152fd5b1561013557565b908160209103126101355751610a008161016b565b15611b1057565b606460405162461bcd60e51b815260206004820152600d60248201527f53565f4c454e5f57414c4c4554000000000000000000000000000000000000006044820152fd5b908160209103126101355751610a0081610123565b604090610a009392815281602082015201906109af565b15611b8757565b606460405162461bcd60e51b815260206004820152601160248201527f53565f57414c4c45545f494e56414c49440000000000000000000000000000006044820152fd5b90602090818382031261013557825167ffffffffffffffff93848211610135570181601f82011215610135578051611c0281610bdc565b94611c10604051968761089c565b818652848087019260051b8401019380851161013557858401925b858410611c3c575050505050505090565b8351838111610135578791611c56848480948a010161153d565b815201930192611c2b565b9190826080910312610135578151916020810151916060604083015192015160ff811681036101355790565b15611c9457565b606460405162461bcd60e51b815260206004820152600b60248201527f53565f5a45524f5f5349470000000000000000000000000000000000000000006044820152fd5b15611cdf57565b606460405162461bcd60e51b815260206004820152601160248201527f53565f5343484e4f52525f4641494c45440000000000000000000000000000006044820152fd5b15611d2a57565b606460405162461bcd60e51b815260206004820152600660248201527f53565f4c454e00000000000000000000000000000000000000000000000000006044820152fd5b90929192611d7e8151151561191b565b611db9610d8e611d9360001984510184611822565b517fff000000000000000000000000000000000000000000000000000000000000001690565b600660ff82161015612445575b60ff1693611dd385611966565b600090611ddf86611966565b85159586158781612430575b881561230a575b611dfb83611966565b906122f7575b15611ea35750505080602092611e266000935160418114908115611e98575b50611d23565b611e72611e328361249b565b92611e4b610d8e611d93611e45846124ef565b93611812565b93604051948594859094939260ff6060936080840197845216602083015260408201520152565b838052039060015afa1561115d576000515b6118606001600160a01b0382161515611c8d565b604291501438611e20565b611eac81611966565b6004810361205e57505050611f0b611f4b926020611ee784611ed9611ed360009751610a03565b826118b8565b828082518301019101611c61565b978396899398949270014551231950b75fc4402da1732fc9bebe1993849109610a17565b91611f24611f1b828a8c09610a17565b91841415611aed565b87604051948594859094939260ff6060936080840197845216602083015260408201520152565b838052039060015afa1561115d57611ffe6110ed93839261205996611fe160005192611f816001600160a01b0385161515611c8d565b6040519687936020850195869290605594927fff00000000000000000000000000000000000000000000000000000000000000916bffffffffffffffffffffffff199060601b16855260f81b166014840152601583015260358201520190565b0393611ff5601f199586810183528261089c565b51902014611cd8565b61204a604051918261203e6020820195866027917f5343484e4f525200000000000000000000000000000000000000000000000000825260078201520190565b0390810183528261089c565b5190206001600160a01b031690565b611e84565b61206d81979397959495611966565b6005810361212a5750505061208b6120858351610a03565b836118b8565b61209f602092838082518301019101611bcb565b600080955b8251871461211f576120c260006120bb8986610f3d565b5186611d6e565b612116575b6110ed61211092610e8c61204a61210a946040519283918c83019586906028926bffffffffffffffffffffffff19809260601b16835260601b1660148201520190565b96610ed9565b956120a4565b600192506120c7565b935094505050611e84565b6121378197949397611966565b600281036121f557505061219d91506121536021845111611b09565b60206001600160a01b03811985510161217f6121786110ed6110ed6110ed858b6124ff565b91876118b8565b169360405180948192630b135d3f60e11b9586845260048401611b69565b0381865afa91821561115d57612059926001600160e01b0319916000916121c7575b501614611b80565b6121e8915060203d81116121ee575b6121e0818361089c565b810190611b54565b386121bf565b503d6121d6565b600391925061220381611966565b1490816122ef575b50156122aa5760013214801561229f575b61222590611a57565b6122326021835114611aa2565b61223b82611864565b6020816040518061226381906000606060808401938281528260208201528260408201520152565b838052039060015afa1561115d5761205991612290611b396001600160a01b036110ed9451161415611aed565b60208082518301019101611af4565b5032611b391461221c565b60405162461bcd60e51b815260206004820152600760248201527f53565f54595045000000000000000000000000000000000000000000000000006044820152606490fd5b90503861220b565b5061230181611966565b60018114611e01565b95612313611986565b61242761238682516020809401206123296119bf565b805190850120604080517fd87cd6ef79d4e2b95e15ce8abf732db51ec771f1ca2edccf22a46c729ac56472818801908152602081019490945290830191909152466060830152306080830152600060a083015291829060c0830190565b039161239a601f199384810183528261089c565b519020936123d46123e06123ac6119f8565b8051908701206040805180890192835230602084015290820194909452929182906060850190565b0384810183528261089c565b5190209261203e6040519485928301968790916042927f19010000000000000000000000000000000000000000000000000000000000008352600283015260228201520190565b51902095611df2565b975061243b82611966565b6005821497611deb565b508051604103612456576000611dc6565b60405162461bcd60e51b815260206004820152600a60248201527f53565f5349474d4f4445000000000000000000000000000000000000000000006044820152606490fd5b60208151106124ab576020015190565b606460405162461bcd60e51b815260206004820152601060248201527f42797465734c69623a206c656e677468000000000000000000000000000000006044820152fd5b60408151106124ab576040015190565b9060208101808211610a12578251106124ab5701602001519056fea2646970667358221220a8465bc3156b7c18a1559d2cc13b7ec13f67e50d2c6eff2767a7be12ae36c2d464736f6c63430008130033",
                    "opcodes": "PUSH1 0x80 DUP1 PUSH1 0x40 MSTORE CALLVALUE PUSH2 0x16 JUMPI PUSH2 0x2550 SWAP1 DUP2 PUSH2 0x1C DUP3 CODECOPY RETURN JUMPDEST PUSH1 0x0 DUP1 REVERT INVALID PUSH1 0x80 PUSH1 0x40 MSTORE PUSH1 0x4 CALLDATASIZE LT ISZERO PUSH2 0x1E JUMPI JUMPDEST CALLDATASIZE ISZERO PUSH2 0x1C JUMPI PUSH2 0x1C PUSH2 0x7BB JUMP JUMPDEST STOP JUMPDEST PUSH1 0x0 CALLDATALOAD PUSH1 0xE0 SHR DUP1 PUSH4 0x1FFC9A7 EQ PUSH2 0x11E JUMPI DUP1 PUSH4 0xD5828D4 EQ PUSH2 0x119 JUMPI DUP1 PUSH4 0x150B7A02 EQ PUSH2 0x114 JUMPI DUP1 PUSH4 0x1626BA7E EQ PUSH2 0x10F JUMPI DUP1 PUSH4 0x19822F7C EQ PUSH2 0x10A JUMPI DUP1 PUSH4 0x3628D042 EQ PUSH2 0x105 JUMPI DUP1 PUSH4 0x6171D1C9 EQ PUSH2 0x100 JUMPI DUP1 PUSH4 0x6769DE82 EQ PUSH2 0xFB JUMPI DUP1 PUSH4 0xA2EA6766 EQ PUSH2 0xF6 JUMPI DUP1 PUSH4 0xABC5345E EQ PUSH2 0xF1 JUMPI DUP1 PUSH4 0xAFFED0E0 EQ PUSH2 0xEC JUMPI DUP1 PUSH4 0xBC197C81 EQ PUSH2 0xE7 JUMPI DUP1 PUSH4 0xBF1CB383 EQ PUSH2 0xE2 JUMPI DUP1 PUSH4 0xC066A5B1 EQ PUSH2 0xDD JUMPI DUP1 PUSH4 0xE6A6332E EQ PUSH2 0xD8 JUMPI PUSH4 0xF23A6E61 SUB PUSH2 0xE JUMPI PUSH2 0x748 JUMP JUMPDEST PUSH2 0x6DC JUMP JUMPDEST PUSH2 0x69E JUMP JUMPDEST PUSH2 0x631 JUMP JUMPDEST PUSH2 0x588 JUMP JUMPDEST PUSH2 0x56A JUMP JUMPDEST PUSH2 0x527 JUMP JUMPDEST PUSH2 0x4A7 JUMP JUMPDEST PUSH2 0x481 JUMP JUMPDEST PUSH2 0x401 JUMP JUMPDEST PUSH2 0x30C JUMP JUMPDEST PUSH2 0x2C1 JUMP JUMPDEST PUSH2 0x270 JUMP JUMPDEST PUSH2 0x216 JUMP JUMPDEST PUSH2 0x17C JUMP JUMPDEST PUSH2 0x13A JUMP JUMPDEST PUSH1 0x1 PUSH1 0x1 PUSH1 0xE0 SHL SUB NOT DUP2 AND SUB PUSH2 0x135 JUMPI JUMP JUMPDEST PUSH1 0x0 DUP1 REVERT JUMPDEST CALLVALUE PUSH2 0x135 JUMPI PUSH1 0x20 CALLDATASIZE PUSH1 0x3 NOT ADD SLT PUSH2 0x135 JUMPI PUSH1 0x20 PUSH2 0x161 PUSH1 0x4 CALLDATALOAD PUSH2 0x15C DUP2 PUSH2 0x123 JUMP JUMPDEST PUSH2 0x105B JUMP JUMPDEST PUSH1 0x40 MLOAD SWAP1 ISZERO ISZERO DUP2 MSTORE RETURN JUMPDEST PUSH1 0x1 PUSH1 0x1 PUSH1 0xA0 SHL SUB DUP2 AND SUB PUSH2 0x135 JUMPI JUMP JUMPDEST PUSH1 0x40 CALLDATASIZE PUSH1 0x3 NOT ADD SLT PUSH2 0x135 JUMPI PUSH1 0x4 CALLDATALOAD PUSH2 0x194 DUP2 PUSH2 0x16B JUMP JUMPDEST PUSH32 0x8AC40E0195C5998554E98853C23964A13A24309E127B2D016E8EC4ADECF5E83 PUSH1 0x20 PUSH1 0x1 PUSH1 0x1 PUSH1 0xA0 SHL SUB PUSH1 0x24 CALLDATALOAD SWAP4 PUSH2 0x1CE ADDRESS CALLER EQ PUSH2 0x7FE JUMP JUMPDEST AND SWAP3 DUP4 PUSH1 0x0 MSTORE PUSH1 0x0 DUP3 MSTORE DUP1 PUSH1 0x40 PUSH1 0x0 KECCAK256 SSTORE PUSH1 0x40 MLOAD SWAP1 DUP2 MSTORE LOG2 STOP JUMPDEST SWAP2 DUP2 PUSH1 0x1F DUP5 ADD SLT ISZERO PUSH2 0x135 JUMPI DUP3 CALLDATALOAD SWAP2 PUSH8 0xFFFFFFFFFFFFFFFF DUP4 GT PUSH2 0x135 JUMPI PUSH1 0x20 DUP4 DUP2 DUP7 ADD SWAP6 ADD ADD GT PUSH2 0x135 JUMPI JUMP JUMPDEST CALLVALUE PUSH2 0x135 JUMPI PUSH1 0x80 CALLDATASIZE PUSH1 0x3 NOT ADD SLT PUSH2 0x135 JUMPI PUSH2 0x232 PUSH1 0x4 CALLDATALOAD PUSH2 0x16B JUMP JUMPDEST PUSH2 0x23D PUSH1 0x24 CALLDATALOAD PUSH2 0x16B JUMP JUMPDEST PUSH1 0x64 CALLDATALOAD PUSH8 0xFFFFFFFFFFFFFFFF DUP2 GT PUSH2 0x135 JUMPI PUSH2 0x25D SWAP1 CALLDATASIZE SWAP1 PUSH1 0x4 ADD PUSH2 0x1E8 JUMP JUMPDEST POP POP PUSH1 0x20 PUSH1 0x40 MLOAD PUSH4 0xA85BD01 PUSH1 0xE1 SHL DUP2 MSTORE RETURN JUMPDEST CALLVALUE PUSH2 0x135 JUMPI PUSH1 0x40 CALLDATASIZE PUSH1 0x3 NOT ADD SLT PUSH2 0x135 JUMPI PUSH1 0x24 CALLDATALOAD PUSH8 0xFFFFFFFFFFFFFFFF DUP2 GT PUSH2 0x135 JUMPI PUSH2 0x2AF PUSH2 0x2A6 PUSH1 0x20 SWAP3 CALLDATASIZE SWAP1 PUSH1 0x4 ADD PUSH2 0x1E8 JUMP JUMPDEST SWAP1 PUSH1 0x4 CALLDATALOAD PUSH2 0xFCB JUMP JUMPDEST PUSH1 0x1 PUSH1 0x1 PUSH1 0xE0 SHL SUB NOT PUSH1 0x40 MLOAD SWAP2 AND DUP2 MSTORE RETURN JUMPDEST PUSH1 0x3 NOT PUSH1 0x60 CALLDATASIZE DUP3 ADD SLT PUSH2 0x135 JUMPI PUSH1 0x4 CALLDATALOAD SWAP1 PUSH8 0xFFFFFFFFFFFFFFFF DUP3 GT PUSH2 0x135 JUMPI PUSH2 0x120 SWAP1 DUP3 CALLDATASIZE SUB ADD SLT PUSH2 0x135 JUMPI PUSH2 0x304 PUSH1 0x20 SWAP2 PUSH1 0x44 CALLDATALOAD SWAP1 PUSH1 0x24 CALLDATALOAD SWAP1 PUSH1 0x4 ADD PUSH2 0x137D JUMP JUMPDEST PUSH1 0x40 MLOAD SWAP1 DUP2 MSTORE RETURN JUMPDEST PUSH1 0x80 CALLDATASIZE PUSH1 0x3 NOT ADD SLT PUSH2 0x135 JUMPI PUSH1 0x4 CALLDATALOAD PUSH2 0x324 DUP2 PUSH2 0x16B JUMP JUMPDEST PUSH1 0x24 CALLDATALOAD SWAP1 PUSH1 0x44 CALLDATALOAD PUSH8 0xFFFFFFFFFFFFFFFF DUP2 GT PUSH2 0x135 JUMPI PUSH2 0x348 SWAP1 CALLDATASIZE SWAP1 PUSH1 0x4 ADD PUSH2 0x1E8 JUMP JUMPDEST SWAP1 SWAP2 PUSH2 0x355 ADDRESS CALLER EQ PUSH2 0x7FE JUMP JUMPDEST GAS SWAP3 PUSH1 0x0 DUP1 PUSH1 0x40 MLOAD DUP6 DUP5 DUP3 CALLDATACOPY DUP1 DUP7 DUP2 ADD DUP4 DUP2 MSTORE SUB SWAP1 DUP9 DUP7 PUSH1 0x64 CALLDATALOAD CALL PUSH2 0x387 PUSH2 0x37B PUSH2 0x8DA JUMP JUMPDEST SWAP6 GAS SWAP1 PUSH1 0x6 SHR LT PUSH2 0x920 JUMP JUMPDEST ISZERO PUSH2 0x38E JUMPI STOP JUMPDEST PUSH32 0x80C2637928BD94D0E1A90EAAC1EFC1553BE6391D962FE5C82A01E90122C84CCC SWAP4 PUSH1 0x1 PUSH1 0x1 PUSH1 0xA0 SHL SUB SWAP4 PUSH2 0x3CB SWAP3 PUSH1 0x40 MLOAD SWAP6 DUP7 SWAP6 AND SWAP8 DUP6 PUSH2 0x9D4 JUMP JUMPDEST SUB SWAP1 LOG2 STOP JUMPDEST SWAP2 DUP2 PUSH1 0x1F DUP5 ADD SLT ISZERO PUSH2 0x135 JUMPI DUP3 CALLDATALOAD SWAP2 PUSH8 0xFFFFFFFFFFFFFFFF DUP4 GT PUSH2 0x135 JUMPI PUSH1 0x20 DUP1 DUP6 ADD SWAP5 DUP5 PUSH1 0x5 SHL ADD ADD GT PUSH2 0x135 JUMPI JUMP JUMPDEST PUSH1 0x40 CALLDATASIZE PUSH1 0x3 NOT ADD SLT PUSH2 0x135 JUMPI PUSH8 0xFFFFFFFFFFFFFFFF PUSH1 0x4 CALLDATALOAD DUP2 DUP2 GT PUSH2 0x135 JUMPI PUSH2 0x42E SWAP1 CALLDATASIZE SWAP1 PUSH1 0x4 ADD PUSH2 0x3D0 JUMP JUMPDEST SWAP1 PUSH1 0x24 CALLDATALOAD SWAP3 DUP4 GT PUSH2 0x135 JUMPI PUSH2 0x44A PUSH2 0x1C SWAP4 CALLDATASIZE SWAP1 PUSH1 0x4 ADD PUSH2 0x1E8 JUMP JUMPDEST SWAP3 SWAP1 SWAP2 PUSH2 0xD4B JUMP JUMPDEST PUSH1 0x20 PUSH1 0x3 NOT DUP3 ADD SLT PUSH2 0x135 JUMPI PUSH1 0x4 CALLDATALOAD SWAP1 PUSH8 0xFFFFFFFFFFFFFFFF DUP3 GT PUSH2 0x135 JUMPI PUSH2 0x47D SWAP2 PUSH1 0x4 ADD PUSH2 0x3D0 JUMP JUMPDEST SWAP1 SWAP2 JUMP JUMPDEST PUSH2 0x1C PUSH2 0x4A2 PUSH2 0x490 CALLDATASIZE PUSH2 0x452 JUMP JUMPDEST PUSH2 0x49B ADDRESS CALLER EQ PUSH2 0x7FE JUMP JUMPDEST CALLDATASIZE SWAP2 PUSH2 0xBF4 JUMP JUMPDEST PUSH2 0xF51 JUMP JUMPDEST PUSH2 0x4B0 CALLDATASIZE PUSH2 0x452 JUMP JUMPDEST PUSH1 0x0 JUMPDEST DUP2 DUP2 SUB PUSH2 0x4BC JUMPI STOP JUMPDEST PUSH2 0x4C7 DUP2 DUP4 DUP6 PUSH2 0xEE8 JUMP JUMPDEST DUP1 CALLDATALOAD SWAP1 PUSH1 0x1E NOT DUP2 CALLDATASIZE SUB ADD DUP3 SLT ISZERO PUSH2 0x135 JUMPI ADD SWAP1 DUP2 CALLDATALOAD SWAP2 PUSH8 0xFFFFFFFFFFFFFFFF DUP4 GT PUSH2 0x135 JUMPI PUSH1 0x20 DUP1 SWAP2 ADD SWAP3 DUP1 PUSH1 0x5 SHL CALLDATASIZE SUB DUP5 SGT PUSH2 0x135 JUMPI PUSH2 0x522 SWAP4 PUSH2 0x44A PUSH2 0x51D SWAP4 PUSH2 0x514 DUP7 DUP10 DUP12 PUSH2 0xEE8 JUMP JUMPDEST SWAP1 DUP2 ADD SWAP1 PUSH2 0xF0A JUMP JUMPDEST PUSH2 0xED9 JUMP JUMPDEST PUSH2 0x4B3 JUMP JUMPDEST PUSH2 0x4A2 PUSH2 0x551 PUSH2 0x536 CALLDATASIZE PUSH2 0x452 JUMP JUMPDEST SWAP3 SWAP1 PUSH1 0x0 SWAP4 CALLER DUP6 MSTORE DUP5 PUSH1 0x20 MSTORE PUSH2 0x49B PUSH1 0x40 DUP7 KECCAK256 SLOAD ISZERO ISZERO PUSH2 0xB91 JUMP JUMPDEST CALLER DUP2 MSTORE DUP1 PUSH1 0x20 MSTORE PUSH2 0x567 PUSH1 0x40 DUP3 KECCAK256 SLOAD ISZERO ISZERO PUSH2 0xD00 JUMP JUMPDEST DUP1 RETURN JUMPDEST CALLVALUE PUSH2 0x135 JUMPI PUSH1 0x0 CALLDATASIZE PUSH1 0x3 NOT ADD SLT PUSH2 0x135 JUMPI PUSH1 0x20 PUSH1 0x1 SLOAD PUSH1 0x40 MLOAD SWAP1 DUP2 MSTORE RETURN JUMPDEST CALLVALUE PUSH2 0x135 JUMPI PUSH1 0xA0 CALLDATASIZE PUSH1 0x3 NOT ADD SLT PUSH2 0x135 JUMPI PUSH2 0x5A4 PUSH1 0x4 CALLDATALOAD PUSH2 0x16B JUMP JUMPDEST PUSH2 0x5AF PUSH1 0x24 CALLDATALOAD PUSH2 0x16B JUMP JUMPDEST PUSH8 0xFFFFFFFFFFFFFFFF PUSH1 0x44 CALLDATALOAD DUP2 DUP2 GT PUSH2 0x135 JUMPI PUSH2 0x5D0 SWAP1 CALLDATASIZE SWAP1 PUSH1 0x4 ADD PUSH2 0x3D0 JUMP JUMPDEST POP POP PUSH1 0x64 CALLDATALOAD DUP2 DUP2 GT PUSH2 0x135 JUMPI PUSH2 0x5EA SWAP1 CALLDATASIZE SWAP1 PUSH1 0x4 ADD PUSH2 0x3D0 JUMP JUMPDEST POP POP PUSH1 0x84 CALLDATALOAD SWAP1 DUP2 GT PUSH2 0x135 JUMPI PUSH2 0x604 SWAP1 CALLDATASIZE SWAP1 PUSH1 0x4 ADD PUSH2 0x1E8 JUMP JUMPDEST POP POP PUSH1 0x40 MLOAD PUSH32 0xBC197C8100000000000000000000000000000000000000000000000000000000 DUP2 MSTORE PUSH1 0x20 SWAP1 RETURN JUMPDEST PUSH1 0x60 CALLDATASIZE PUSH1 0x3 NOT ADD SLT PUSH2 0x135 JUMPI PUSH1 0x4 CALLDATALOAD PUSH2 0x649 DUP2 PUSH2 0x16B JUMP JUMPDEST PUSH1 0x24 CALLDATALOAD SWAP1 PUSH1 0x44 CALLDATALOAD PUSH8 0xFFFFFFFFFFFFFFFF DUP2 GT PUSH2 0x135 JUMPI PUSH2 0x66D SWAP1 CALLDATASIZE SWAP1 PUSH1 0x4 ADD PUSH2 0x1E8 JUMP JUMPDEST SWAP1 SWAP2 PUSH2 0x67A ADDRESS CALLER EQ PUSH2 0x7FE JUMP JUMPDEST GAS SWAP3 PUSH1 0x0 DUP1 PUSH1 0x40 MLOAD DUP6 DUP5 DUP3 CALLDATACOPY DUP1 DUP7 DUP2 ADD DUP4 DUP2 MSTORE SUB SWAP1 DUP9 DUP7 DUP10 CALL PUSH2 0x387 PUSH2 0x37B PUSH2 0x8DA JUMP JUMPDEST CALLVALUE PUSH2 0x135 JUMPI PUSH1 0x20 CALLDATASIZE PUSH1 0x3 NOT ADD SLT PUSH2 0x135 JUMPI PUSH1 0x1 PUSH1 0x1 PUSH1 0xA0 SHL SUB PUSH1 0x4 CALLDATALOAD PUSH2 0x6C3 DUP2 PUSH2 0x16B JUMP JUMPDEST AND PUSH1 0x0 MSTORE PUSH1 0x0 PUSH1 0x20 MSTORE PUSH1 0x20 PUSH1 0x40 PUSH1 0x0 KECCAK256 SLOAD PUSH1 0x40 MLOAD SWAP1 DUP2 MSTORE RETURN JUMPDEST PUSH1 0x3 NOT PUSH1 0x20 CALLDATASIZE DUP3 ADD SLT PUSH2 0x135 JUMPI PUSH1 0x4 CALLDATALOAD PUSH8 0xFFFFFFFFFFFFFFFF DUP2 GT PUSH2 0x135 JUMPI PUSH1 0x60 DUP2 PUSH1 0x4 ADD SWAP3 DUP3 CALLDATASIZE SUB ADD SLT PUSH2 0x135 JUMPI PUSH2 0x1C SWAP2 PUSH2 0x71A ADDRESS CALLER EQ PUSH2 0x7FE JUMP JUMPDEST PUSH1 0x24 PUSH2 0x73F PUSH2 0x738 DUP4 CALLDATALOAD SWAP4 PUSH2 0x72E DUP6 PUSH2 0x16B JUMP JUMPDEST PUSH1 0x44 DUP7 ADD SWAP1 PUSH2 0xF0A JUMP JUMPDEST CALLDATASIZE SWAP2 PUSH2 0xB5A JUMP JUMPDEST SWAP3 ADD CALLDATALOAD SWAP1 PUSH2 0xFAA JUMP JUMPDEST CALLVALUE PUSH2 0x135 JUMPI PUSH1 0xA0 CALLDATASIZE PUSH1 0x3 NOT ADD SLT PUSH2 0x135 JUMPI PUSH2 0x764 PUSH1 0x4 CALLDATALOAD PUSH2 0x16B JUMP JUMPDEST PUSH2 0x76F PUSH1 0x24 CALLDATALOAD PUSH2 0x16B JUMP JUMPDEST PUSH1 0x84 CALLDATALOAD PUSH8 0xFFFFFFFFFFFFFFFF DUP2 GT PUSH2 0x135 JUMPI PUSH2 0x78F SWAP1 CALLDATASIZE SWAP1 PUSH1 0x4 ADD PUSH2 0x1E8 JUMP JUMPDEST POP POP PUSH1 0x20 PUSH1 0x40 MLOAD PUSH32 0xF23A6E6100000000000000000000000000000000000000000000000000000000 DUP2 MSTORE RETURN JUMPDEST PUSH1 0x0 SWAP1 PUSH2 0x6969 DUP3 MSTORE DUP2 PUSH1 0x20 MSTORE PUSH1 0x1 PUSH1 0x1 PUSH1 0xA0 SHL SUB PUSH1 0x40 DUP4 KECCAK256 SLOAD AND SWAP1 DUP2 ISZERO PUSH2 0x7F9 JUMPI POP DUP2 DUP1 SWAP2 CALLDATASIZE DUP3 DUP1 CALLDATACOPY DUP2 CALLDATASIZE SWAP2 GAS DELEGATECALL SWAP1 RETURNDATASIZE SWAP2 DUP3 DUP3 DUP1 RETURNDATACOPY ISZERO PUSH2 0x7F7 JUMPI RETURN JUMPDEST REVERT JUMPDEST SWAP2 POP POP JUMP JUMPDEST ISZERO PUSH2 0x805 JUMPI JUMP JUMPDEST PUSH1 0x64 PUSH1 0x40 MLOAD PUSH3 0x461BCD PUSH1 0xE5 SHL DUP2 MSTORE PUSH1 0x20 PUSH1 0x4 DUP3 ADD MSTORE PUSH1 0x15 PUSH1 0x24 DUP3 ADD MSTORE PUSH32 0x4F4E4C595F4143434F554E545F43414E5F43414C4C0000000000000000000000 PUSH1 0x44 DUP3 ADD MSTORE REVERT JUMPDEST PUSH4 0x4E487B71 PUSH1 0xE0 SHL PUSH1 0x0 MSTORE PUSH1 0x41 PUSH1 0x4 MSTORE PUSH1 0x24 PUSH1 0x0 REVERT JUMPDEST PUSH1 0x60 DUP2 ADD SWAP1 DUP2 LT PUSH8 0xFFFFFFFFFFFFFFFF DUP3 GT OR PUSH2 0x87B JUMPI PUSH1 0x40 MSTORE JUMP JUMPDEST PUSH2 0x849 JUMP JUMPDEST PUSH1 0x40 DUP2 ADD SWAP1 DUP2 LT PUSH8 0xFFFFFFFFFFFFFFFF DUP3 GT OR PUSH2 0x87B JUMPI PUSH1 0x40 MSTORE JUMP JUMPDEST SWAP1 PUSH1 0x1F DUP1 NOT SWAP2 ADD AND DUP2 ADD SWAP1 DUP2 LT PUSH8 0xFFFFFFFFFFFFFFFF DUP3 GT OR PUSH2 0x87B JUMPI PUSH1 0x40 MSTORE JUMP JUMPDEST PUSH8 0xFFFFFFFFFFFFFFFF DUP2 GT PUSH2 0x87B JUMPI PUSH1 0x1F ADD PUSH1 0x1F NOT AND PUSH1 0x20 ADD SWAP1 JUMP JUMPDEST RETURNDATASIZE ISZERO PUSH2 0x905 JUMPI RETURNDATASIZE SWAP1 PUSH2 0x8EB DUP3 PUSH2 0x8BE JUMP JUMPDEST SWAP2 PUSH2 0x8F9 PUSH1 0x40 MLOAD SWAP4 DUP5 PUSH2 0x89C JUMP JUMPDEST DUP3 MSTORE RETURNDATASIZE PUSH1 0x0 PUSH1 0x20 DUP5 ADD RETURNDATACOPY JUMP JUMPDEST PUSH1 0x60 SWAP1 JUMP JUMPDEST PUSH4 0x4E487B71 PUSH1 0xE0 SHL PUSH1 0x0 MSTORE PUSH1 0x11 PUSH1 0x4 MSTORE PUSH1 0x24 PUSH1 0x0 REVERT JUMPDEST ISZERO PUSH2 0x927 JUMPI JUMP JUMPDEST PUSH1 0x64 PUSH1 0x40 MLOAD PUSH3 0x461BCD PUSH1 0xE5 SHL DUP2 MSTORE PUSH1 0x20 PUSH1 0x4 DUP3 ADD MSTORE PUSH1 0xC PUSH1 0x24 DUP3 ADD MSTORE PUSH32 0x54525943415443485F4F4F470000000000000000000000000000000000000000 PUSH1 0x44 DUP3 ADD MSTORE REVERT JUMPDEST SWAP1 DUP1 PUSH1 0x20 SWAP4 SWAP3 DUP2 DUP5 MSTORE DUP5 DUP5 ADD CALLDATACOPY PUSH1 0x0 DUP3 DUP3 ADD DUP5 ADD MSTORE PUSH1 0x1F ADD PUSH1 0x1F NOT AND ADD ADD SWAP1 JUMP JUMPDEST PUSH1 0x0 JUMPDEST DUP4 DUP2 LT PUSH2 0x99F JUMPI POP POP PUSH1 0x0 SWAP2 ADD MSTORE JUMP JUMPDEST DUP2 DUP2 ADD MLOAD DUP4 DUP3 ADD MSTORE PUSH1 0x20 ADD PUSH2 0x98F JUMP JUMPDEST SWAP1 PUSH1 0x20 SWAP2 PUSH2 0x9C8 DUP2 MLOAD DUP1 SWAP3 DUP2 DUP6 MSTORE DUP6 DUP1 DUP7 ADD SWAP2 ADD PUSH2 0x98C JUMP JUMPDEST PUSH1 0x1F ADD PUSH1 0x1F NOT AND ADD ADD SWAP1 JUMP JUMPDEST SWAP3 SWAP2 PUSH2 0xA00 SWAP5 SWAP3 PUSH2 0x9F2 SWAP3 DUP6 MSTORE PUSH1 0x60 PUSH1 0x20 DUP7 ADD MSTORE PUSH1 0x60 DUP6 ADD SWAP2 PUSH2 0x96B JUMP JUMPDEST SWAP2 PUSH1 0x40 DUP2 DUP5 SUB SWAP2 ADD MSTORE PUSH2 0x9AF JUMP JUMPDEST SWAP1 JUMP JUMPDEST PUSH1 0x0 NOT DUP2 ADD SWAP2 SWAP1 DUP3 GT PUSH2 0xA12 JUMPI JUMP JUMPDEST PUSH2 0x90A JUMP JUMPDEST SWAP1 PUSH17 0x14551231950B75FC4402DA1732FC9BEBE NOT SWAP2 DUP3 SUB SWAP2 DUP3 GT PUSH2 0xA12 JUMPI JUMP JUMPDEST PUSH4 0x4E487B71 PUSH1 0xE0 SHL PUSH1 0x0 MSTORE PUSH1 0x32 PUSH1 0x4 MSTORE PUSH1 0x24 PUSH1 0x0 REVERT JUMPDEST SWAP1 DUP3 LT ISZERO PUSH2 0xA59 JUMPI ADD SWAP1 JUMP JUMPDEST PUSH2 0xA37 JUMP JUMPDEST SWAP1 PUSH1 0x1 DUP3 ADD DUP1 SWAP3 GT PUSH2 0xA12 JUMPI JUMP JUMPDEST SWAP5 SWAP2 SWAP1 SWAP5 PUSH1 0x80 DUP2 ADD SWAP4 PUSH1 0x1 PUSH1 0x1 PUSH1 0xA0 SHL SUB DUP1 SWAP8 AND DUP3 MSTORE PUSH1 0x20 SWAP3 DUP4 DUP4 ADD MSTORE PUSH1 0x40 SWAP1 DUP2 DUP4 ADD MSTORE DUP4 PUSH1 0x60 SWAP6 PUSH1 0x80 DUP8 DUP6 ADD MSTORE MSTORE PUSH1 0xA0 DUP3 ADD SWAP1 PUSH1 0xA0 DUP6 PUSH1 0x5 SHL DUP5 ADD ADD SWAP8 DUP8 PUSH1 0x0 SWAP5 JUMPDEST DUP8 DUP7 LT PUSH2 0xAC3 JUMPI POP POP POP POP POP POP POP POP POP POP SWAP1 JUMP JUMPDEST SWAP1 SWAP2 SWAP3 SWAP4 SWAP5 SWAP6 SWAP7 SWAP8 SWAP9 SWAP10 PUSH1 0x9F NOT DUP3 DUP3 SUB ADD DUP7 MSTORE DUP11 CALLDATALOAD PUSH1 0x5E NOT DUP5 CALLDATASIZE SUB ADD DUP2 SLT ISZERO PUSH2 0x135 JUMPI DUP4 ADD DUP5 DUP2 CALLDATALOAD PUSH2 0xAF4 DUP2 PUSH2 0x16B JUMP JUMPDEST AND DUP3 MSTORE DUP9 DUP2 ADD CALLDATALOAD DUP10 DUP4 ADD MSTORE DUP6 DUP2 ADD CALLDATALOAD PUSH1 0x1E NOT DUP3 CALLDATASIZE SUB ADD DUP2 SLT ISZERO PUSH2 0x135 JUMPI ADD DUP9 DUP2 ADD SWAP1 CALLDATALOAD PUSH8 0xFFFFFFFFFFFFFFFF DUP2 GT PUSH2 0x135 JUMPI DUP1 CALLDATASIZE SUB DUP3 SGT PUSH2 0x135 JUMPI PUSH2 0xB46 DUP11 SWAP3 DUP4 SWAP3 DUP15 DUP7 DUP2 DUP13 PUSH1 0x1 SWAP10 ADD MSTORE ADD SWAP2 PUSH2 0x96B JUMP JUMPDEST SWAP13 ADD SWAP7 ADD SWAP7 ADD SWAP5 SWAP9 SWAP8 SWAP7 SWAP6 SWAP4 SWAP3 SWAP2 SWAP1 PUSH2 0xAAF JUMP JUMPDEST SWAP3 SWAP2 SWAP3 PUSH2 0xB66 DUP3 PUSH2 0x8BE JUMP JUMPDEST SWAP2 PUSH2 0xB74 PUSH1 0x40 MLOAD SWAP4 DUP5 PUSH2 0x89C JUMP JUMPDEST DUP3 SWAP5 DUP2 DUP5 MSTORE DUP2 DUP4 ADD GT PUSH2 0x135 JUMPI DUP3 DUP2 PUSH1 0x20 SWAP4 DUP5 PUSH1 0x0 SWAP7 ADD CALLDATACOPY ADD ADD MSTORE JUMP JUMPDEST ISZERO PUSH2 0xB98 JUMPI JUMP JUMPDEST PUSH1 0x64 PUSH1 0x40 MLOAD PUSH3 0x461BCD PUSH1 0xE5 SHL DUP2 MSTORE PUSH1 0x20 PUSH1 0x4 DUP3 ADD MSTORE PUSH1 0x16 PUSH1 0x24 DUP3 ADD MSTORE PUSH32 0x494E53554646494349454E545F50524956494C45474500000000000000000000 PUSH1 0x44 DUP3 ADD MSTORE REVERT JUMPDEST PUSH8 0xFFFFFFFFFFFFFFFF DUP2 GT PUSH2 0x87B JUMPI PUSH1 0x5 SHL PUSH1 0x20 ADD SWAP1 JUMP JUMPDEST SWAP3 SWAP2 SWAP1 PUSH2 0xC00 DUP2 PUSH2 0xBDC JUMP JUMPDEST SWAP2 PUSH1 0x40 SWAP2 PUSH2 0xC10 DUP4 MLOAD SWAP5 DUP6 PUSH2 0x89C JUMP JUMPDEST DUP4 SWAP6 DUP2 DUP6 MSTORE PUSH1 0x20 DUP1 SWAP6 ADD SWAP2 PUSH1 0x5 SHL DUP2 ADD SWAP4 DUP4 DUP6 GT PUSH2 0x135 JUMPI DUP2 SWAP3 JUMPDEST DUP6 DUP5 LT PUSH2 0xC3B JUMPI POP POP POP POP POP POP POP JUMP JUMPDEST PUSH8 0xFFFFFFFFFFFFFFFF SWAP1 DUP5 CALLDATALOAD DUP3 DUP2 GT PUSH2 0x135 JUMPI DUP5 ADD SWAP2 PUSH1 0x60 DUP4 DUP9 SUB SLT PUSH2 0x135 JUMPI DUP4 MLOAD SWAP3 PUSH2 0xC67 DUP5 PUSH2 0x85F JUMP JUMPDEST DUP1 CALLDATALOAD PUSH2 0xC72 DUP2 PUSH2 0x16B JUMP JUMPDEST DUP5 MSTORE DUP10 DUP2 ADD CALLDATALOAD DUP11 DUP6 ADD MSTORE DUP5 DUP2 ADD CALLDATALOAD SWAP2 DUP3 GT PUSH2 0x135 JUMPI ADD SWAP1 DUP7 PUSH1 0x1F DUP4 ADD SLT ISZERO PUSH2 0x135 JUMPI DUP9 SWAP3 PUSH2 0xCA6 DUP9 DUP5 DUP7 DUP1 SWAP7 CALLDATALOAD SWAP2 ADD PUSH2 0xB5A JUMP JUMPDEST DUP6 DUP3 ADD MSTORE DUP2 MSTORE ADD SWAP4 ADD SWAP3 PUSH2 0xC2B JUMP JUMPDEST ISZERO PUSH2 0xCBC JUMPI JUMP JUMPDEST PUSH1 0x64 PUSH1 0x40 MLOAD PUSH3 0x461BCD PUSH1 0xE5 SHL DUP2 MSTORE PUSH1 0x20 PUSH1 0x4 DUP3 ADD MSTORE PUSH1 0x1D PUSH1 0x24 DUP3 ADD MSTORE PUSH32 0x5349474E41545552455F56414C49444154494F4E5F54494D454C4F434B000000 PUSH1 0x44 DUP3 ADD MSTORE REVERT JUMPDEST ISZERO PUSH2 0xD07 JUMPI JUMP JUMPDEST PUSH1 0x64 PUSH1 0x40 MLOAD PUSH3 0x461BCD PUSH1 0xE5 SHL DUP2 MSTORE PUSH1 0x20 PUSH1 0x4 DUP3 ADD MSTORE PUSH1 0x18 PUSH1 0x24 DUP3 ADD MSTORE PUSH32 0x50524956494C4547455F4E4F545F444F574E4752414445440000000000000000 PUSH1 0x44 DUP3 ADD MSTORE REVERT JUMPDEST SWAP2 SWAP3 SWAP1 SWAP3 PUSH2 0xD94 PUSH2 0xD8E PUSH2 0xD68 PUSH2 0xD61 DUP6 PUSH2 0xA03 JUMP JUMPDEST DUP6 DUP6 PUSH2 0xA4D JUMP JUMPDEST CALLDATALOAD PUSH32 0xFF00000000000000000000000000000000000000000000000000000000000000 AND SWAP1 JUMP JUMPDEST PUSH1 0xF8 SHR SWAP1 JUMP JUMPDEST PUSH1 0xFF DUP1 PUSH1 0x1 SLOAD SWAP3 PUSH2 0xDAC PUSH2 0xDA7 DUP6 PUSH2 0xA5E JUMP JUMPDEST PUSH1 0x1 SSTORE JUMP JUMPDEST AND SUB PUSH2 0xE5C JUMPI POP SWAP1 PUSH2 0xDC8 SWAP2 PUSH2 0xDC3 CALLDATASIZE DUP7 DUP7 PUSH2 0xBF4 JUMP JUMPDEST PUSH2 0x1719 JUMP JUMPDEST SWAP1 SWAP4 SWAP2 SWAP4 ISZERO PUSH2 0xE0B JUMPI POP SWAP2 PUSH2 0xDE8 PUSH2 0x4A2 PUSH2 0xE01 SWAP4 PUSH2 0xE09 SWAP6 CALLDATASIZE SWAP2 PUSH2 0xBF4 JUMP JUMPDEST PUSH1 0x1 PUSH1 0x1 PUSH1 0xA0 SHL SUB AND PUSH1 0x0 MSTORE PUSH1 0x0 PUSH1 0x20 MSTORE PUSH1 0x40 PUSH1 0x0 KECCAK256 SWAP1 JUMP JUMPDEST SLOAD ISZERO ISZERO PUSH2 0xD00 JUMP JUMPDEST JUMP JUMPDEST PUSH2 0xE17 SWAP1 TIMESTAMP LT ISZERO PUSH2 0xCB5 JUMP JUMPDEST PUSH1 0x40 MLOAD PUSH3 0x461BCD PUSH1 0xE5 SHL DUP2 MSTORE PUSH1 0x20 PUSH1 0x4 DUP3 ADD MSTORE PUSH1 0x19 PUSH1 0x24 DUP3 ADD MSTORE PUSH32 0x5349474E41545552455F56414C49444154494F4E5F4641494C00000000000000 PUSH1 0x44 DUP3 ADD MSTORE PUSH1 0x64 SWAP1 REVERT JUMPDEST PUSH2 0xE01 SWAP4 PUSH2 0xEAB PUSH2 0xE09 SWAP7 SWAP5 PUSH2 0xEA5 PUSH2 0xDE8 SWAP6 PUSH2 0x4A2 SWAP6 PUSH1 0x40 MLOAD PUSH2 0xE9A DUP2 PUSH2 0xE8C DUP13 DUP11 PUSH1 0x20 DUP5 ADD SWAP7 CHAINID ADDRESS DUP10 PUSH2 0xA6C JUMP JUMPDEST SUB PUSH1 0x1F NOT DUP2 ADD DUP4 MSTORE DUP3 PUSH2 0x89C JUMP JUMPDEST MLOAD SWAP1 KECCAK256 SWAP3 CALLDATASIZE SWAP2 PUSH2 0xB5A JUMP JUMPDEST SWAP1 PUSH2 0x18C4 JUMP JUMPDEST SWAP4 PUSH2 0xED4 PUSH2 0xECC DUP7 PUSH1 0x1 PUSH1 0x1 PUSH1 0xA0 SHL SUB AND PUSH1 0x0 MSTORE PUSH1 0x0 PUSH1 0x20 MSTORE PUSH1 0x40 PUSH1 0x0 KECCAK256 SWAP1 JUMP JUMPDEST SLOAD ISZERO ISZERO PUSH2 0xB91 JUMP JUMPDEST PUSH2 0x49B JUMP JUMPDEST PUSH1 0x0 NOT DUP2 EQ PUSH2 0xA12 JUMPI PUSH1 0x1 ADD SWAP1 JUMP JUMPDEST SWAP2 SWAP1 DUP2 LT ISZERO PUSH2 0xA59 JUMPI PUSH1 0x5 SHL DUP2 ADD CALLDATALOAD SWAP1 PUSH1 0x3E NOT DUP2 CALLDATASIZE SUB ADD DUP3 SLT ISZERO PUSH2 0x135 JUMPI ADD SWAP1 JUMP JUMPDEST SWAP1 CALLDATALOAD SWAP1 PUSH1 0x1E NOT DUP2 CALLDATASIZE SUB ADD DUP3 SLT ISZERO PUSH2 0x135 JUMPI ADD DUP1 CALLDATALOAD SWAP1 PUSH8 0xFFFFFFFFFFFFFFFF DUP3 GT PUSH2 0x135 JUMPI PUSH1 0x20 ADD SWAP2 DUP2 CALLDATASIZE SUB DUP4 SGT PUSH2 0x135 JUMPI JUMP JUMPDEST DUP1 MLOAD DUP3 LT ISZERO PUSH2 0xA59 JUMPI PUSH1 0x20 SWAP2 PUSH1 0x5 SHL ADD ADD SWAP1 JUMP JUMPDEST DUP1 MLOAD SWAP1 PUSH1 0x0 JUMPDEST DUP3 DUP2 LT PUSH2 0xF63 JUMPI POP POP POP JUMP JUMPDEST DUP1 PUSH2 0xF71 PUSH2 0xF8A SWAP3 DUP5 PUSH2 0xF3D JUMP JUMPDEST MLOAD PUSH1 0x1 PUSH1 0x1 PUSH1 0xA0 SHL SUB DUP2 MLOAD AND DUP1 PUSH2 0xF8F JUMPI JUMPDEST POP POP PUSH2 0xED9 JUMP JUMPDEST PUSH2 0xF57 JUMP JUMPDEST DUP2 PUSH1 0x40 PUSH1 0x20 PUSH2 0xFA3 SWAP5 ADD MLOAD SWAP2 ADD MLOAD SWAP2 PUSH2 0xFAA JUMP JUMPDEST CODESIZE DUP1 PUSH2 0xF83 JUMP JUMPDEST SWAP2 PUSH1 0x0 SWAP3 DUP4 SWAP3 PUSH1 0x20 DUP4 MLOAD SWAP4 ADD SWAP2 GAS CALL ISZERO PUSH2 0xFC0 JUMPI JUMP JUMPDEST RETURNDATASIZE PUSH1 0x40 MLOAD DUP2 PUSH1 0x0 DUP3 RETURNDATACOPY REVERT JUMPDEST PUSH1 0x1 PUSH1 0x1 PUSH1 0xA0 SHL SUB SWAP3 PUSH2 0xFED SWAP2 PUSH2 0xFE7 PUSH1 0x0 SWAP5 DUP6 SWAP4 CALLDATASIZE SWAP2 PUSH2 0xB5A JUMP JUMPDEST SWAP1 PUSH2 0x1D6E JUMP JUMPDEST SWAP3 AND DUP2 MSTORE DUP1 PUSH1 0x20 MSTORE PUSH1 0x40 DUP2 KECCAK256 SLOAD SWAP2 PUSH1 0x0 EQ PUSH2 0x1026 JUMPI POP PUSH1 0xFF PUSH1 0x1 JUMPDEST AND LT ISZERO PUSH2 0x101A JUMPI PUSH4 0xB135D3F PUSH1 0xE1 SHL SWAP1 JUMP JUMPDEST PUSH1 0x1 PUSH1 0x1 PUSH1 0xE0 SHL SUB NOT SWAP1 JUMP JUMPDEST PUSH1 0xFF SWAP1 PUSH2 0x1008 JUMP JUMPDEST MLOAD SWAP1 DUP2 ISZERO ISZERO DUP3 SUB PUSH2 0x135 JUMPI JUMP JUMPDEST SWAP1 DUP2 PUSH1 0x20 SWAP2 SUB SLT PUSH2 0x135 JUMPI PUSH2 0xA00 SWAP1 PUSH2 0x102E JUMP JUMPDEST PUSH1 0x40 MLOAD RETURNDATASIZE PUSH1 0x0 DUP3 RETURNDATACOPY RETURNDATASIZE SWAP1 REVERT JUMPDEST PUSH32 0x1FFC9A700000000000000000000000000000000000000000000000000000000 PUSH1 0x1 PUSH1 0x1 PUSH1 0xE0 SHL SUB NOT DUP3 AND DUP2 DUP2 EQ SWAP1 DUP2 ISZERO PUSH2 0x11C5 JUMPI JUMPDEST DUP2 ISZERO PUSH2 0x119B JUMPI JUMPDEST DUP2 ISZERO PUSH2 0x1171 JUMPI JUMPDEST POP PUSH2 0x116A JUMPI PUSH2 0x6969 PUSH1 0x0 SWAP1 DUP2 MSTORE PUSH1 0x20 MSTORE PUSH1 0x1 PUSH1 0x1 PUSH1 0xA0 SHL SUB PUSH2 0x10F9 PUSH2 0x10ED DUP1 PUSH32 0x662A30F03E82D96C1F4D254AC3D297AC2D115F4D7E55A040FEE317B77FA274E7 SLOAD PUSH1 0x1 PUSH1 0x1 PUSH1 0xA0 SHL SUB AND SWAP1 JUMP JUMPDEST PUSH1 0x1 PUSH1 0x1 PUSH1 0xA0 SHL SUB AND SWAP1 JUMP JUMPDEST AND SWAP2 DUP3 ISZERO PUSH2 0x1162 JUMPI PUSH1 0x40 MLOAD SWAP2 DUP3 MSTORE PUSH1 0x1 PUSH1 0x1 PUSH1 0xE0 SHL SUB NOT AND PUSH1 0x4 DUP3 ADD MSTORE SWAP1 PUSH1 0x20 SWAP1 DUP3 SWAP1 PUSH1 0x24 SWAP1 DUP3 SWAP1 GAS STATICCALL SWAP1 DUP2 ISZERO PUSH2 0x115D JUMPI PUSH1 0x0 SWAP2 PUSH2 0x1135 JUMPI POP SWAP1 JUMP JUMPDEST PUSH2 0xA00 SWAP2 POP PUSH1 0x20 RETURNDATASIZE DUP2 GT PUSH2 0x1156 JUMPI JUMPDEST PUSH2 0x114E DUP2 DUP4 PUSH2 0x89C JUMP JUMPDEST DUP2 ADD SWAP1 PUSH2 0x103B JUMP JUMPDEST POP RETURNDATASIZE PUSH2 0x1144 JUMP JUMPDEST PUSH2 0x104F JUMP JUMPDEST POP POP POP PUSH1 0x0 SWAP1 JUMP JUMPDEST POP POP PUSH1 0x1 SWAP1 JUMP JUMPDEST PUSH32 0xA41763200000000000000000000000000000000000000000000000000000000 SWAP2 POP EQ CODESIZE PUSH2 0x10A0 JUMP JUMPDEST PUSH32 0x4E2312E000000000000000000000000000000000000000000000000000000000 DUP2 EQ SWAP2 POP PUSH2 0x1099 JUMP JUMPDEST PUSH4 0xA85BD01 PUSH1 0xE1 SHL DUP2 EQ SWAP2 POP PUSH2 0x1092 JUMP JUMPDEST SWAP1 PUSH1 0x4 GT PUSH2 0x135 JUMPI SWAP1 PUSH1 0x4 SWAP1 JUMP JUMPDEST SWAP1 PUSH1 0x14 GT PUSH2 0x135 JUMPI SWAP1 PUSH1 0x14 SWAP1 JUMP JUMPDEST PUSH1 0x1 PUSH1 0x1 PUSH1 0xE0 SHL SUB NOT SWAP1 CALLDATALOAD DUP2 DUP2 AND SWAP4 SWAP3 PUSH1 0x4 DUP2 LT PUSH2 0x120F JUMPI POP POP POP JUMP JUMPDEST PUSH1 0x4 SUB PUSH1 0x3 SHL DUP3 SWAP1 SHL AND AND SWAP2 POP JUMP JUMPDEST PUSH12 0xFFFFFFFFFFFFFFFFFFFFFFFF NOT SWAP1 CALLDATALOAD DUP2 DUP2 AND SWAP4 SWAP3 PUSH1 0x14 DUP2 LT PUSH2 0x1240 JUMPI POP POP POP JUMP JUMPDEST PUSH1 0x14 SUB PUSH1 0x3 SHL DUP3 SWAP1 SHL AND AND SWAP2 POP JUMP JUMPDEST ISZERO PUSH2 0x1256 JUMPI JUMP JUMPDEST PUSH1 0x84 PUSH1 0x40 MLOAD PUSH3 0x461BCD PUSH1 0xE5 SHL DUP2 MSTORE PUSH1 0x20 PUSH1 0x4 DUP3 ADD MSTORE PUSH1 0x34 PUSH1 0x24 DUP3 ADD MSTORE PUSH32 0x76616C6964617465557365724F703A207061796D617374657220726571756972 PUSH1 0x44 DUP3 ADD MSTORE PUSH32 0x656420696E20657865637574652829206D6F6465000000000000000000000000 PUSH1 0x64 DUP3 ADD MSTORE REVERT JUMPDEST SWAP5 SWAP8 SWAP6 SWAP3 SWAP1 SWAP4 PUSH2 0x12E1 PUSH2 0xA00 SWAP11 SWAP9 SWAP6 PUSH2 0x12EF SWAP5 PUSH1 0xC0 DUP10 MSTORE PUSH1 0xC0 DUP10 ADD SWAP2 PUSH2 0x96B JUMP JUMPDEST SWAP2 DUP7 DUP4 SUB PUSH1 0x20 DUP9 ADD MSTORE PUSH2 0x96B JUMP JUMPDEST SWAP6 PUSH1 0x40 DUP5 ADD MSTORE PUSH1 0x60 DUP4 ADD MSTORE PUSH1 0x80 DUP3 ADD MSTORE PUSH1 0xA0 DUP2 DUP6 SUB SWAP2 ADD MSTORE PUSH2 0x96B JUMP JUMPDEST ISZERO PUSH2 0x1313 JUMPI JUMP JUMPDEST PUSH1 0x84 PUSH1 0x40 MLOAD PUSH3 0x461BCD PUSH1 0xE5 SHL DUP2 MSTORE PUSH1 0x20 PUSH1 0x4 DUP3 ADD MSTORE PUSH1 0x23 PUSH1 0x24 DUP3 ADD MSTORE PUSH32 0x76616C6964617465557365724F703A206E6F742066726F6D20656E747279506F PUSH1 0x44 DUP3 ADD MSTORE PUSH32 0x696E740000000000000000000000000000000000000000000000000000000000 PUSH1 0x64 DUP3 ADD MSTORE REVERT JUMPDEST SWAP2 PUSH1 0x60 DUP4 ADD PUSH1 0x4 PUSH2 0x138E DUP3 DUP7 PUSH2 0xF0A JUMP JUMPDEST SWAP1 POP LT ISZERO DUP1 PUSH2 0x14EF JUMPI JUMPDEST PUSH2 0x1411 JUMPI POP SWAP1 PUSH2 0xEA5 PUSH2 0x738 PUSH2 0x13E8 SWAP5 PUSH2 0xDE8 SWAP5 PUSH2 0x13D6 PUSH2 0x7171 PUSH2 0x13CF CALLER PUSH1 0x1 PUSH1 0x1 PUSH1 0xA0 SHL SUB AND PUSH1 0x0 MSTORE PUSH1 0x0 PUSH1 0x20 MSTORE PUSH1 0x40 PUSH1 0x0 KECCAK256 SWAP1 JUMP JUMPDEST SLOAD EQ PUSH2 0x130C JUMP JUMPDEST DUP1 PUSH2 0x13F8 JUMPI JUMPDEST POP PUSH2 0x100 DUP2 ADD SWAP1 PUSH2 0xF0A JUMP JUMPDEST SLOAD ISZERO PUSH2 0x13F3 JUMPI PUSH1 0x0 SWAP1 JUMP JUMPDEST PUSH1 0x1 SWAP1 JUMP JUMPDEST PUSH1 0x0 DUP1 DUP1 DUP1 SWAP4 CALLER GAS CALL POP PUSH2 0x140A PUSH2 0x8DA JUMP JUMPDEST POP CODESIZE PUSH2 0x13DC JUMP JUMPDEST SWAP2 POP POP PUSH2 0x1422 PUSH2 0x100 DUP4 ADD DUP4 PUSH2 0xF0A JUMP JUMPDEST SWAP1 POP PUSH2 0x116A JUMPI PUSH2 0x14A9 PUSH1 0x20 SWAP2 PUSH1 0xE0 DUP5 ADD SWAP1 PUSH1 0x34 PUSH2 0x143F DUP4 DUP8 PUSH2 0xF0A JUMP JUMPDEST SWAP1 POP LT ISZERO DUP1 PUSH2 0x14B6 JUMPI JUMPDEST PUSH2 0x1452 SWAP1 PUSH2 0x124F JUMP JUMPDEST PUSH2 0x14A0 PUSH2 0x147D PUSH2 0xE8C PUSH2 0x1474 PUSH2 0x146B PUSH1 0x40 DUP11 ADD DUP11 PUSH2 0xF0A JUMP JUMPDEST SWAP2 SWAP1 SWAP6 DUP11 PUSH2 0xF0A JUMP JUMPDEST SWAP4 SWAP1 SWAP7 DUP11 PUSH2 0xF0A JUMP JUMPDEST SWAP2 DUP11 PUSH1 0x40 MLOAD SWAP8 DUP9 SWAP7 DUP13 DUP9 ADD SWAP11 PUSH1 0xC0 DUP5 ADD CALLDATALOAD SWAP5 PUSH1 0x80 PUSH1 0xA0 DUP7 ADD CALLDATALOAD SWAP6 ADD CALLDATALOAD SWAP4 DUP14 PUSH2 0x12C0 JUMP JUMPDEST MLOAD SWAP1 KECCAK256 PUSH1 0x40 SHL SWAP1 JUMP JUMPDEST SWAP2 ADD CALLDATALOAD SUB PUSH2 0x13F3 JUMPI PUSH1 0x0 SWAP1 JUMP JUMPDEST POP PUSH2 0x1452 PUSH2 0x14E5 PUSH2 0x14D0 PUSH2 0x14CA DUP6 DUP10 PUSH2 0xF0A JUMP JUMPDEST SWAP1 PUSH2 0x11E4 JUMP JUMPDEST PUSH12 0xFFFFFFFFFFFFFFFFFFFFFFFF NOT SWAP3 SWAP2 PUSH2 0x121E JUMP JUMPDEST AND ISZERO ISZERO SWAP1 POP PUSH2 0x1449 JUMP JUMPDEST POP PUSH32 0xA2EA676600000000000000000000000000000000000000000000000000000000 PUSH1 0x1 PUSH1 0x1 PUSH1 0xE0 SHL SUB NOT PUSH2 0x1536 PUSH2 0x1530 PUSH2 0x152A DUP6 DUP10 PUSH2 0xF0A JUMP JUMPDEST SWAP1 PUSH2 0x11D6 JUMP JUMPDEST SWAP1 PUSH2 0x11F2 JUMP JUMPDEST AND EQ PUSH2 0x1398 JUMP JUMPDEST DUP2 PUSH1 0x1F DUP3 ADD SLT ISZERO PUSH2 0x135 JUMPI DUP1 MLOAD PUSH2 0x1553 DUP2 PUSH2 0x8BE JUMP JUMPDEST SWAP3 PUSH2 0x1561 PUSH1 0x40 MLOAD SWAP5 DUP6 PUSH2 0x89C JUMP JUMPDEST DUP2 DUP5 MSTORE PUSH1 0x20 DUP3 DUP5 ADD ADD GT PUSH2 0x135 JUMPI PUSH2 0xA00 SWAP2 PUSH1 0x20 DUP1 DUP6 ADD SWAP2 ADD PUSH2 0x98C JUMP JUMPDEST SWAP1 PUSH1 0x80 DUP3 DUP3 SUB SLT PUSH2 0x135 JUMPI DUP2 MLOAD PUSH2 0x1595 DUP2 PUSH2 0x16B JUMP JUMPDEST SWAP3 PUSH1 0x20 DUP4 ADD MLOAD PUSH2 0x15A4 DUP2 PUSH2 0x16B JUMP JUMPDEST SWAP3 PUSH1 0x40 DUP2 ADD MLOAD SWAP3 PUSH8 0xFFFFFFFFFFFFFFFF SWAP4 DUP5 DUP2 GT PUSH2 0x135 JUMPI DUP2 PUSH2 0x15C8 SWAP2 DUP5 ADD PUSH2 0x153D JUMP JUMPDEST SWAP4 PUSH1 0x60 DUP4 ADD MLOAD SWAP1 DUP2 GT PUSH2 0x135 JUMPI PUSH2 0xA00 SWAP3 ADD PUSH2 0x153D JUMP JUMPDEST PUSH1 0x40 SWAP1 PUSH1 0x1 PUSH1 0x1 PUSH1 0xA0 SHL SUB PUSH2 0xA00 SWAP5 SWAP4 AND DUP2 MSTORE DUP2 PUSH1 0x20 DUP3 ADD MSTORE ADD SWAP1 PUSH2 0x9AF JUMP JUMPDEST ISZERO PUSH2 0x1606 JUMPI JUMP JUMPDEST PUSH1 0x64 PUSH1 0x40 MLOAD PUSH3 0x461BCD PUSH1 0xE5 SHL DUP2 MSTORE PUSH1 0x20 PUSH1 0x4 DUP3 ADD MSTORE PUSH1 0x1B PUSH1 0x24 DUP3 ADD MSTORE PUSH32 0x45585445524E414C5F56414C49444154494F4E5F4E4F545F5345540000000000 PUSH1 0x44 DUP3 ADD MSTORE REVERT JUMPDEST SWAP2 SWAP1 DUP3 PUSH1 0x40 SWAP2 SUB SLT PUSH2 0x135 JUMPI PUSH1 0x20 PUSH2 0x1661 DUP4 PUSH2 0x102E JUMP JUMPDEST SWAP3 ADD MLOAD SWAP1 JUMP JUMPDEST SWAP1 PUSH2 0x168C PUSH2 0x167D PUSH1 0x60 SWAP3 DUP4 DUP6 MSTORE DUP4 DUP6 ADD SWAP1 PUSH2 0x9AF JUMP JUMPDEST PUSH1 0x20 SWAP5 DUP5 DUP3 SUB DUP7 DUP7 ADD MSTORE PUSH2 0x9AF JUMP JUMPDEST SWAP3 PUSH1 0x40 SWAP3 DUP4 DUP2 DUP7 SUB SWAP2 ADD MSTORE DUP5 MLOAD SWAP2 DUP3 DUP6 MSTORE DUP2 DUP6 ADD DUP3 DUP1 DUP6 PUSH1 0x5 SHL DUP9 ADD ADD SWAP8 ADD SWAP5 PUSH1 0x0 SWAP3 JUMPDEST DUP6 DUP5 LT PUSH2 0x16C2 JUMPI POP POP POP POP POP POP POP POP SWAP1 JUMP JUMPDEST SWAP1 SWAP2 SWAP3 SWAP4 SWAP5 SWAP6 SWAP7 SWAP9 SWAP8 DUP6 DUP1 PUSH2 0x1705 PUSH1 0x1 SWAP4 DUP14 PUSH1 0x1F NOT SWAP1 DUP3 SUB ADD DUP9 MSTORE DUP6 DUP8 DUP14 MLOAD PUSH1 0x1 PUSH1 0x1 PUSH1 0xA0 SHL SUB DUP2 MLOAD AND DUP5 MSTORE DUP6 DUP2 ADD MLOAD DUP7 DUP6 ADD MSTORE ADD MLOAD SWAP2 DUP2 DUP10 DUP3 ADD MSTORE ADD SWAP1 PUSH2 0x9AF JUMP JUMPDEST SWAP11 SWAP12 SWAP10 ADD SWAP8 SWAP7 SWAP6 SWAP2 SWAP1 SWAP2 ADD SWAP4 ADD SWAP2 SWAP1 PUSH2 0x16B0 JUMP JUMPDEST PUSH1 0x40 SWAP1 PUSH2 0x1749 PUSH2 0x1739 PUSH2 0x1734 PUSH2 0x17D0 SWAP6 PUSH1 0x0 SWAP9 SWAP8 CALLDATASIZE SWAP2 PUSH2 0xB5A JUMP JUMPDEST PUSH2 0x1833 JUMP JUMPDEST POP PUSH1 0x20 DUP1 DUP3 MLOAD DUP4 ADD ADD SWAP2 ADD PUSH2 0x157F JUMP JUMPDEST SWAP2 PUSH1 0x1 PUSH1 0x1 PUSH1 0xA0 SHL SUB SWAP9 SWAP2 SWAP9 DUP1 SWAP2 AND SWAP4 AND SWAP8 PUSH2 0x179B PUSH2 0x177B DUP11 PUSH1 0x1 PUSH1 0x1 PUSH1 0xA0 SHL SUB AND PUSH1 0x0 MSTORE PUSH1 0x0 PUSH1 0x20 MSTORE PUSH1 0x40 PUSH1 0x0 KECCAK256 SWAP1 JUMP JUMPDEST SLOAD DUP8 MLOAD PUSH1 0x20 DUP2 ADD SWAP1 PUSH2 0x1792 DUP2 PUSH2 0xE8C DUP8 DUP12 DUP7 PUSH2 0x15DF JUMP JUMPDEST MLOAD SWAP1 KECCAK256 EQ PUSH2 0x15FF JUMP JUMPDEST DUP6 MLOAD SWAP7 DUP8 SWAP6 DUP7 SWAP5 DUP6 SWAP4 PUSH32 0xFCFBBA4D00000000000000000000000000000000000000000000000000000000 DUP6 MSTORE PUSH1 0x4 DUP6 ADD PUSH2 0x1667 JUMP JUMPDEST SUB SWAP3 GAS CALL DUP1 ISZERO PUSH2 0x115D JUMPI PUSH1 0x0 SWAP2 DUP3 SWAP2 PUSH2 0x17E8 JUMPI POP SWAP1 SWAP2 JUMP JUMPDEST SWAP1 POP PUSH2 0x47D SWAP2 POP PUSH1 0x40 RETURNDATASIZE DUP2 GT PUSH2 0x180B JUMPI JUMPDEST PUSH2 0x1803 DUP2 DUP4 PUSH2 0x89C JUMP JUMPDEST DUP2 ADD SWAP1 PUSH2 0x164A JUMP JUMPDEST POP RETURNDATASIZE PUSH2 0x17F9 JUMP JUMPDEST DUP1 MLOAD PUSH1 0x40 LT ISZERO PUSH2 0xA59 JUMPI PUSH1 0x60 ADD SWAP1 JUMP JUMPDEST SWAP1 DUP2 MLOAD DUP2 LT ISZERO PUSH2 0xA59 JUMPI ADD PUSH1 0x20 ADD SWAP1 JUMP JUMPDEST SWAP1 PUSH1 0x0 NOT SWAP2 PUSH2 0x1845 DUP4 DUP3 MLOAD ADD DUP3 PUSH2 0x1822 JUMP JUMPDEST MLOAD PUSH1 0xF8 SHR SWAP3 DUP2 MLOAD SWAP1 DUP2 ADD SWAP1 DUP2 GT PUSH2 0xA12 JUMPI PUSH2 0x1860 SWAP1 DUP3 PUSH2 0x18B8 JUMP JUMPDEST SWAP2 SWAP1 JUMP JUMPDEST PUSH1 0x20 DUP2 MLOAD GT ISZERO PUSH2 0x1874 JUMPI PUSH1 0x20 SWAP1 MSTORE JUMP JUMPDEST PUSH1 0x64 PUSH1 0x40 MLOAD PUSH3 0x461BCD PUSH1 0xE5 SHL DUP2 MSTORE PUSH1 0x20 PUSH1 0x4 DUP3 ADD MSTORE PUSH1 0x18 PUSH1 0x24 DUP3 ADD MSTORE PUSH32 0x42797465734C69623A206F6E6C7920736872696E6B696E670000000000000000 PUSH1 0x44 DUP3 ADD MSTORE REVERT JUMPDEST DUP2 DUP2 MLOAD GT ISZERO PUSH2 0x1874 JUMPI MSTORE JUMP JUMPDEST PUSH2 0x18D0 SWAP2 PUSH1 0x1 SWAP2 PUSH2 0x1D6E JUMP JUMPDEST PUSH2 0x18D7 JUMPI SWAP1 JUMP JUMPDEST PUSH1 0x64 PUSH1 0x40 MLOAD PUSH3 0x461BCD PUSH1 0xE5 SHL DUP2 MSTORE PUSH1 0x20 PUSH1 0x4 DUP3 ADD MSTORE PUSH1 0xF PUSH1 0x24 DUP3 ADD MSTORE PUSH32 0x53565F555345445F554E424F554E440000000000000000000000000000000000 PUSH1 0x44 DUP3 ADD MSTORE REVERT JUMPDEST ISZERO PUSH2 0x1922 JUMPI JUMP JUMPDEST PUSH1 0x64 PUSH1 0x40 MLOAD PUSH3 0x461BCD PUSH1 0xE5 SHL DUP2 MSTORE PUSH1 0x20 PUSH1 0x4 DUP3 ADD MSTORE PUSH1 0x9 PUSH1 0x24 DUP3 ADD MSTORE PUSH32 0x53565F5349474C454E0000000000000000000000000000000000000000000000 PUSH1 0x44 DUP3 ADD MSTORE REVERT JUMPDEST PUSH1 0x7 GT ISZERO PUSH2 0x1970 JUMPI JUMP JUMPDEST PUSH4 0x4E487B71 PUSH1 0xE0 SHL PUSH1 0x0 MSTORE PUSH1 0x21 PUSH1 0x4 MSTORE PUSH1 0x24 PUSH1 0x0 REVERT JUMPDEST PUSH1 0x40 MLOAD SWAP1 PUSH2 0x1993 DUP3 PUSH2 0x880 JUMP JUMPDEST PUSH1 0x6 DUP3 MSTORE PUSH32 0x416D626972650000000000000000000000000000000000000000000000000000 PUSH1 0x20 DUP4 ADD MSTORE JUMP JUMPDEST PUSH1 0x40 MLOAD SWAP1 PUSH2 0x19CC DUP3 PUSH2 0x880 JUMP JUMPDEST PUSH1 0x1 DUP3 MSTORE PUSH32 0x3100000000000000000000000000000000000000000000000000000000000000 PUSH1 0x20 DUP4 ADD MSTORE JUMP JUMPDEST PUSH1 0x40 MLOAD SWAP1 PUSH2 0x1A05 DUP3 PUSH2 0x85F JUMP JUMPDEST PUSH1 0x2D DUP3 MSTORE PUSH32 0x6279746573333220686173682900000000000000000000000000000000000000 PUSH1 0x40 DUP4 PUSH32 0x416D626972654F7065726174696F6E2861646472657373206163636F756E742C PUSH1 0x20 DUP3 ADD MSTORE ADD MSTORE JUMP JUMPDEST ISZERO PUSH2 0x1A5E JUMPI JUMP JUMPDEST PUSH1 0x64 PUSH1 0x40 MLOAD PUSH3 0x461BCD PUSH1 0xE5 SHL DUP2 MSTORE PUSH1 0x20 PUSH1 0x4 DUP3 ADD MSTORE PUSH1 0xF PUSH1 0x24 DUP3 ADD MSTORE PUSH32 0x53565F53504F4F465F4F524947494E0000000000000000000000000000000000 PUSH1 0x44 DUP3 ADD MSTORE REVERT JUMPDEST ISZERO PUSH2 0x1AA9 JUMPI JUMP JUMPDEST PUSH1 0x64 PUSH1 0x40 MLOAD PUSH3 0x461BCD PUSH1 0xE5 SHL DUP2 MSTORE PUSH1 0x20 PUSH1 0x4 DUP3 ADD MSTORE PUSH1 0xC PUSH1 0x24 DUP3 ADD MSTORE PUSH32 0x53565F53504F4F465F4C454E0000000000000000000000000000000000000000 PUSH1 0x44 DUP3 ADD MSTORE REVERT JUMPDEST ISZERO PUSH2 0x135 JUMPI JUMP JUMPDEST SWAP1 DUP2 PUSH1 0x20 SWAP2 SUB SLT PUSH2 0x135 JUMPI MLOAD PUSH2 0xA00 DUP2 PUSH2 0x16B JUMP JUMPDEST ISZERO PUSH2 0x1B10 JUMPI JUMP JUMPDEST PUSH1 0x64 PUSH1 0x40 MLOAD PUSH3 0x461BCD PUSH1 0xE5 SHL DUP2 MSTORE PUSH1 0x20 PUSH1 0x4 DUP3 ADD MSTORE PUSH1 0xD PUSH1 0x24 DUP3 ADD MSTORE PUSH32 0x53565F4C454E5F57414C4C455400000000000000000000000000000000000000 PUSH1 0x44 DUP3 ADD MSTORE REVERT JUMPDEST SWAP1 DUP2 PUSH1 0x20 SWAP2 SUB SLT PUSH2 0x135 JUMPI MLOAD PUSH2 0xA00 DUP2 PUSH2 0x123 JUMP JUMPDEST PUSH1 0x40 SWAP1 PUSH2 0xA00 SWAP4 SWAP3 DUP2 MSTORE DUP2 PUSH1 0x20 DUP3 ADD MSTORE ADD SWAP1 PUSH2 0x9AF JUMP JUMPDEST ISZERO PUSH2 0x1B87 JUMPI JUMP JUMPDEST PUSH1 0x64 PUSH1 0x40 MLOAD PUSH3 0x461BCD PUSH1 0xE5 SHL DUP2 MSTORE PUSH1 0x20 PUSH1 0x4 DUP3 ADD MSTORE PUSH1 0x11 PUSH1 0x24 DUP3 ADD MSTORE PUSH32 0x53565F57414C4C45545F494E56414C4944000000000000000000000000000000 PUSH1 0x44 DUP3 ADD MSTORE REVERT JUMPDEST SWAP1 PUSH1 0x20 SWAP1 DUP2 DUP4 DUP3 SUB SLT PUSH2 0x135 JUMPI DUP3 MLOAD PUSH8 0xFFFFFFFFFFFFFFFF SWAP4 DUP5 DUP3 GT PUSH2 0x135 JUMPI ADD DUP2 PUSH1 0x1F DUP3 ADD SLT ISZERO PUSH2 0x135 JUMPI DUP1 MLOAD PUSH2 0x1C02 DUP2 PUSH2 0xBDC JUMP JUMPDEST SWAP5 PUSH2 0x1C10 PUSH1 0x40 MLOAD SWAP7 DUP8 PUSH2 0x89C JUMP JUMPDEST DUP2 DUP7 MSTORE DUP5 DUP1 DUP8 ADD SWAP3 PUSH1 0x5 SHL DUP5 ADD ADD SWAP4 DUP1 DUP6 GT PUSH2 0x135 JUMPI DUP6 DUP5 ADD SWAP3 JUMPDEST DUP6 DUP5 LT PUSH2 0x1C3C JUMPI POP POP POP POP POP POP POP SWAP1 JUMP JUMPDEST DUP4 MLOAD DUP4 DUP2 GT PUSH2 0x135 JUMPI DUP8 SWAP2 PUSH2 0x1C56 DUP5 DUP5 DUP1 SWAP5 DUP11 ADD ADD PUSH2 0x153D JUMP JUMPDEST DUP2 MSTORE ADD SWAP4 ADD SWAP3 PUSH2 0x1C2B JUMP JUMPDEST SWAP2 SWAP1 DUP3 PUSH1 0x80 SWAP2 SUB SLT PUSH2 0x135 JUMPI DUP2 MLOAD SWAP2 PUSH1 0x20 DUP2 ADD MLOAD SWAP2 PUSH1 0x60 PUSH1 0x40 DUP4 ADD MLOAD SWAP3 ADD MLOAD PUSH1 0xFF DUP2 AND DUP2 SUB PUSH2 0x135 JUMPI SWAP1 JUMP JUMPDEST ISZERO PUSH2 0x1C94 JUMPI JUMP JUMPDEST PUSH1 0x64 PUSH1 0x40 MLOAD PUSH3 0x461BCD PUSH1 0xE5 SHL DUP2 MSTORE PUSH1 0x20 PUSH1 0x4 DUP3 ADD MSTORE PUSH1 0xB PUSH1 0x24 DUP3 ADD MSTORE PUSH32 0x53565F5A45524F5F534947000000000000000000000000000000000000000000 PUSH1 0x44 DUP3 ADD MSTORE REVERT JUMPDEST ISZERO PUSH2 0x1CDF JUMPI JUMP JUMPDEST PUSH1 0x64 PUSH1 0x40 MLOAD PUSH3 0x461BCD PUSH1 0xE5 SHL DUP2 MSTORE PUSH1 0x20 PUSH1 0x4 DUP3 ADD MSTORE PUSH1 0x11 PUSH1 0x24 DUP3 ADD MSTORE PUSH32 0x53565F5343484E4F52525F4641494C4544000000000000000000000000000000 PUSH1 0x44 DUP3 ADD MSTORE REVERT JUMPDEST ISZERO PUSH2 0x1D2A JUMPI JUMP JUMPDEST PUSH1 0x64 PUSH1 0x40 MLOAD PUSH3 0x461BCD PUSH1 0xE5 SHL DUP2 MSTORE PUSH1 0x20 PUSH1 0x4 DUP3 ADD MSTORE PUSH1 0x6 PUSH1 0x24 DUP3 ADD MSTORE PUSH32 0x53565F4C454E0000000000000000000000000000000000000000000000000000 PUSH1 0x44 DUP3 ADD MSTORE REVERT JUMPDEST SWAP1 SWAP3 SWAP2 SWAP3 PUSH2 0x1D7E DUP2 MLOAD ISZERO ISZERO PUSH2 0x191B JUMP JUMPDEST PUSH2 0x1DB9 PUSH2 0xD8E PUSH2 0x1D93 PUSH1 0x0 NOT DUP5 MLOAD ADD DUP5 PUSH2 0x1822 JUMP JUMPDEST MLOAD PUSH32 0xFF00000000000000000000000000000000000000000000000000000000000000 AND SWAP1 JUMP JUMPDEST PUSH1 0x6 PUSH1 0xFF DUP3 AND LT ISZERO PUSH2 0x2445 JUMPI JUMPDEST PUSH1 0xFF AND SWAP4 PUSH2 0x1DD3 DUP6 PUSH2 0x1966 JUMP JUMPDEST PUSH1 0x0 SWAP1 PUSH2 0x1DDF DUP7 PUSH2 0x1966 JUMP JUMPDEST DUP6 ISZERO SWAP6 DUP7 ISZERO DUP8 DUP2 PUSH2 0x2430 JUMPI JUMPDEST DUP9 ISZERO PUSH2 0x230A JUMPI JUMPDEST PUSH2 0x1DFB DUP4 PUSH2 0x1966 JUMP JUMPDEST SWAP1 PUSH2 0x22F7 JUMPI JUMPDEST ISZERO PUSH2 0x1EA3 JUMPI POP POP POP DUP1 PUSH1 0x20 SWAP3 PUSH2 0x1E26 PUSH1 0x0 SWAP4 MLOAD PUSH1 0x41 DUP2 EQ SWAP1 DUP2 ISZERO PUSH2 0x1E98 JUMPI JUMPDEST POP PUSH2 0x1D23 JUMP JUMPDEST PUSH2 0x1E72 PUSH2 0x1E32 DUP4 PUSH2 0x249B JUMP JUMPDEST SWAP3 PUSH2 0x1E4B PUSH2 0xD8E PUSH2 0x1D93 PUSH2 0x1E45 DUP5 PUSH2 0x24EF JUMP JUMPDEST SWAP4 PUSH2 0x1812 JUMP JUMPDEST SWAP4 PUSH1 0x40 MLOAD SWAP5 DUP6 SWAP5 DUP6 SWAP1 SWAP5 SWAP4 SWAP3 PUSH1 0xFF PUSH1 0x60 SWAP4 PUSH1 0x80 DUP5 ADD SWAP8 DUP5 MSTORE AND PUSH1 0x20 DUP4 ADD MSTORE PUSH1 0x40 DUP3 ADD MSTORE ADD MSTORE JUMP JUMPDEST DUP4 DUP1 MSTORE SUB SWAP1 PUSH1 0x1 GAS STATICCALL ISZERO PUSH2 0x115D JUMPI PUSH1 0x0 MLOAD JUMPDEST PUSH2 0x1860 PUSH1 0x1 PUSH1 0x1 PUSH1 0xA0 SHL SUB DUP3 AND ISZERO ISZERO PUSH2 0x1C8D JUMP JUMPDEST PUSH1 0x42 SWAP2 POP EQ CODESIZE PUSH2 0x1E20 JUMP JUMPDEST PUSH2 0x1EAC DUP2 PUSH2 0x1966 JUMP JUMPDEST PUSH1 0x4 DUP2 SUB PUSH2 0x205E JUMPI POP POP POP PUSH2 0x1F0B PUSH2 0x1F4B SWAP3 PUSH1 0x20 PUSH2 0x1EE7 DUP5 PUSH2 0x1ED9 PUSH2 0x1ED3 PUSH1 0x0 SWAP8 MLOAD PUSH2 0xA03 JUMP JUMPDEST DUP3 PUSH2 0x18B8 JUMP JUMPDEST DUP3 DUP1 DUP3 MLOAD DUP4 ADD ADD SWAP2 ADD PUSH2 0x1C61 JUMP JUMPDEST SWAP8 DUP4 SWAP7 DUP10 SWAP4 SWAP9 SWAP5 SWAP3 PUSH17 0x14551231950B75FC4402DA1732FC9BEBE NOT SWAP4 DUP5 SWAP2 MULMOD PUSH2 0xA17 JUMP JUMPDEST SWAP2 PUSH2 0x1F24 PUSH2 0x1F1B DUP3 DUP11 DUP13 MULMOD PUSH2 0xA17 JUMP JUMPDEST SWAP2 DUP5 EQ ISZERO PUSH2 0x1AED JUMP JUMPDEST DUP8 PUSH1 0x40 MLOAD SWAP5 DUP6 SWAP5 DUP6 SWAP1 SWAP5 SWAP4 SWAP3 PUSH1 0xFF PUSH1 0x60 SWAP4 PUSH1 0x80 DUP5 ADD SWAP8 DUP5 MSTORE AND PUSH1 0x20 DUP4 ADD MSTORE PUSH1 0x40 DUP3 ADD MSTORE ADD MSTORE JUMP JUMPDEST DUP4 DUP1 MSTORE SUB SWAP1 PUSH1 0x1 GAS STATICCALL ISZERO PUSH2 0x115D JUMPI PUSH2 0x1FFE PUSH2 0x10ED SWAP4 DUP4 SWAP3 PUSH2 0x2059 SWAP7 PUSH2 0x1FE1 PUSH1 0x0 MLOAD SWAP3 PUSH2 0x1F81 PUSH1 0x1 PUSH1 0x1 PUSH1 0xA0 SHL SUB DUP6 AND ISZERO ISZERO PUSH2 0x1C8D JUMP JUMPDEST PUSH1 0x40 MLOAD SWAP7 DUP8 SWAP4 PUSH1 0x20 DUP6 ADD SWAP6 DUP7 SWAP3 SWAP1 PUSH1 0x55 SWAP5 SWAP3 PUSH32 0xFF00000000000000000000000000000000000000000000000000000000000000 SWAP2 PUSH12 0xFFFFFFFFFFFFFFFFFFFFFFFF NOT SWAP1 PUSH1 0x60 SHL AND DUP6 MSTORE PUSH1 0xF8 SHL AND PUSH1 0x14 DUP5 ADD MSTORE PUSH1 0x15 DUP4 ADD MSTORE PUSH1 0x35 DUP3 ADD MSTORE ADD SWAP1 JUMP JUMPDEST SUB SWAP4 PUSH2 0x1FF5 PUSH1 0x1F NOT SWAP6 DUP7 DUP2 ADD DUP4 MSTORE DUP3 PUSH2 0x89C JUMP JUMPDEST MLOAD SWAP1 KECCAK256 EQ PUSH2 0x1CD8 JUMP JUMPDEST PUSH2 0x204A PUSH1 0x40 MLOAD SWAP2 DUP3 PUSH2 0x203E PUSH1 0x20 DUP3 ADD SWAP6 DUP7 PUSH1 0x27 SWAP2 PUSH32 0x5343484E4F525200000000000000000000000000000000000000000000000000 DUP3 MSTORE PUSH1 0x7 DUP3 ADD MSTORE ADD SWAP1 JUMP JUMPDEST SUB SWAP1 DUP2 ADD DUP4 MSTORE DUP3 PUSH2 0x89C JUMP JUMPDEST MLOAD SWAP1 KECCAK256 PUSH1 0x1 PUSH1 0x1 PUSH1 0xA0 SHL SUB AND SWAP1 JUMP JUMPDEST PUSH2 0x1E84 JUMP JUMPDEST PUSH2 0x206D DUP2 SWAP8 SWAP4 SWAP8 SWAP6 SWAP5 SWAP6 PUSH2 0x1966 JUMP JUMPDEST PUSH1 0x5 DUP2 SUB PUSH2 0x212A JUMPI POP POP POP PUSH2 0x208B PUSH2 0x2085 DUP4 MLOAD PUSH2 0xA03 JUMP JUMPDEST DUP4 PUSH2 0x18B8 JUMP JUMPDEST PUSH2 0x209F PUSH1 0x20 SWAP3 DUP4 DUP1 DUP3 MLOAD DUP4 ADD ADD SWAP2 ADD PUSH2 0x1BCB JUMP JUMPDEST PUSH1 0x0 DUP1 SWAP6 JUMPDEST DUP3 MLOAD DUP8 EQ PUSH2 0x211F JUMPI PUSH2 0x20C2 PUSH1 0x0 PUSH2 0x20BB DUP10 DUP7 PUSH2 0xF3D JUMP JUMPDEST MLOAD DUP7 PUSH2 0x1D6E JUMP JUMPDEST PUSH2 0x2116 JUMPI JUMPDEST PUSH2 0x10ED PUSH2 0x2110 SWAP3 PUSH2 0xE8C PUSH2 0x204A PUSH2 0x210A SWAP5 PUSH1 0x40 MLOAD SWAP3 DUP4 SWAP2 DUP13 DUP4 ADD SWAP6 DUP7 SWAP1 PUSH1 0x28 SWAP3 PUSH12 0xFFFFFFFFFFFFFFFFFFFFFFFF NOT DUP1 SWAP3 PUSH1 0x60 SHL AND DUP4 MSTORE PUSH1 0x60 SHL AND PUSH1 0x14 DUP3 ADD MSTORE ADD SWAP1 JUMP JUMPDEST SWAP7 PUSH2 0xED9 JUMP JUMPDEST SWAP6 PUSH2 0x20A4 JUMP JUMPDEST PUSH1 0x1 SWAP3 POP PUSH2 0x20C7 JUMP JUMPDEST SWAP4 POP SWAP5 POP POP POP PUSH2 0x1E84 JUMP JUMPDEST PUSH2 0x2137 DUP2 SWAP8 SWAP5 SWAP4 SWAP8 PUSH2 0x1966 JUMP JUMPDEST PUSH1 0x2 DUP2 SUB PUSH2 0x21F5 JUMPI POP POP PUSH2 0x219D SWAP2 POP PUSH2 0x2153 PUSH1 0x21 DUP5 MLOAD GT PUSH2 0x1B09 JUMP JUMPDEST PUSH1 0x20 PUSH1 0x1 PUSH1 0x1 PUSH1 0xA0 SHL SUB DUP2 NOT DUP6 MLOAD ADD PUSH2 0x217F PUSH2 0x2178 PUSH2 0x10ED PUSH2 0x10ED PUSH2 0x10ED DUP6 DUP12 PUSH2 0x24FF JUMP JUMPDEST SWAP2 DUP8 PUSH2 0x18B8 JUMP JUMPDEST AND SWAP4 PUSH1 0x40 MLOAD DUP1 SWAP5 DUP2 SWAP3 PUSH4 0xB135D3F PUSH1 0xE1 SHL SWAP6 DUP7 DUP5 MSTORE PUSH1 0x4 DUP5 ADD PUSH2 0x1B69 JUMP JUMPDEST SUB DUP2 DUP7 GAS STATICCALL SWAP2 DUP3 ISZERO PUSH2 0x115D JUMPI PUSH2 0x2059 SWAP3 PUSH1 0x1 PUSH1 0x1 PUSH1 0xE0 SHL SUB NOT SWAP2 PUSH1 0x0 SWAP2 PUSH2 0x21C7 JUMPI JUMPDEST POP AND EQ PUSH2 0x1B80 JUMP JUMPDEST PUSH2 0x21E8 SWAP2 POP PUSH1 0x20 RETURNDATASIZE DUP2 GT PUSH2 0x21EE JUMPI JUMPDEST PUSH2 0x21E0 DUP2 DUP4 PUSH2 0x89C JUMP JUMPDEST DUP2 ADD SWAP1 PUSH2 0x1B54 JUMP JUMPDEST CODESIZE PUSH2 0x21BF JUMP JUMPDEST POP RETURNDATASIZE PUSH2 0x21D6 JUMP JUMPDEST PUSH1 0x3 SWAP2 SWAP3 POP PUSH2 0x2203 DUP2 PUSH2 0x1966 JUMP JUMPDEST EQ SWAP1 DUP2 PUSH2 0x22EF JUMPI JUMPDEST POP ISZERO PUSH2 0x22AA JUMPI PUSH1 0x1 ORIGIN EQ DUP1 ISZERO PUSH2 0x229F JUMPI JUMPDEST PUSH2 0x2225 SWAP1 PUSH2 0x1A57 JUMP JUMPDEST PUSH2 0x2232 PUSH1 0x21 DUP4 MLOAD EQ PUSH2 0x1AA2 JUMP JUMPDEST PUSH2 0x223B DUP3 PUSH2 0x1864 JUMP JUMPDEST PUSH1 0x20 DUP2 PUSH1 0x40 MLOAD DUP1 PUSH2 0x2263 DUP2 SWAP1 PUSH1 0x0 PUSH1 0x60 PUSH1 0x80 DUP5 ADD SWAP4 DUP3 DUP2 MSTORE DUP3 PUSH1 0x20 DUP3 ADD MSTORE DUP3 PUSH1 0x40 DUP3 ADD MSTORE ADD MSTORE JUMP JUMPDEST DUP4 DUP1 MSTORE SUB SWAP1 PUSH1 0x1 GAS STATICCALL ISZERO PUSH2 0x115D JUMPI PUSH2 0x2059 SWAP2 PUSH2 0x2290 PUSH2 0x1B39 PUSH1 0x1 PUSH1 0x1 PUSH1 0xA0 SHL SUB PUSH2 0x10ED SWAP5 MLOAD AND EQ ISZERO PUSH2 0x1AED JUMP JUMPDEST PUSH1 0x20 DUP1 DUP3 MLOAD DUP4 ADD ADD SWAP2 ADD PUSH2 0x1AF4 JUMP JUMPDEST POP ORIGIN PUSH2 0x1B39 EQ PUSH2 0x221C JUMP JUMPDEST PUSH1 0x40 MLOAD PUSH3 0x461BCD PUSH1 0xE5 SHL DUP2 MSTORE PUSH1 0x20 PUSH1 0x4 DUP3 ADD MSTORE PUSH1 0x7 PUSH1 0x24 DUP3 ADD MSTORE PUSH32 0x53565F5459504500000000000000000000000000000000000000000000000000 PUSH1 0x44 DUP3 ADD MSTORE PUSH1 0x64 SWAP1 REVERT JUMPDEST SWAP1 POP CODESIZE PUSH2 0x220B JUMP JUMPDEST POP PUSH2 0x2301 DUP2 PUSH2 0x1966 JUMP JUMPDEST PUSH1 0x1 DUP2 EQ PUSH2 0x1E01 JUMP JUMPDEST SWAP6 PUSH2 0x2313 PUSH2 0x1986 JUMP JUMPDEST PUSH2 0x2427 PUSH2 0x2386 DUP3 MLOAD PUSH1 0x20 DUP1 SWAP5 ADD KECCAK256 PUSH2 0x2329 PUSH2 0x19BF JUMP JUMPDEST DUP1 MLOAD SWAP1 DUP6 ADD KECCAK256 PUSH1 0x40 DUP1 MLOAD PUSH32 0xD87CD6EF79D4E2B95E15CE8ABF732DB51EC771F1CA2EDCCF22A46C729AC56472 DUP2 DUP9 ADD SWAP1 DUP2 MSTORE PUSH1 0x20 DUP2 ADD SWAP5 SWAP1 SWAP5 MSTORE SWAP1 DUP4 ADD SWAP2 SWAP1 SWAP2 MSTORE CHAINID PUSH1 0x60 DUP4 ADD MSTORE ADDRESS PUSH1 0x80 DUP4 ADD MSTORE PUSH1 0x0 PUSH1 0xA0 DUP4 ADD MSTORE SWAP2 DUP3 SWAP1 PUSH1 0xC0 DUP4 ADD SWAP1 JUMP JUMPDEST SUB SWAP2 PUSH2 0x239A PUSH1 0x1F NOT SWAP4 DUP5 DUP2 ADD DUP4 MSTORE DUP3 PUSH2 0x89C JUMP JUMPDEST MLOAD SWAP1 KECCAK256 SWAP4 PUSH2 0x23D4 PUSH2 0x23E0 PUSH2 0x23AC PUSH2 0x19F8 JUMP JUMPDEST DUP1 MLOAD SWAP1 DUP8 ADD KECCAK256 PUSH1 0x40 DUP1 MLOAD DUP1 DUP10 ADD SWAP3 DUP4 MSTORE ADDRESS PUSH1 0x20 DUP5 ADD MSTORE SWAP1 DUP3 ADD SWAP5 SWAP1 SWAP5 MSTORE SWAP3 SWAP2 DUP3 SWAP1 PUSH1 0x60 DUP6 ADD SWAP1 JUMP JUMPDEST SUB DUP5 DUP2 ADD DUP4 MSTORE DUP3 PUSH2 0x89C JUMP JUMPDEST MLOAD SWAP1 KECCAK256 SWAP3 PUSH2 0x203E PUSH1 0x40 MLOAD SWAP5 DUP6 SWAP3 DUP4 ADD SWAP7 DUP8 SWAP1 SWAP2 PUSH1 0x42 SWAP3 PUSH32 0x1901000000000000000000000000000000000000000000000000000000000000 DUP4 MSTORE PUSH1 0x2 DUP4 ADD MSTORE PUSH1 0x22 DUP3 ADD MSTORE ADD SWAP1 JUMP JUMPDEST MLOAD SWAP1 KECCAK256 SWAP6 PUSH2 0x1DF2 JUMP JUMPDEST SWAP8 POP PUSH2 0x243B DUP3 PUSH2 0x1966 JUMP JUMPDEST PUSH1 0x5 DUP3 EQ SWAP8 PUSH2 0x1DEB JUMP JUMPDEST POP DUP1 MLOAD PUSH1 0x41 SUB PUSH2 0x2456 JUMPI PUSH1 0x0 PUSH2 0x1DC6 JUMP JUMPDEST PUSH1 0x40 MLOAD PUSH3 0x461BCD PUSH1 0xE5 SHL DUP2 MSTORE PUSH1 0x20 PUSH1 0x4 DUP3 ADD MSTORE PUSH1 0xA PUSH1 0x24 DUP3 ADD MSTORE PUSH32 0x53565F5349474D4F444500000000000000000000000000000000000000000000 PUSH1 0x44 DUP3 ADD MSTORE PUSH1 0x64 SWAP1 REVERT JUMPDEST PUSH1 0x20 DUP2 MLOAD LT PUSH2 0x24AB JUMPI PUSH1 0x20 ADD MLOAD SWAP1 JUMP JUMPDEST PUSH1 0x64 PUSH1 0x40 MLOAD PUSH3 0x461BCD PUSH1 0xE5 SHL DUP2 MSTORE PUSH1 0x20 PUSH1 0x4 DUP3 ADD MSTORE PUSH1 0x10 PUSH1 0x24 DUP3 ADD MSTORE PUSH32 0x42797465734C69623A206C656E67746800000000000000000000000000000000 PUSH1 0x44 DUP3 ADD MSTORE REVERT JUMPDEST PUSH1 0x40 DUP2 MLOAD LT PUSH2 0x24AB JUMPI PUSH1 0x40 ADD MLOAD SWAP1 JUMP JUMPDEST SWAP1 PUSH1 0x20 DUP2 ADD DUP1 DUP3 GT PUSH2 0xA12 JUMPI DUP3 MLOAD LT PUSH2 0x24AB JUMPI ADD PUSH1 0x20 ADD MLOAD SWAP1 JUMP INVALID LOG2 PUSH5 0x6970667358 0x22 SLT KECCAK256 0xA8 CHAINID JUMPDEST 0xC3 ISZERO PUSH12 0x7C18A1559D2CC13B7EC13F67 0xE5 0xD 0x2C PUSH15 0xFF2767A7BE12AE36C2D464736F6C63 NUMBER STOP ADDMOD SGT STOP CALLER ",
                    "linkReferences": {}
                },
                "methodIdentifiers": {
                    "execute((address,uint256,bytes)[],bytes)": "6171d1c9",
                    "executeBySelf((address,uint256,bytes)[])": "6769de82",
                    "executeBySelfSingle((address,uint256,bytes))": "e6a6332e",
                    "executeBySender((address,uint256,bytes)[])": "abc5345e",
                    "executeMultiple(((address,uint256,bytes)[],bytes)[])": "a2ea6766",
                    "isValidSignature(bytes32,bytes)": "1626ba7e",
                    "nonce()": "affed0e0",
                    "onERC1155BatchReceived(address,address,uint256[],uint256[],bytes)": "bc197c81",
                    "onERC1155Received(address,address,uint256,uint256,bytes)": "f23a6e61",
                    "onERC721Received(address,address,uint256,bytes)": "150b7a02",
                    "privileges(address)": "c066a5b1",
                    "setAddrPrivilege(address,bytes32)": "0d5828d4",
                    "supportsInterface(bytes4)": "01ffc9a7",
                    "tryCatch(address,uint256,bytes)": "bf1cb383",
                    "tryCatchLimit(address,uint256,bytes,uint256)": "3628d042",
                    "validateUserOp((address,uint256,bytes,bytes,bytes32,uint256,bytes32,bytes,bytes),bytes32,uint256)": "19822f7c"
                }
            }
        }
    }
}