{
    "src/AmbireFactory.sol": {
        "AmbireFactory": {
            "abi": [
                {
                    "type": "constructor",
                    "inputs": [
                        {
                            "name": "allowed",
                            "type": "address",
                            "internalType": "address"
                        }
                    ],
                    "stateMutability": "nonpayable"
                },
                {
                    "type": "function",
                    "name": "allowedToDrain",
                    "inputs": [],
                    "outputs": [
                        {
                            "name": "",
                            "type": "address",
                            "internalType": "address"
                        }
                    ],
                    "stateMutability": "view"
                },
                {
                    "type": "function",
                    "name": "call",
                    "inputs": [
                        {
                            "name": "to",
                            "type": "address",
                            "internalType": "address"
                        },
                        {
                            "name": "value",
                            "type": "uint256",
                            "internalType": "uint256"
                        },
                        {
                            "name": "data",
                            "type": "bytes",
                            "internalType": "bytes"
                        },
                        {
                            "name": "gas",
                            "type": "uint256",
                            "internalType": "uint256"
                        }
                    ],
                    "outputs": [],
                    "stateMutability": "nonpayable"
                },
                {
                    "type": "function",
                    "name": "deploy",
                    "inputs": [
                        {
                            "name": "code",
                            "type": "bytes",
                            "internalType": "bytes"
                        },
                        {
                            "name": "salt",
                            "type": "uint256",
                            "internalType": "uint256"
                        }
                    ],
                    "outputs": [
                        {
                            "name": "",
                            "type": "address",
                            "internalType": "address"
                        }
                    ],
                    "stateMutability": "nonpayable"
                },
                {
                    "type": "function",
                    "name": "deployAndExecute",
                    "inputs": [
                        {
                            "name": "code",
                            "type": "bytes",
                            "internalType": "bytes"
                        },
                        {
                            "name": "salt",
                            "type": "uint256",
                            "internalType": "uint256"
                        },
                        {
                            "name": "txns",
                            "type": "tuple[]",
                            "internalType": "struct Transaction[]",
                            "components": [
                                {
                                    "name": "to",
                                    "type": "address",
                                    "internalType": "address"
                                },
                                {
                                    "name": "value",
                                    "type": "uint256",
                                    "internalType": "uint256"
                                },
                                {
                                    "name": "data",
                                    "type": "bytes",
                                    "internalType": "bytes"
                                }
                            ]
                        },
                        {
                            "name": "signature",
                            "type": "bytes",
                            "internalType": "bytes"
                        }
                    ],
                    "outputs": [
                        {
                            "name": "",
                            "type": "address",
                            "internalType": "address"
                        }
                    ],
                    "stateMutability": "nonpayable"
                },
                {
                    "type": "function",
                    "name": "deployAndExecuteMultiple",
                    "inputs": [
                        {
                            "name": "code",
                            "type": "bytes",
                            "internalType": "bytes"
                        },
                        {
                            "name": "salt",
                            "type": "uint256",
                            "internalType": "uint256"
                        },
                        {
                            "name": "toExec",
                            "type": "tuple[]",
                            "internalType": "struct IAmbireAccount.ExecuteArgs[]",
                            "components": [
                                {
                                    "name": "calls",
                                    "type": "tuple[]",
                                    "internalType": "struct Transaction[]",
                                    "components": [
                                        {
                                            "name": "to",
                                            "type": "address",
                                            "internalType": "address"
                                        },
                                        {
                                            "name": "value",
                                            "type": "uint256",
                                            "internalType": "uint256"
                                        },
                                        {
                                            "name": "data",
                                            "type": "bytes",
                                            "internalType": "bytes"
                                        }
                                    ]
                                },
                                {
                                    "name": "signature",
                                    "type": "bytes",
                                    "internalType": "bytes"
                                }
                            ]
                        }
                    ],
                    "outputs": [
                        {
                            "name": "",
                            "type": "address",
                            "internalType": "address"
                        }
                    ],
                    "stateMutability": "nonpayable"
                },
                {
                    "type": "event",
                    "name": "LogDeployed",
                    "inputs": [
                        {
                            "name": "addr",
                            "type": "address",
                            "indexed": false,
                            "internalType": "address"
                        },
                        {
                            "name": "salt",
                            "type": "uint256",
                            "indexed": false,
                            "internalType": "uint256"
                        }
                    ],
                    "anonymous": false
                }
            ],
            "userdoc": {},
            "devdoc": {},
            "evm": {
                "bytecode": {
                    "object": "60a03461007157601f610ad338819003918201601f19168301916001600160401b038311848410176100765780849260209460405283398101031261007157516001600160a01b038116810361007157608052604051610a46908161008d823960805181818161026201526103690152f35b600080fd5b634e487b7160e01b600052604160045260246000fdfe60406080815260048036101561001457600080fd5b600090813560e01c9283631ce6236f146102475783631e86da2a1461006a5750505080634e4a0c82146100655780639c4ae2d0146100605763a35aa2731461005b57600080fd5b610486565b61042f565b610324565b3461024057600319926080368501126102445767ffffffffffffffff83358181116102405761009c903690860161029b565b959060443583811161023c576100b590369088016102c9565b91909360643590811161023857916100f893916100da6100f3999a9436908c0161029b565b9590946001600160a01b039a8b93602435923691610765565b61090c565b1697883b15610234579481889a959493929a519a8b967f6171d1c90000000000000000000000000000000000000000000000000000000088528a604489019189015252606486019160648260051b8801019781938a925b8c8585106101c5575050505050505091849161017493858097030160248601526107ce565b038183865af19283156101c0576101a3936101a7575b50516001600160a01b0390911681529081906020820190565b0390f35b806101b46101ba926106f2565b8061028b565b8361018a565b610803565b610220879c6101eb600195979961020f9597999b9c9d9e606319908403018952876107ef565b92886101f685610310565b168252602094848680960135868501528281019061079c565b9190926060809282015201916107ce565b9b019301940191938d98979695939161014f565b8680fd5b8580fd5b8480fd5b8280fd5b80fd5b82346102445780600319360112610244576001600160a01b037f00000000000000000000000000000000000000000000000000000000000000001660805260206080f35b600091031261029657565b600080fd5b9181601f840112156102965782359167ffffffffffffffff8311610296576020838186019501011161029657565b9181601f840112156102965782359167ffffffffffffffff8311610296576020808501948460051b01011161029657565b600435906001600160a01b038216820361029657565b35906001600160a01b038216820361029657565b346102965760803660031901126102965761033d6102fa565b60443567ffffffffffffffff81116102965761035d90369060040161029b565b91906001600160a01b037f00000000000000000000000000000000000000000000000000000000000000001633036103eb576103e09183604051948593843782019060009485938385809552039160243590606435f13d156103e3573d906103c482610749565b916103d26040519384610727565b82523d84602084013e61080f565b80f35b60609061080f565b606460405162461bcd60e51b815260206004820152600f60248201527f4f4e4c595f415554484f52495a454400000000000000000000000000000000006044820152fd5b346102965760403660031901126102965760043567ffffffffffffffff8111610296576104756100f3610468602093369060040161029b565b9190602435923691610765565b6001600160a01b0360405191168152f35b346102965760603660031901126102965760043567ffffffffffffffff8111610296576104b790369060040161029b565b6044359067ffffffffffffffff8211610296576104f56001600160a01b03916104e76100f39436906004016102c9565b949095602435923691610765565b1690813b1561029657916040519283917fa2ea676600000000000000000000000000000000000000000000000000000000835281602484016020600486015252604483019060448360051b8501019281926000905b82821061059c578688600082808a038183855af19182156101c0576101a392610589575b506040516001600160a01b0390911681529081906020820190565b806101b4610596926106f2565b8261056e565b919395509193604319888203018252853590603e1986360301821215610296578186018035903603601e190181121561029657868301019167ffffffffffffffff83351161029657823560051b8036036020850113610296579260408352604083018135905260608084019484010193602082019160005b8135811061065a575050505061064860019360209361063b848b878181980101910161079c565b91858185039101526107ce565b9701920192018795949293919361054a565b909192956020806106b7600193605f198a820301885260606106a76106818d868b016107ef565b6001600160a01b0361069282610310565b1684528581013586850152604081019061079c565b91909281604082015201916107ce565b98019401929101610614565b7f4e487b7100000000000000000000000000000000000000000000000000000000600052604160045260246000fd5b67ffffffffffffffff811161070657604052565b6106c3565b6080810190811067ffffffffffffffff82111761070657604052565b90601f8019910116810190811067ffffffffffffffff82111761070657604052565b67ffffffffffffffff811161070657601f01601f191660200190565b92919261077182610749565b9161077f6040519384610727565b829481845281830111610296578281602093846000960137010152565b9035601e198236030181121561029657016020813591019167ffffffffffffffff821161029657813603831361029657565b908060209392818452848401376000828201840152601f01601f1916010190565b9035605e1982360301811215610296570190565b6040513d6000823e3d90fd5b156108175750565b6040519062461bcd60e51b82528160208060048301528251908160248401526000935b82851061085d575050604492506000838284010152601f80199101168101030190fd5b848101820151868601604401529381019385935061083a565b1561087d57565b606460405162461bcd60e51b815260206004820152601060248201527f4641494c45445f4445504c4f59494e47000000000000000000000000000000006044820152fd5b156108c857565b606460405162461bcd60e51b815260206004820152600c60248201527f4641494c45445f4d4154434800000000000000000000000000000000000000006044820152fd5b908151906109936109876020850193842060405160208101917fff0000000000000000000000000000000000000000000000000000000000000083526bffffffffffffffffffffffff193060601b1660218301528560358301526055820152605581526109788161070b565b5190206001600160a01b031690565b6001600160a01b031690565b92833b156109a2575b50505090565b7fecef66cbb4d4c8dd18157def75d46290ddc298395ea46f7ff64321c1a912cbad92829151906000f56109ed6001600160a01b03808316906109e5821515610876565b8616146108c1565b604080516001600160a01b039290921682526020820192909252a138808061099c56fea2646970667358221220c7d9ce1218bf3ad230657a1e1f9320da4edad1bd522cac789c1d415fd5c5fa7d64736f6c63430008130033",
                    "opcodes": "PUSH1 0xA0 CALLVALUE PUSH2 0x71 JUMPI PUSH1 0x1F PUSH2 0xAD3 CODESIZE DUP2 SWAP1 SUB SWAP2 DUP3 ADD PUSH1 0x1F NOT AND DUP4 ADD SWAP2 PUSH1 0x1 PUSH1 0x1 PUSH1 0x40 SHL SUB DUP4 GT DUP5 DUP5 LT OR PUSH2 0x76 JUMPI DUP1 DUP5 SWAP3 PUSH1 0x20 SWAP5 PUSH1 0x40 MSTORE DUP4 CODECOPY DUP2 ADD SUB SLT PUSH2 0x71 JUMPI MLOAD PUSH1 0x1 PUSH1 0x1 PUSH1 0xA0 SHL SUB DUP2 AND DUP2 SUB PUSH2 0x71 JUMPI PUSH1 0x80 MSTORE PUSH1 0x40 MLOAD PUSH2 0xA46 SWAP1 DUP2 PUSH2 0x8D DUP3 CODECOPY PUSH1 0x80 MLOAD DUP2 DUP2 DUP2 PUSH2 0x262 ADD MSTORE PUSH2 0x369 ADD MSTORE RETURN JUMPDEST PUSH1 0x0 DUP1 REVERT JUMPDEST PUSH4 0x4E487B71 PUSH1 0xE0 SHL PUSH1 0x0 MSTORE PUSH1 0x41 PUSH1 0x4 MSTORE PUSH1 0x24 PUSH1 0x0 REVERT INVALID PUSH1 0x40 PUSH1 0x80 DUP2 MSTORE PUSH1 0x4 DUP1 CALLDATASIZE LT ISZERO PUSH2 0x14 JUMPI PUSH1 0x0 DUP1 REVERT JUMPDEST PUSH1 0x0 SWAP1 DUP2 CALLDATALOAD PUSH1 0xE0 SHR SWAP3 DUP4 PUSH4 0x1CE6236F EQ PUSH2 0x247 JUMPI DUP4 PUSH4 0x1E86DA2A EQ PUSH2 0x6A JUMPI POP POP POP DUP1 PUSH4 0x4E4A0C82 EQ PUSH2 0x65 JUMPI DUP1 PUSH4 0x9C4AE2D0 EQ PUSH2 0x60 JUMPI PUSH4 0xA35AA273 EQ PUSH2 0x5B JUMPI PUSH1 0x0 DUP1 REVERT JUMPDEST PUSH2 0x486 JUMP JUMPDEST PUSH2 0x42F JUMP JUMPDEST PUSH2 0x324 JUMP JUMPDEST CALLVALUE PUSH2 0x240 JUMPI PUSH1 0x3 NOT SWAP3 PUSH1 0x80 CALLDATASIZE DUP6 ADD SLT PUSH2 0x244 JUMPI PUSH8 0xFFFFFFFFFFFFFFFF DUP4 CALLDATALOAD DUP2 DUP2 GT PUSH2 0x240 JUMPI PUSH2 0x9C SWAP1 CALLDATASIZE SWAP1 DUP7 ADD PUSH2 0x29B JUMP JUMPDEST SWAP6 SWAP1 PUSH1 0x44 CALLDATALOAD DUP4 DUP2 GT PUSH2 0x23C JUMPI PUSH2 0xB5 SWAP1 CALLDATASIZE SWAP1 DUP9 ADD PUSH2 0x2C9 JUMP JUMPDEST SWAP2 SWAP1 SWAP4 PUSH1 0x64 CALLDATALOAD SWAP1 DUP2 GT PUSH2 0x238 JUMPI SWAP2 PUSH2 0xF8 SWAP4 SWAP2 PUSH2 0xDA PUSH2 0xF3 SWAP10 SWAP11 SWAP5 CALLDATASIZE SWAP1 DUP13 ADD PUSH2 0x29B JUMP JUMPDEST SWAP6 SWAP1 SWAP5 PUSH1 0x1 PUSH1 0x1 PUSH1 0xA0 SHL SUB SWAP11 DUP12 SWAP4 PUSH1 0x24 CALLDATALOAD SWAP3 CALLDATASIZE SWAP2 PUSH2 0x765 JUMP JUMPDEST PUSH2 0x90C JUMP JUMPDEST AND SWAP8 DUP9 EXTCODESIZE ISZERO PUSH2 0x234 JUMPI SWAP5 DUP2 DUP9 SWAP11 SWAP6 SWAP5 SWAP4 SWAP3 SWAP11 MLOAD SWAP11 DUP12 SWAP7 PUSH32 0x6171D1C900000000000000000000000000000000000000000000000000000000 DUP9 MSTORE DUP11 PUSH1 0x44 DUP10 ADD SWAP2 DUP10 ADD MSTORE MSTORE PUSH1 0x64 DUP7 ADD SWAP2 PUSH1 0x64 DUP3 PUSH1 0x5 SHL DUP9 ADD ADD SWAP8 DUP2 SWAP4 DUP11 SWAP3 JUMPDEST DUP13 DUP6 DUP6 LT PUSH2 0x1C5 JUMPI POP POP POP POP POP POP POP SWAP2 DUP5 SWAP2 PUSH2 0x174 SWAP4 DUP6 DUP1 SWAP8 SUB ADD PUSH1 0x24 DUP7 ADD MSTORE PUSH2 0x7CE JUMP JUMPDEST SUB DUP2 DUP4 DUP7 GAS CALL SWAP3 DUP4 ISZERO PUSH2 0x1C0 JUMPI PUSH2 0x1A3 SWAP4 PUSH2 0x1A7 JUMPI JUMPDEST POP MLOAD PUSH1 0x1 PUSH1 0x1 PUSH1 0xA0 SHL SUB SWAP1 SWAP2 AND DUP2 MSTORE SWAP1 DUP2 SWAP1 PUSH1 0x20 DUP3 ADD SWAP1 JUMP JUMPDEST SUB SWAP1 RETURN JUMPDEST DUP1 PUSH2 0x1B4 PUSH2 0x1BA SWAP3 PUSH2 0x6F2 JUMP JUMPDEST DUP1 PUSH2 0x28B JUMP JUMPDEST DUP4 PUSH2 0x18A JUMP JUMPDEST PUSH2 0x803 JUMP JUMPDEST PUSH2 0x220 DUP8 SWAP13 PUSH2 0x1EB PUSH1 0x1 SWAP6 SWAP8 SWAP10 PUSH2 0x20F SWAP6 SWAP8 SWAP10 SWAP12 SWAP13 SWAP14 SWAP15 PUSH1 0x63 NOT SWAP1 DUP5 SUB ADD DUP10 MSTORE DUP8 PUSH2 0x7EF JUMP JUMPDEST SWAP3 DUP9 PUSH2 0x1F6 DUP6 PUSH2 0x310 JUMP JUMPDEST AND DUP3 MSTORE PUSH1 0x20 SWAP5 DUP5 DUP7 DUP1 SWAP7 ADD CALLDATALOAD DUP7 DUP6 ADD MSTORE DUP3 DUP2 ADD SWAP1 PUSH2 0x79C JUMP JUMPDEST SWAP2 SWAP1 SWAP3 PUSH1 0x60 DUP1 SWAP3 DUP3 ADD MSTORE ADD SWAP2 PUSH2 0x7CE JUMP JUMPDEST SWAP12 ADD SWAP4 ADD SWAP5 ADD SWAP2 SWAP4 DUP14 SWAP9 SWAP8 SWAP7 SWAP6 SWAP4 SWAP2 PUSH2 0x14F JUMP JUMPDEST DUP7 DUP1 REVERT JUMPDEST DUP6 DUP1 REVERT JUMPDEST DUP5 DUP1 REVERT JUMPDEST DUP3 DUP1 REVERT JUMPDEST DUP1 REVERT JUMPDEST DUP3 CALLVALUE PUSH2 0x244 JUMPI DUP1 PUSH1 0x3 NOT CALLDATASIZE ADD SLT PUSH2 0x244 JUMPI PUSH1 0x1 PUSH1 0x1 PUSH1 0xA0 SHL SUB PUSH32 0x0 AND PUSH1 0x80 MSTORE PUSH1 0x20 PUSH1 0x80 RETURN JUMPDEST PUSH1 0x0 SWAP2 SUB SLT PUSH2 0x296 JUMPI JUMP JUMPDEST PUSH1 0x0 DUP1 REVERT JUMPDEST SWAP2 DUP2 PUSH1 0x1F DUP5 ADD SLT ISZERO PUSH2 0x296 JUMPI DUP3 CALLDATALOAD SWAP2 PUSH8 0xFFFFFFFFFFFFFFFF DUP4 GT PUSH2 0x296 JUMPI PUSH1 0x20 DUP4 DUP2 DUP7 ADD SWAP6 ADD ADD GT PUSH2 0x296 JUMPI JUMP JUMPDEST SWAP2 DUP2 PUSH1 0x1F DUP5 ADD SLT ISZERO PUSH2 0x296 JUMPI DUP3 CALLDATALOAD SWAP2 PUSH8 0xFFFFFFFFFFFFFFFF DUP4 GT PUSH2 0x296 JUMPI PUSH1 0x20 DUP1 DUP6 ADD SWAP5 DUP5 PUSH1 0x5 SHL ADD ADD GT PUSH2 0x296 JUMPI JUMP JUMPDEST PUSH1 0x4 CALLDATALOAD SWAP1 PUSH1 0x1 PUSH1 0x1 PUSH1 0xA0 SHL SUB DUP3 AND DUP3 SUB PUSH2 0x296 JUMPI JUMP JUMPDEST CALLDATALOAD SWAP1 PUSH1 0x1 PUSH1 0x1 PUSH1 0xA0 SHL SUB DUP3 AND DUP3 SUB PUSH2 0x296 JUMPI JUMP JUMPDEST CALLVALUE PUSH2 0x296 JUMPI PUSH1 0x80 CALLDATASIZE PUSH1 0x3 NOT ADD SLT PUSH2 0x296 JUMPI PUSH2 0x33D PUSH2 0x2FA JUMP JUMPDEST PUSH1 0x44 CALLDATALOAD PUSH8 0xFFFFFFFFFFFFFFFF DUP2 GT PUSH2 0x296 JUMPI PUSH2 0x35D SWAP1 CALLDATASIZE SWAP1 PUSH1 0x4 ADD PUSH2 0x29B JUMP JUMPDEST SWAP2 SWAP1 PUSH1 0x1 PUSH1 0x1 PUSH1 0xA0 SHL SUB PUSH32 0x0 AND CALLER SUB PUSH2 0x3EB JUMPI PUSH2 0x3E0 SWAP2 DUP4 PUSH1 0x40 MLOAD SWAP5 DUP6 SWAP4 DUP5 CALLDATACOPY DUP3 ADD SWAP1 PUSH1 0x0 SWAP5 DUP6 SWAP4 DUP4 DUP6 DUP1 SWAP6 MSTORE SUB SWAP2 PUSH1 0x24 CALLDATALOAD SWAP1 PUSH1 0x64 CALLDATALOAD CALL RETURNDATASIZE ISZERO PUSH2 0x3E3 JUMPI RETURNDATASIZE SWAP1 PUSH2 0x3C4 DUP3 PUSH2 0x749 JUMP JUMPDEST SWAP2 PUSH2 0x3D2 PUSH1 0x40 MLOAD SWAP4 DUP5 PUSH2 0x727 JUMP JUMPDEST DUP3 MSTORE RETURNDATASIZE DUP5 PUSH1 0x20 DUP5 ADD RETURNDATACOPY PUSH2 0x80F JUMP JUMPDEST DUP1 RETURN JUMPDEST PUSH1 0x60 SWAP1 PUSH2 0x80F JUMP JUMPDEST PUSH1 0x64 PUSH1 0x40 MLOAD PUSH3 0x461BCD PUSH1 0xE5 SHL DUP2 MSTORE PUSH1 0x20 PUSH1 0x4 DUP3 ADD MSTORE PUSH1 0xF PUSH1 0x24 DUP3 ADD MSTORE PUSH32 0x4F4E4C595F415554484F52495A45440000000000000000000000000000000000 PUSH1 0x44 DUP3 ADD MSTORE REVERT JUMPDEST CALLVALUE PUSH2 0x296 JUMPI PUSH1 0x40 CALLDATASIZE PUSH1 0x3 NOT ADD SLT PUSH2 0x296 JUMPI PUSH1 0x4 CALLDATALOAD PUSH8 0xFFFFFFFFFFFFFFFF DUP2 GT PUSH2 0x296 JUMPI PUSH2 0x475 PUSH2 0xF3 PUSH2 0x468 PUSH1 0x20 SWAP4 CALLDATASIZE SWAP1 PUSH1 0x4 ADD PUSH2 0x29B JUMP JUMPDEST SWAP2 SWAP1 PUSH1 0x24 CALLDATALOAD SWAP3 CALLDATASIZE SWAP2 PUSH2 0x765 JUMP JUMPDEST PUSH1 0x1 PUSH1 0x1 PUSH1 0xA0 SHL SUB PUSH1 0x40 MLOAD SWAP2 AND DUP2 MSTORE RETURN JUMPDEST CALLVALUE PUSH2 0x296 JUMPI PUSH1 0x60 CALLDATASIZE PUSH1 0x3 NOT ADD SLT PUSH2 0x296 JUMPI PUSH1 0x4 CALLDATALOAD PUSH8 0xFFFFFFFFFFFFFFFF DUP2 GT PUSH2 0x296 JUMPI PUSH2 0x4B7 SWAP1 CALLDATASIZE SWAP1 PUSH1 0x4 ADD PUSH2 0x29B JUMP JUMPDEST PUSH1 0x44 CALLDATALOAD SWAP1 PUSH8 0xFFFFFFFFFFFFFFFF DUP3 GT PUSH2 0x296 JUMPI PUSH2 0x4F5 PUSH1 0x1 PUSH1 0x1 PUSH1 0xA0 SHL SUB SWAP2 PUSH2 0x4E7 PUSH2 0xF3 SWAP5 CALLDATASIZE SWAP1 PUSH1 0x4 ADD PUSH2 0x2C9 JUMP JUMPDEST SWAP5 SWAP1 SWAP6 PUSH1 0x24 CALLDATALOAD SWAP3 CALLDATASIZE SWAP2 PUSH2 0x765 JUMP JUMPDEST AND SWAP1 DUP2 EXTCODESIZE ISZERO PUSH2 0x296 JUMPI SWAP2 PUSH1 0x40 MLOAD SWAP3 DUP4 SWAP2 PUSH32 0xA2EA676600000000000000000000000000000000000000000000000000000000 DUP4 MSTORE DUP2 PUSH1 0x24 DUP5 ADD PUSH1 0x20 PUSH1 0x4 DUP7 ADD MSTORE MSTORE PUSH1 0x44 DUP4 ADD SWAP1 PUSH1 0x44 DUP4 PUSH1 0x5 SHL DUP6 ADD ADD SWAP3 DUP2 SWAP3 PUSH1 0x0 SWAP1 JUMPDEST DUP3 DUP3 LT PUSH2 0x59C JUMPI DUP7 DUP9 PUSH1 0x0 DUP3 DUP1 DUP11 SUB DUP2 DUP4 DUP6 GAS CALL SWAP2 DUP3 ISZERO PUSH2 0x1C0 JUMPI PUSH2 0x1A3 SWAP3 PUSH2 0x589 JUMPI JUMPDEST POP PUSH1 0x40 MLOAD PUSH1 0x1 PUSH1 0x1 PUSH1 0xA0 SHL SUB SWAP1 SWAP2 AND DUP2 MSTORE SWAP1 DUP2 SWAP1 PUSH1 0x20 DUP3 ADD SWAP1 JUMP JUMPDEST DUP1 PUSH2 0x1B4 PUSH2 0x596 SWAP3 PUSH2 0x6F2 JUMP JUMPDEST DUP3 PUSH2 0x56E JUMP JUMPDEST SWAP2 SWAP4 SWAP6 POP SWAP2 SWAP4 PUSH1 0x43 NOT DUP9 DUP3 SUB ADD DUP3 MSTORE DUP6 CALLDATALOAD SWAP1 PUSH1 0x3E NOT DUP7 CALLDATASIZE SUB ADD DUP3 SLT ISZERO PUSH2 0x296 JUMPI DUP2 DUP7 ADD DUP1 CALLDATALOAD SWAP1 CALLDATASIZE SUB PUSH1 0x1E NOT ADD DUP2 SLT ISZERO PUSH2 0x296 JUMPI DUP7 DUP4 ADD ADD SWAP2 PUSH8 0xFFFFFFFFFFFFFFFF DUP4 CALLDATALOAD GT PUSH2 0x296 JUMPI DUP3 CALLDATALOAD PUSH1 0x5 SHL DUP1 CALLDATASIZE SUB PUSH1 0x20 DUP6 ADD SGT PUSH2 0x296 JUMPI SWAP3 PUSH1 0x40 DUP4 MSTORE PUSH1 0x40 DUP4 ADD DUP2 CALLDATALOAD SWAP1 MSTORE PUSH1 0x60 DUP1 DUP5 ADD SWAP5 DUP5 ADD ADD SWAP4 PUSH1 0x20 DUP3 ADD SWAP2 PUSH1 0x0 JUMPDEST DUP2 CALLDATALOAD DUP2 LT PUSH2 0x65A JUMPI POP POP POP POP PUSH2 0x648 PUSH1 0x1 SWAP4 PUSH1 0x20 SWAP4 PUSH2 0x63B DUP5 DUP12 DUP8 DUP2 DUP2 SWAP9 ADD ADD SWAP2 ADD PUSH2 0x79C JUMP JUMPDEST SWAP2 DUP6 DUP2 DUP6 SUB SWAP2 ADD MSTORE PUSH2 0x7CE JUMP JUMPDEST SWAP8 ADD SWAP3 ADD SWAP3 ADD DUP8 SWAP6 SWAP5 SWAP3 SWAP4 SWAP2 SWAP4 PUSH2 0x54A JUMP JUMPDEST SWAP1 SWAP2 SWAP3 SWAP6 PUSH1 0x20 DUP1 PUSH2 0x6B7 PUSH1 0x1 SWAP4 PUSH1 0x5F NOT DUP11 DUP3 SUB ADD DUP9 MSTORE PUSH1 0x60 PUSH2 0x6A7 PUSH2 0x681 DUP14 DUP7 DUP12 ADD PUSH2 0x7EF JUMP JUMPDEST PUSH1 0x1 PUSH1 0x1 PUSH1 0xA0 SHL SUB PUSH2 0x692 DUP3 PUSH2 0x310 JUMP JUMPDEST AND DUP5 MSTORE DUP6 DUP2 ADD CALLDATALOAD DUP7 DUP6 ADD MSTORE PUSH1 0x40 DUP2 ADD SWAP1 PUSH2 0x79C JUMP JUMPDEST SWAP2 SWAP1 SWAP3 DUP2 PUSH1 0x40 DUP3 ADD MSTORE ADD SWAP2 PUSH2 0x7CE JUMP JUMPDEST SWAP9 ADD SWAP5 ADD SWAP3 SWAP2 ADD PUSH2 0x614 JUMP JUMPDEST PUSH32 0x4E487B7100000000000000000000000000000000000000000000000000000000 PUSH1 0x0 MSTORE PUSH1 0x41 PUSH1 0x4 MSTORE PUSH1 0x24 PUSH1 0x0 REVERT JUMPDEST PUSH8 0xFFFFFFFFFFFFFFFF DUP2 GT PUSH2 0x706 JUMPI PUSH1 0x40 MSTORE JUMP JUMPDEST PUSH2 0x6C3 JUMP JUMPDEST PUSH1 0x80 DUP2 ADD SWAP1 DUP2 LT PUSH8 0xFFFFFFFFFFFFFFFF DUP3 GT OR PUSH2 0x706 JUMPI PUSH1 0x40 MSTORE JUMP JUMPDEST SWAP1 PUSH1 0x1F DUP1 NOT SWAP2 ADD AND DUP2 ADD SWAP1 DUP2 LT PUSH8 0xFFFFFFFFFFFFFFFF DUP3 GT OR PUSH2 0x706 JUMPI PUSH1 0x40 MSTORE JUMP JUMPDEST PUSH8 0xFFFFFFFFFFFFFFFF DUP2 GT PUSH2 0x706 JUMPI PUSH1 0x1F ADD PUSH1 0x1F NOT AND PUSH1 0x20 ADD SWAP1 JUMP JUMPDEST SWAP3 SWAP2 SWAP3 PUSH2 0x771 DUP3 PUSH2 0x749 JUMP JUMPDEST SWAP2 PUSH2 0x77F PUSH1 0x40 MLOAD SWAP4 DUP5 PUSH2 0x727 JUMP JUMPDEST DUP3 SWAP5 DUP2 DUP5 MSTORE DUP2 DUP4 ADD GT PUSH2 0x296 JUMPI DUP3 DUP2 PUSH1 0x20 SWAP4 DUP5 PUSH1 0x0 SWAP7 ADD CALLDATACOPY ADD ADD MSTORE JUMP JUMPDEST SWAP1 CALLDATALOAD PUSH1 0x1E NOT DUP3 CALLDATASIZE SUB ADD DUP2 SLT ISZERO PUSH2 0x296 JUMPI ADD PUSH1 0x20 DUP2 CALLDATALOAD SWAP2 ADD SWAP2 PUSH8 0xFFFFFFFFFFFFFFFF DUP3 GT PUSH2 0x296 JUMPI DUP2 CALLDATASIZE SUB DUP4 SGT PUSH2 0x296 JUMPI JUMP JUMPDEST SWAP1 DUP1 PUSH1 0x20 SWAP4 SWAP3 DUP2 DUP5 MSTORE DUP5 DUP5 ADD CALLDATACOPY PUSH1 0x0 DUP3 DUP3 ADD DUP5 ADD MSTORE PUSH1 0x1F ADD PUSH1 0x1F NOT AND ADD ADD SWAP1 JUMP JUMPDEST SWAP1 CALLDATALOAD PUSH1 0x5E NOT DUP3 CALLDATASIZE SUB ADD DUP2 SLT ISZERO PUSH2 0x296 JUMPI ADD SWAP1 JUMP JUMPDEST PUSH1 0x40 MLOAD RETURNDATASIZE PUSH1 0x0 DUP3 RETURNDATACOPY RETURNDATASIZE SWAP1 REVERT JUMPDEST ISZERO PUSH2 0x817 JUMPI POP JUMP JUMPDEST PUSH1 0x40 MLOAD SWAP1 PUSH3 0x461BCD PUSH1 0xE5 SHL DUP3 MSTORE DUP2 PUSH1 0x20 DUP1 PUSH1 0x4 DUP4 ADD MSTORE DUP3 MLOAD SWAP1 DUP2 PUSH1 0x24 DUP5 ADD MSTORE PUSH1 0x0 SWAP4 JUMPDEST DUP3 DUP6 LT PUSH2 0x85D JUMPI POP POP PUSH1 0x44 SWAP3 POP PUSH1 0x0 DUP4 DUP3 DUP5 ADD ADD MSTORE PUSH1 0x1F DUP1 NOT SWAP2 ADD AND DUP2 ADD SUB ADD SWAP1 REVERT JUMPDEST DUP5 DUP2 ADD DUP3 ADD MLOAD DUP7 DUP7 ADD PUSH1 0x44 ADD MSTORE SWAP4 DUP2 ADD SWAP4 DUP6 SWAP4 POP PUSH2 0x83A JUMP JUMPDEST ISZERO PUSH2 0x87D JUMPI JUMP JUMPDEST PUSH1 0x64 PUSH1 0x40 MLOAD PUSH3 0x461BCD PUSH1 0xE5 SHL DUP2 MSTORE PUSH1 0x20 PUSH1 0x4 DUP3 ADD MSTORE PUSH1 0x10 PUSH1 0x24 DUP3 ADD MSTORE PUSH32 0x4641494C45445F4445504C4F59494E4700000000000000000000000000000000 PUSH1 0x44 DUP3 ADD MSTORE REVERT JUMPDEST ISZERO PUSH2 0x8C8 JUMPI JUMP JUMPDEST PUSH1 0x64 PUSH1 0x40 MLOAD PUSH3 0x461BCD PUSH1 0xE5 SHL DUP2 MSTORE PUSH1 0x20 PUSH1 0x4 DUP3 ADD MSTORE PUSH1 0xC PUSH1 0x24 DUP3 ADD MSTORE PUSH32 0x4641494C45445F4D415443480000000000000000000000000000000000000000 PUSH1 0x44 DUP3 ADD MSTORE REVERT JUMPDEST SWAP1 DUP2 MLOAD SWAP1 PUSH2 0x993 PUSH2 0x987 PUSH1 0x20 DUP6 ADD SWAP4 DUP5 KECCAK256 PUSH1 0x40 MLOAD PUSH1 0x20 DUP2 ADD SWAP2 PUSH32 0xFF00000000000000000000000000000000000000000000000000000000000000 DUP4 MSTORE PUSH12 0xFFFFFFFFFFFFFFFFFFFFFFFF NOT ADDRESS PUSH1 0x60 SHL AND PUSH1 0x21 DUP4 ADD MSTORE DUP6 PUSH1 0x35 DUP4 ADD MSTORE PUSH1 0x55 DUP3 ADD MSTORE PUSH1 0x55 DUP2 MSTORE PUSH2 0x978 DUP2 PUSH2 0x70B JUMP JUMPDEST MLOAD SWAP1 KECCAK256 PUSH1 0x1 PUSH1 0x1 PUSH1 0xA0 SHL SUB AND SWAP1 JUMP JUMPDEST PUSH1 0x1 PUSH1 0x1 PUSH1 0xA0 SHL SUB AND SWAP1 JUMP JUMPDEST SWAP3 DUP4 EXTCODESIZE ISZERO PUSH2 0x9A2 JUMPI JUMPDEST POP POP POP SWAP1 JUMP JUMPDEST PUSH32 0xECEF66CBB4D4C8DD18157DEF75D46290DDC298395EA46F7FF64321C1A912CBAD SWAP3 DUP3 SWAP2 MLOAD SWAP1 PUSH1 0x0 CREATE2 PUSH2 0x9ED PUSH1 0x1 PUSH1 0x1 PUSH1 0xA0 SHL SUB DUP1 DUP4 AND SWAP1 PUSH2 0x9E5 DUP3 ISZERO ISZERO PUSH2 0x876 JUMP JUMPDEST DUP7 AND EQ PUSH2 0x8C1 JUMP JUMPDEST PUSH1 0x40 DUP1 MLOAD PUSH1 0x1 PUSH1 0x1 PUSH1 0xA0 SHL SUB SWAP3 SWAP1 SWAP3 AND DUP3 MSTORE PUSH1 0x20 DUP3 ADD SWAP3 SWAP1 SWAP3 MSTORE LOG1 CODESIZE DUP1 DUP1 PUSH2 0x99C JUMP INVALID LOG2 PUSH5 0x6970667358 0x22 SLT KECCAK256 0xC7 0xD9 0xCE SLT XOR 0xBF GASPRICE 0xD2 ADDRESS PUSH6 0x7A1E1F9320DA 0x4E 0xDA 0xD1 0xBD MSTORE 0x2C 0xAC PUSH25 0x9C1D415FD5C5FA7D64736F6C63430008130033000000000000 ",
                    "linkReferences": {}
                },
                "methodIdentifiers": {
                    "allowedToDrain()": "1ce6236f",
                    "call(address,uint256,bytes,uint256)": "4e4a0c82",
                    "deploy(bytes,uint256)": "9c4ae2d0",
                    "deployAndExecute(bytes,uint256,(address,uint256,bytes)[],bytes)": "1e86da2a",
                    "deployAndExecuteMultiple(bytes,uint256,((address,uint256,bytes)[],bytes)[])": "a35aa273"
                }
            }
        }
    }
}